{
  "_format": "hh-sol-artifact-1",
  "contractName": "DoctorRegistration",
  "sourceName": "contracts/DoctorRegistration.sol",
  "abi": [
    {
      "anonymous": false,
      "inputs": [
        {
          "indexed": false,
          "internalType": "string",
          "name": "registrationNumber",
          "type": "string"
        },
        {
          "indexed": false,
          "internalType": "string",
          "name": "name",
          "type": "string"
        },
        {
          "indexed": false,
          "internalType": "address",
          "name": "walletAddress",
          "type": "address"
        }
      ],
      "name": "DoctorRegistered",
      "type": "event"
    },
    {
      "inputs": [
        {
          "internalType": "string",
          "name": "",
          "type": "string"
        }
      ],
      "name": "doctors",
      "outputs": [
        {
          "internalType": "address",
          "name": "walletAddress",
          "type": "address"
        },
        {
          "internalType": "string",
          "name": "name",
          "type": "string"
        },
        {
          "internalType": "string",
          "name": "specialization",
          "type": "string"
        },
        {
          "internalType": "string",
          "name": "registrationNumber",
          "type": "string"
        },
        {
          "internalType": "string",
          "name": "email",
          "type": "string"
        },
        {
          "internalType": "string",
          "name": "hospital",
          "type": "string"
        },
        {
          "internalType": "string",
          "name": "password",
          "type": "string"
        }
      ],
      "stateMutability": "view",
      "type": "function"
    },
    {
      "inputs": [],
      "name": "getAllDoctors",
      "outputs": [
        {
          "components": [
            {
              "internalType": "address",
              "name": "walletAddress",
              "type": "address"
            },
            {
              "internalType": "string",
              "name": "name",
              "type": "string"
            },
            {
              "internalType": "string",
              "name": "specialization",
              "type": "string"
            },
            {
              "internalType": "string",
              "name": "registrationNumber",
              "type": "string"
            },
            {
              "internalType": "string",
              "name": "email",
              "type": "string"
            },
            {
              "internalType": "string",
              "name": "hospital",
              "type": "string"
            },
            {
              "internalType": "string",
              "name": "password",
              "type": "string"
            }
          ],
          "internalType": "struct DoctorRegistration.Doctor[]",
          "name": "",
          "type": "tuple[]"
        }
      ],
      "stateMutability": "view",
      "type": "function"
    },
    {
      "inputs": [
        {
          "internalType": "string",
          "name": "",
          "type": "string"
        }
      ],
      "name": "isDoctorRegistered",
      "outputs": [
        {
          "internalType": "bool",
          "name": "",
          "type": "bool"
        }
      ],
      "stateMutability": "view",
      "type": "function"
    },
    {
      "inputs": [
        {
          "internalType": "address",
          "name": "",
          "type": "address"
        }
      ],
      "name": "isDoctorRegisteredAddress",
      "outputs": [
        {
          "internalType": "bool",
          "name": "",
          "type": "bool"
        }
      ],
      "stateMutability": "view",
      "type": "function"
    },
    {
      "inputs": [
        {
          "internalType": "address",
          "name": "_walletAddress",
          "type": "address"
        },
        {
          "internalType": "string",
          "name": "_name",
          "type": "string"
        },
        {
          "internalType": "string",
          "name": "_specialization",
          "type": "string"
        },
        {
          "internalType": "string",
          "name": "_registrationNumber",
          "type": "string"
        },
        {
          "internalType": "string",
          "name": "_email",
          "type": "string"
        },
        {
          "internalType": "string",
          "name": "_hospital",
          "type": "string"
        },
        {
          "internalType": "string",
          "name": "_password",
          "type": "string"
        }
      ],
      "name": "registerDoctor",
      "outputs": [],
      "stateMutability": "nonpayable",
      "type": "function"
    },
    {
      "inputs": [
        {
          "internalType": "uint256",
          "name": "",
          "type": "uint256"
        }
      ],
      "name": "registeredDoctorNumbers",
      "outputs": [
        {
          "internalType": "string",
          "name": "",
          "type": "string"
        }
      ],
      "stateMutability": "view",
      "type": "function"
    },
    {
      "inputs": [
        {
          "internalType": "address",
          "name": "_walletAddress",
          "type": "address"
        },
        {
          "internalType": "string",
          "name": "_registrationNumber",
          "type": "string"
        }
      ],
      "name": "validateAddress",
      "outputs": [
        {
          "internalType": "bool",
          "name": "",
          "type": "bool"
        }
      ],
      "stateMutability": "view",
      "type": "function"
    },
    {
      "inputs": [
        {
          "internalType": "string",
          "name": "_registrationNumber",
          "type": "string"
        },
        {
          "internalType": "string",
          "name": "_password",
          "type": "string"
        }
      ],
      "name": "validatePassword",
      "outputs": [
        {
          "internalType": "bool",
          "name": "",
          "type": "bool"
        }
      ],
      "stateMutability": "view",
      "type": "function"
    }
  ],
  "bytecode": "0x6080604052348015600f57600080fd5b50611e0e8061001f6000396000f3fe608060405234801561001057600080fd5b50600436106100885760003560e01c80638ff1605b1161005b5780638ff1605b1461013f5780639105efd61461016f578063d6b046601461019f578063f0d95090146101cf57610088565b806305c35ce51461008d5780635a8f5542146100c357806377fc3e36146100df5780637babdb261461010f575b600080fd5b6100a760048036038101906100a291906111f1565b6101ed565b6040516100ba97969594939291906112fa565b60405180910390f35b6100dd60048036038101906100d891906113bf565b610595565b005b6100f960048036038101906100f491906111f1565b6108d0565b6040516101069190611524565b60405180910390f35b6101296004803603810190610124919061153f565b610906565b6040516101369190611524565b60405180910390f35b610159600480360381019061015491906115b7565b6109e9565b6040516101669190611524565b60405180910390f35b61018960048036038101906101849190611613565b610acd565b6040516101969190611524565b60405180910390f35b6101b960048036038101906101b49190611676565b610aed565b6040516101c691906116a3565b60405180910390f35b6101d7610b99565b6040516101e4919061189f565b60405180910390f35b6002818051602081018201805184825260208301602085012081835280955050505050506000915090508060000160009054906101000a900473ffffffffffffffffffffffffffffffffffffffff169080600101805461024c906118f0565b80601f0160208091040260200160405190810160405280929190818152602001828054610278906118f0565b80156102c55780601f1061029a576101008083540402835291602001916102c5565b820191906000526020600020905b8154815290600101906020018083116102a857829003601f168201915b5050505050908060020180546102da906118f0565b80601f0160208091040260200160405190810160405280929190818152602001828054610306906118f0565b80156103535780601f1061032857610100808354040283529160200191610353565b820191906000526020600020905b81548152906001019060200180831161033657829003601f168201915b505050505090806003018054610368906118f0565b80601f0160208091040260200160405190810160405280929190818152602001828054610394906118f0565b80156103e15780601f106103b6576101008083540402835291602001916103e1565b820191906000526020600020905b8154815290600101906020018083116103c457829003601f168201915b5050505050908060040180546103f6906118f0565b80601f0160208091040260200160405190810160405280929190818152602001828054610422906118f0565b801561046f5780601f106104445761010080835404028352916020019161046f565b820191906000526020600020905b81548152906001019060200180831161045257829003601f168201915b505050505090806005018054610484906118f0565b80601f01602080910402602001604051908101604052809291908181526020018280546104b0906118f0565b80156104fd5780601f106104d2576101008083540402835291602001916104fd565b820191906000526020600020905b8154815290600101906020018083116104e057829003601f168201915b505050505090806006018054610512906118f0565b80601f016020809104026020016040519081016040528092919081815260200182805461053e906118f0565b801561058b5780601f106105605761010080835404028352916020019161058b565b820191906000526020600020905b81548152906001019060200180831161056e57829003601f168201915b5050505050905087565b6000846040516105a5919061195d565b908152602001604051809103902060009054906101000a900460ff1615610601576040517f08c379a00000000000000000000000000000000000000000000000000000000081526004016105f8906119c0565b60405180910390fd5b600160008873ffffffffffffffffffffffffffffffffffffffff1673ffffffffffffffffffffffffffffffffffffffff16815260200190815260200160002060009054906101000a900460ff161561068e576040517f08c379a0000000000000000000000000000000000000000000000000000000008152600401610685906119c0565b60405180910390fd5b60006040518060e001604052808973ffffffffffffffffffffffffffffffffffffffff168152602001888152602001878152602001868152602001858152602001848152602001838152509050806002866040516106ec919061195d565b908152602001604051809103902060008201518160000160006101000a81548173ffffffffffffffffffffffffffffffffffffffff021916908373ffffffffffffffffffffffffffffffffffffffff16021790555060208201518160010190816107569190611b8c565b50604082015181600201908161076c9190611b8c565b5060608201518160030190816107829190611b8c565b5060808201518160040190816107989190611b8c565b5060a08201518160050190816107ae9190611b8c565b5060c08201518160060190816107c49190611b8c565b5090505060016000866040516107da919061195d565b908152602001604051809103902060006101000a81548160ff02191690831515021790555060018060008a73ffffffffffffffffffffffffffffffffffffffff1673ffffffffffffffffffffffffffffffffffffffff16815260200190815260200160002060006101000a81548160ff02191690831515021790555060038590806001815401808255809150506001900390600052602060002001600090919091909150908161088a9190611b8c565b507f8d3f9c8a09dcd94bc9c847110caac40824996b777a45809b38b82b9aa3f71ec885888a6040516108be93929190611c5e565b60405180910390a15050505050505050565b6000818051602081018201805184825260208301602085012081835280955050505050506000915054906101000a900460ff1681565b60008083604051610917919061195d565b908152602001604051809103902060009054906101000a900460ff16610972576040517f08c379a000000000000000000000000000000000000000000000000000000000815260040161096990611cef565b60405180910390fd5b600283604051610982919061195d565b90815260200160405180910390206006016040516020016109a39190611d92565b60405160208183030381529060405280519060200120826040516020016109ca919061195d565b6040516020818303038152906040528051906020012014905092915050565b600080826040516109fa919061195d565b908152602001604051809103902060009054906101000a900460ff16610a55576040517f08c379a0000000000000000000000000000000000000000000000000000000008152600401610a4c90611cef565b60405180910390fd5b600282604051610a65919061195d565b908152602001604051809103902060000160009054906101000a900473ffffffffffffffffffffffffffffffffffffffff1673ffffffffffffffffffffffffffffffffffffffff168373ffffffffffffffffffffffffffffffffffffffff1614905092915050565b60016020528060005260406000206000915054906101000a900460ff1681565b60038181548110610afd57600080fd5b906000526020600020016000915090508054610b18906118f0565b80601f0160208091040260200160405190810160405280929190818152602001828054610b44906118f0565b8015610b915780601f10610b6657610100808354040283529160200191610b91565b820191906000526020600020905b815481529060010190602001808311610b7457829003601f168201915b505050505081565b60606000600380549050905060008167ffffffffffffffff811115610bc157610bc06110c6565b5b604051908082528060200260200182016040528015610bfa57816020015b610be7611044565b815260200190600190039081610bdf5790505b50905060005b8281101561103b57600260038281548110610c1e57610c1d611da9565b5b90600052602060002001604051610c359190611d92565b90815260200160405180910390206040518060e00160405290816000820160009054906101000a900473ffffffffffffffffffffffffffffffffffffffff1673ffffffffffffffffffffffffffffffffffffffff1673ffffffffffffffffffffffffffffffffffffffff168152602001600182018054610cb4906118f0565b80601f0160208091040260200160405190810160405280929190818152602001828054610ce0906118f0565b8015610d2d5780601f10610d0257610100808354040283529160200191610d2d565b820191906000526020600020905b815481529060010190602001808311610d1057829003601f168201915b50505050508152602001600282018054610d46906118f0565b80601f0160208091040260200160405190810160405280929190818152602001828054610d72906118f0565b8015610dbf5780601f10610d9457610100808354040283529160200191610dbf565b820191906000526020600020905b815481529060010190602001808311610da257829003601f168201915b50505050508152602001600382018054610dd8906118f0565b80601f0160208091040260200160405190810160405280929190818152602001828054610e04906118f0565b8015610e515780601f10610e2657610100808354040283529160200191610e51565b820191906000526020600020905b815481529060010190602001808311610e3457829003601f168201915b50505050508152602001600482018054610e6a906118f0565b80601f0160208091040260200160405190810160405280929190818152602001828054610e96906118f0565b8015610ee35780601f10610eb857610100808354040283529160200191610ee3565b820191906000526020600020905b815481529060010190602001808311610ec657829003601f168201915b50505050508152602001600582018054610efc906118f0565b80601f0160208091040260200160405190810160405280929190818152602001828054610f28906118f0565b8015610f755780601f10610f4a57610100808354040283529160200191610f75565b820191906000526020600020905b815481529060010190602001808311610f5857829003601f168201915b50505050508152602001600682018054610f8e906118f0565b80601f0160208091040260200160405190810160405280929190818152602001828054610fba906118f0565b80156110075780601f10610fdc57610100808354040283529160200191611007565b820191906000526020600020905b815481529060010190602001808311610fea57829003601f168201915b50505050508152505082828151811061102357611022611da9565b5b60200260200101819052508080600101915050610c00565b50809250505090565b6040518060e00160405280600073ffffffffffffffffffffffffffffffffffffffff1681526020016060815260200160608152602001606081526020016060815260200160608152602001606081525090565b6000604051905090565b600080fd5b600080fd5b600080fd5b600080fd5b6000601f19601f8301169050919050565b7f4e487b7100000000000000000000000000000000000000000000000000000000600052604160045260246000fd5b6110fe826110b5565b810181811067ffffffffffffffff8211171561111d5761111c6110c6565b5b80604052505050565b6000611130611097565b905061113c82826110f5565b919050565b600067ffffffffffffffff82111561115c5761115b6110c6565b5b611165826110b5565b9050602081019050919050565b82818337600083830152505050565b600061119461118f84611141565b611126565b9050828152602081018484840111156111b0576111af6110b0565b5b6111bb848285611172565b509392505050565b600082601f8301126111d8576111d76110ab565b5b81356111e8848260208601611181565b91505092915050565b600060208284031215611207576112066110a1565b5b600082013567ffffffffffffffff811115611225576112246110a6565b5b611231848285016111c3565b91505092915050565b600073ffffffffffffffffffffffffffffffffffffffff82169050919050565b60006112658261123a565b9050919050565b6112758161125a565b82525050565b600081519050919050565b600082825260208201905092915050565b60005b838110156112b557808201518184015260208101905061129a565b60008484015250505050565b60006112cc8261127b565b6112d68185611286565b93506112e6818560208601611297565b6112ef816110b5565b840191505092915050565b600060e08201905061130f600083018a61126c565b818103602083015261132181896112c1565b9050818103604083015261133581886112c1565b9050818103606083015261134981876112c1565b9050818103608083015261135d81866112c1565b905081810360a083015261137181856112c1565b905081810360c083015261138581846112c1565b905098975050505050505050565b61139c8161125a565b81146113a757600080fd5b50565b6000813590506113b981611393565b92915050565b600080600080600080600060e0888a0312156113de576113dd6110a1565b5b60006113ec8a828b016113aa565b975050602088013567ffffffffffffffff81111561140d5761140c6110a6565b5b6114198a828b016111c3565b965050604088013567ffffffffffffffff81111561143a576114396110a6565b5b6114468a828b016111c3565b955050606088013567ffffffffffffffff811115611467576114666110a6565b5b6114738a828b016111c3565b945050608088013567ffffffffffffffff811115611494576114936110a6565b5b6114a08a828b016111c3565b93505060a088013567ffffffffffffffff8111156114c1576114c06110a6565b5b6114cd8a828b016111c3565b92505060c088013567ffffffffffffffff8111156114ee576114ed6110a6565b5b6114fa8a828b016111c3565b91505092959891949750929550565b60008115159050919050565b61151e81611509565b82525050565b60006020820190506115396000830184611515565b92915050565b60008060408385031215611556576115556110a1565b5b600083013567ffffffffffffffff811115611574576115736110a6565b5b611580858286016111c3565b925050602083013567ffffffffffffffff8111156115a1576115a06110a6565b5b6115ad858286016111c3565b9150509250929050565b600080604083850312156115ce576115cd6110a1565b5b60006115dc858286016113aa565b925050602083013567ffffffffffffffff8111156115fd576115fc6110a6565b5b611609858286016111c3565b9150509250929050565b600060208284031215611629576116286110a1565b5b6000611637848285016113aa565b91505092915050565b6000819050919050565b61165381611640565b811461165e57600080fd5b50565b6000813590506116708161164a565b92915050565b60006020828403121561168c5761168b6110a1565b5b600061169a84828501611661565b91505092915050565b600060208201905081810360008301526116bd81846112c1565b905092915050565b600081519050919050565b600082825260208201905092915050565b6000819050602082019050919050565b6116fa8161125a565b82525050565b600082825260208201905092915050565b600061171c8261127b565b6117268185611700565b9350611736818560208601611297565b61173f816110b5565b840191505092915050565b600060e08301600083015161176260008601826116f1565b506020830151848203602086015261177a8282611711565b915050604083015184820360408601526117948282611711565b915050606083015184820360608601526117ae8282611711565b915050608083015184820360808601526117c88282611711565b91505060a083015184820360a08601526117e28282611711565b91505060c083015184820360c08601526117fc8282611711565b9150508091505092915050565b6000611815838361174a565b905092915050565b6000602082019050919050565b6000611835826116c5565b61183f81856116d0565b935083602082028501611851856116e1565b8060005b8581101561188d578484038952815161186e8582611809565b94506118798361181d565b925060208a01995050600181019050611855565b50829750879550505050505092915050565b600060208201905081810360008301526118b9818461182a565b905092915050565b7f4e487b7100000000000000000000000000000000000000000000000000000000600052602260045260246000fd5b6000600282049050600182168061190857607f821691505b60208210810361191b5761191a6118c1565b5b50919050565b600081905092915050565b60006119378261127b565b6119418185611921565b9350611951818560208601611297565b80840191505092915050565b6000611969828461192c565b915081905092915050565b7f446f63746f7220616c7265616479207265676973746572656400000000000000600082015250565b60006119aa601983611286565b91506119b582611974565b602082019050919050565b600060208201905081810360008301526119d98161199d565b9050919050565b60008190508160005260206000209050919050565b60006020601f8301049050919050565b600082821b905092915050565b600060088302611a427fffffffffffffffffffffffffffffffffffffffffffffffffffffffffffffffff82611a05565b611a4c8683611a05565b95508019841693508086168417925050509392505050565b6000819050919050565b6000611a89611a84611a7f84611640565b611a64565b611640565b9050919050565b6000819050919050565b611aa383611a6e565b611ab7611aaf82611a90565b848454611a12565b825550505050565b600090565b611acc611abf565b611ad7818484611a9a565b505050565b5b81811015611afb57611af0600082611ac4565b600181019050611add565b5050565b601f821115611b4057611b11816119e0565b611b1a846119f5565b81016020851015611b29578190505b611b3d611b35856119f5565b830182611adc565b50505b505050565b600082821c905092915050565b6000611b6360001984600802611b45565b1980831691505092915050565b6000611b7c8383611b52565b9150826002028217905092915050565b611b958261127b565b67ffffffffffffffff811115611bae57611bad6110c6565b5b611bb882546118f0565b611bc3828285611aff565b600060209050601f831160018114611bf65760008415611be4578287015190505b611bee8582611b70565b865550611c56565b601f198416611c04866119e0565b60005b82811015611c2c57848901518255600182019150602085019450602081019050611c07565b86831015611c495784890151611c45601f891682611b52565b8355505b6001600288020188555050505b505050505050565b60006060820190508181036000830152611c7881866112c1565b90508181036020830152611c8c81856112c1565b9050611c9b604083018461126c565b949350505050565b7f446f63746f72206e6f7420726567697374657265640000000000000000000000600082015250565b6000611cd9601583611286565b9150611ce482611ca3565b602082019050919050565b60006020820190508181036000830152611d0881611ccc565b9050919050565b60008154611d1c816118f0565b611d268186611921565b94506001821660008114611d415760018114611d5657611d89565b60ff1983168652811515820286019350611d89565b611d5f856119e0565b60005b83811015611d8157815481890152600182019150602081019050611d62565b838801955050505b50505092915050565b6000611d9e8284611d0f565b915081905092915050565b7f4e487b7100000000000000000000000000000000000000000000000000000000600052603260045260246000fdfea26469706673582212209332159ba3fd7ff1a6cbf54cf01734b3eecff71cbcd1a11b1dbce6a0f997079d64736f6c634300081c0033",
  "linkReferences": {},
  "deployedLinkReferences": {}
}