{
  "_format": "hh-sol-artifact-1",
  "contractName": "DoctorRegistration",
  "sourceName": "contracts/DoctorRegistration.sol",
  "abi": [
    {
      "anonymous": false,
      "inputs": [
        {
          "indexed": false,
          "internalType": "string",
          "name": "licenseNumber",
          "type": "string"
        },
        {
          "indexed": false,
          "internalType": "string",
          "name": "name",
          "type": "string"
        },
        {
          "indexed": false,
          "internalType": "address",
          "name": "walletAddress",
          "type": "address"
        }
      ],
      "name": "DoctorRegistered",
      "type": "event"
    },
    {
      "inputs": [
        {
          "internalType": "string",
          "name": "",
          "type": "string"
        }
      ],
      "name": "doctors",
      "outputs": [
        {
          "internalType": "address",
          "name": "walletAddress",
          "type": "address"
        },
        {
          "internalType": "string",
          "name": "name",
          "type": "string"
        },
        {
          "internalType": "string",
          "name": "dateOfBirth",
          "type": "string"
        },
        {
          "internalType": "string",
          "name": "gender",
          "type": "string"
        },
        {
          "internalType": "string",
          "name": "bloodGroup",
          "type": "string"
        },
        {
          "internalType": "string",
          "name": "specialization",
          "type": "string"
        },
        {
          "internalType": "string",
          "name": "licenseNumber",
          "type": "string"
        },
        {
          "internalType": "string",
          "name": "email",
          "type": "string"
        },
        {
          "internalType": "string",
          "name": "hospital",
          "type": "string"
        },
        {
          "internalType": "string",
          "name": "password",
          "type": "string"
        }
      ],
      "stateMutability": "view",
      "type": "function"
    },
    {
      "inputs": [
        {
          "internalType": "string",
          "name": "_licenseNumber",
          "type": "string"
        }
      ],
      "name": "getDoctorDetails",
      "outputs": [
        {
          "internalType": "address",
          "name": "walletAddress",
          "type": "address"
        },
        {
          "internalType": "string",
          "name": "name",
          "type": "string"
        },
        {
          "internalType": "string",
          "name": "dateOfBirth",
          "type": "string"
        },
        {
          "internalType": "string",
          "name": "gender",
          "type": "string"
        },
        {
          "internalType": "string",
          "name": "bloodGroup",
          "type": "string"
        },
        {
          "internalType": "string",
          "name": "specialization",
          "type": "string"
        },
        {
          "internalType": "string",
          "name": "email",
          "type": "string"
        },
        {
          "internalType": "string",
          "name": "hospital",
          "type": "string"
        }
      ],
      "stateMutability": "view",
      "type": "function"
    },
    {
      "inputs": [
        {
          "internalType": "string",
          "name": "_patientNumber",
          "type": "string"
        }
      ],
      "name": "getDoctorList",
      "outputs": [
        {
          "components": [
            {
              "internalType": "string",
              "name": "doctorNumber",
              "type": "string"
            },
            {
              "internalType": "string",
              "name": "doctorName",
              "type": "string"
            }
          ],
          "internalType": "struct DoctorRegistration.DoctorList[]",
          "name": "",
          "type": "tuple[]"
        }
      ],
      "stateMutability": "view",
      "type": "function"
    },
    {
      "inputs": [
        {
          "internalType": "string",
          "name": "_doctorNumber",
          "type": "string"
        },
        {
          "internalType": "string",
          "name": "_patientNumber",
          "type": "string"
        },
        {
          "internalType": "string",
          "name": "_doctorName",
          "type": "string"
        }
      ],
      "name": "grantPermission",
      "outputs": [],
      "stateMutability": "nonpayable",
      "type": "function"
    },
    {
      "inputs": [
        {
          "internalType": "string",
          "name": "",
          "type": "string"
        }
      ],
      "name": "isDoctorRegistered",
      "outputs": [
        {
          "internalType": "bool",
          "name": "",
          "type": "bool"
        }
      ],
      "stateMutability": "view",
      "type": "function"
    },
    {
      "inputs": [
        {
          "internalType": "address",
          "name": "",
          "type": "address"
        }
      ],
      "name": "isDoctorRegisteredAddress",
      "outputs": [
        {
          "internalType": "bool",
          "name": "",
          "type": "bool"
        }
      ],
      "stateMutability": "view",
      "type": "function"
    },
    {
      "inputs": [
        {
          "internalType": "string",
          "name": "_doctorNumber",
          "type": "string"
        },
        {
          "internalType": "string",
          "name": "_patientNumber",
          "type": "string"
        }
      ],
      "name": "isPermissionGranted",
      "outputs": [
        {
          "internalType": "bool",
          "name": "",
          "type": "bool"
        }
      ],
      "stateMutability": "view",
      "type": "function"
    },
    {
      "inputs": [
        {
          "internalType": "string",
          "name": "_licenseNumber",
          "type": "string"
        }
      ],
      "name": "isRegisteredDoctor",
      "outputs": [
        {
          "internalType": "bool",
          "name": "",
          "type": "bool"
        }
      ],
      "stateMutability": "view",
      "type": "function"
    },
    {
      "inputs": [
        {
          "internalType": "string",
          "name": "",
          "type": "string"
        },
        {
          "internalType": "string",
          "name": "",
          "type": "string"
        }
      ],
      "name": "patientPermissions",
      "outputs": [
        {
          "internalType": "bool",
          "name": "",
          "type": "bool"
        }
      ],
      "stateMutability": "view",
      "type": "function"
    },
    {
      "inputs": [
        {
          "internalType": "address",
          "name": "_walletAddress",
          "type": "address"
        },
        {
          "internalType": "string",
          "name": "_name",
          "type": "string"
        },
        {
          "internalType": "string",
          "name": "_dateOfBirth",
          "type": "string"
        },
        {
          "internalType": "string",
          "name": "_gender",
          "type": "string"
        },
        {
          "internalType": "string",
          "name": "_bloodGroup",
          "type": "string"
        },
        {
          "internalType": "string",
          "name": "_specialization",
          "type": "string"
        },
        {
          "internalType": "string",
          "name": "_licenseNumber",
          "type": "string"
        },
        {
          "internalType": "string",
          "name": "_email",
          "type": "string"
        },
        {
          "internalType": "string",
          "name": "_hospital",
          "type": "string"
        },
        {
          "internalType": "string",
          "name": "_password",
          "type": "string"
        }
      ],
      "name": "registerDoctor",
      "outputs": [],
      "stateMutability": "nonpayable",
      "type": "function"
    },
    {
      "inputs": [
        {
          "internalType": "address",
          "name": "_walletAddress",
          "type": "address"
        },
        {
          "internalType": "string",
          "name": "_licenseNumber",
          "type": "string"
        }
      ],
      "name": "validateAddress",
      "outputs": [
        {
          "internalType": "bool",
          "name": "",
          "type": "bool"
        }
      ],
      "stateMutability": "view",
      "type": "function"
    },
    {
      "inputs": [
        {
          "internalType": "string",
          "name": "_licenseNumber",
          "type": "string"
        },
        {
          "internalType": "string",
          "name": "_password",
          "type": "string"
        }
      ],
      "name": "validatePassword",
      "outputs": [
        {
          "internalType": "bool",
          "name": "",
          "type": "bool"
        }
      ],
      "stateMutability": "view",
      "type": "function"
    }
  ],
  "bytecode": "0x6080604052348015600f57600080fd5b506128108061001f6000396000f3fe608060405234801561001057600080fd5b50600436106100b45760003560e01c80639105efd6116100715780639105efd6146101d55780639e0b6b7614610205578063a46bef1514610235578063d120c10c14610265578063d495362714610295578063d9ed6b31146102b1576100b4565b806305c35ce5146100b95780633e769767146100f25780635df670401461012957806377fc3e36146101455780637babdb26146101755780638ff1605b146101a5575b600080fd5b6100d360048036038101906100ce9190611a3d565b6102e1565b6040516100e99a99989796959493929190611b46565b60405180910390f35b61010c60048036038101906101079190611a3d565b610833565b604051610120989796959493929190611c21565b60405180910390f35b610143600480360381019061013e9190611cd0565b610e96565b005b61015f600480360381019061015a9190611a3d565b6110e4565b60405161016c9190611d92565b60405180910390f35b61018f600480360381019061018a9190611dad565b61111a565b60405161019c9190611d92565b60405180910390f35b6101bf60048036038101906101ba9190611e51565b6111fd565b6040516101cc9190611d92565b60405180910390f35b6101ef60048036038101906101ea9190611ead565b6112e1565b6040516101fc9190611d92565b60405180910390f35b61021f600480360381019061021a9190611dad565b611301565b60405161022c9190611d92565b60405180910390f35b61024f600480360381019061024a9190611a3d565b61135c565b60405161025c9190611d92565b60405180910390f35b61027f600480360381019061027a9190611dad565b611390565b60405161028c9190611d92565b60405180910390f35b6102af60048036038101906102aa9190611eda565b6113e2565b005b6102cb60048036038101906102c69190611a3d565b611742565b6040516102d89190612205565b60405180910390f35b6002818051602081018201805184825260208301602085012081835280955050505050506000915090508060000160009054906101000a900473ffffffffffffffffffffffffffffffffffffffff169080600101805461034090612256565b80601f016020809104026020016040519081016040528092919081815260200182805461036c90612256565b80156103b95780601f1061038e576101008083540402835291602001916103b9565b820191906000526020600020905b81548152906001019060200180831161039c57829003601f168201915b5050505050908060020180546103ce90612256565b80601f01602080910402602001604051908101604052809291908181526020018280546103fa90612256565b80156104475780601f1061041c57610100808354040283529160200191610447565b820191906000526020600020905b81548152906001019060200180831161042a57829003601f168201915b50505050509080600301805461045c90612256565b80601f016020809104026020016040519081016040528092919081815260200182805461048890612256565b80156104d55780601f106104aa576101008083540402835291602001916104d5565b820191906000526020600020905b8154815290600101906020018083116104b857829003601f168201915b5050505050908060040180546104ea90612256565b80601f016020809104026020016040519081016040528092919081815260200182805461051690612256565b80156105635780601f1061053857610100808354040283529160200191610563565b820191906000526020600020905b81548152906001019060200180831161054657829003601f168201915b50505050509080600501805461057890612256565b80601f01602080910402602001604051908101604052809291908181526020018280546105a490612256565b80156105f15780601f106105c6576101008083540402835291602001916105f1565b820191906000526020600020905b8154815290600101906020018083116105d457829003601f168201915b50505050509080600601805461060690612256565b80601f016020809104026020016040519081016040528092919081815260200182805461063290612256565b801561067f5780601f106106545761010080835404028352916020019161067f565b820191906000526020600020905b81548152906001019060200180831161066257829003601f168201915b50505050509080600701805461069490612256565b80601f01602080910402602001604051908101604052809291908181526020018280546106c090612256565b801561070d5780601f106106e25761010080835404028352916020019161070d565b820191906000526020600020905b8154815290600101906020018083116106f057829003601f168201915b50505050509080600801805461072290612256565b80601f016020809104026020016040519081016040528092919081815260200182805461074e90612256565b801561079b5780601f106107705761010080835404028352916020019161079b565b820191906000526020600020905b81548152906001019060200180831161077e57829003601f168201915b5050505050908060090180546107b090612256565b80601f01602080910402602001604051908101604052809291908181526020018280546107dc90612256565b80156108295780601f106107fe57610100808354040283529160200191610829565b820191906000526020600020905b81548152906001019060200180831161080c57829003601f168201915b505050505090508a565b6000606080606080606080606060008960405161085091906122c3565b908152602001604051809103902060009054906101000a900460ff166108ab576040517f08c379a00000000000000000000000000000000000000000000000000000000081526004016108a290612326565b60405180910390fd5b600060028a6040516108bd91906122c3565b9081526020016040518091039020604051806101400160405290816000820160009054906101000a900473ffffffffffffffffffffffffffffffffffffffff1673ffffffffffffffffffffffffffffffffffffffff1673ffffffffffffffffffffffffffffffffffffffff16815260200160018201805461093d90612256565b80601f016020809104026020016040519081016040528092919081815260200182805461096990612256565b80156109b65780601f1061098b576101008083540402835291602001916109b6565b820191906000526020600020905b81548152906001019060200180831161099957829003601f168201915b505050505081526020016002820180546109cf90612256565b80601f01602080910402602001604051908101604052809291908181526020018280546109fb90612256565b8015610a485780601f10610a1d57610100808354040283529160200191610a48565b820191906000526020600020905b815481529060010190602001808311610a2b57829003601f168201915b50505050508152602001600382018054610a6190612256565b80601f0160208091040260200160405190810160405280929190818152602001828054610a8d90612256565b8015610ada5780601f10610aaf57610100808354040283529160200191610ada565b820191906000526020600020905b815481529060010190602001808311610abd57829003601f168201915b50505050508152602001600482018054610af390612256565b80601f0160208091040260200160405190810160405280929190818152602001828054610b1f90612256565b8015610b6c5780601f10610b4157610100808354040283529160200191610b6c565b820191906000526020600020905b815481529060010190602001808311610b4f57829003601f168201915b50505050508152602001600582018054610b8590612256565b80601f0160208091040260200160405190810160405280929190818152602001828054610bb190612256565b8015610bfe5780601f10610bd357610100808354040283529160200191610bfe565b820191906000526020600020905b815481529060010190602001808311610be157829003601f168201915b50505050508152602001600682018054610c1790612256565b80601f0160208091040260200160405190810160405280929190818152602001828054610c4390612256565b8015610c905780601f10610c6557610100808354040283529160200191610c90565b820191906000526020600020905b815481529060010190602001808311610c7357829003601f168201915b50505050508152602001600782018054610ca990612256565b80601f0160208091040260200160405190810160405280929190818152602001828054610cd590612256565b8015610d225780601f10610cf757610100808354040283529160200191610d22565b820191906000526020600020905b815481529060010190602001808311610d0557829003601f168201915b50505050508152602001600882018054610d3b90612256565b80601f0160208091040260200160405190810160405280929190818152602001828054610d6790612256565b8015610db45780601f10610d8957610100808354040283529160200191610db4565b820191906000526020600020905b815481529060010190602001808311610d9757829003601f168201915b50505050508152602001600982018054610dcd90612256565b80601f0160208091040260200160405190810160405280929190818152602001828054610df990612256565b8015610e465780601f10610e1b57610100808354040283529160200191610e46565b820191906000526020600020905b815481529060010190602001808311610e2957829003601f168201915b5050505050815250509050806000015181602001518260400151836060015184608001518560a001518660e001518761010001519850985098509850985098509850985050919395975091939597565b600483604051610ea691906122c3565b908152602001604051809103902082604051610ec291906122c3565b908152602001604051809103902060009054906101000a900460ff1615610f1e576040517f08c379a0000000000000000000000000000000000000000000000000000000008152600401610f15906123b8565b60405180910390fd5b6000805b600384604051610f3291906122c3565b908152602001604051809103902080549050811015610ff45784604051602001610f5c91906122c3565b60405160208183030381529060405280519060200120600385604051610f8291906122c3565b90815260200160405180910390208281548110610fa257610fa16123d8565b5b9060005260206000209060020201600001604051602001610fc3919061249f565b6040516020818303038152906040528051906020012003610fe75760019150610ff4565b8080600101915050610f22565b508061108b576000604051806040016040528086815260200184815250905060038460405161102391906122c3565b908152602001604051809103902081908060018154018082558091505060019003906000526020600020906002020160009091909190915060008201518160000190816110709190612657565b5060208201518160010190816110869190612657565b505050505b600160048560405161109d91906122c3565b9081526020016040518091039020846040516110b991906122c3565b908152602001604051809103902060006101000a81548160ff02191690831515021790555050505050565b6000818051602081018201805184825260208301602085012081835280955050505050506000915054906101000a900460ff1681565b6000808360405161112b91906122c3565b908152602001604051809103902060009054906101000a900460ff16611186576040517f08c379a000000000000000000000000000000000000000000000000000000000815260040161117d90612326565b60405180910390fd5b60028360405161119691906122c3565b90815260200160405180910390206009016040516020016111b7919061249f565b60405160208183030381529060405280519060200120826040516020016111de91906122c3565b6040516020818303038152906040528051906020012014905092915050565b6000808260405161120e91906122c3565b908152602001604051809103902060009054906101000a900460ff16611269576040517f08c379a000000000000000000000000000000000000000000000000000000000815260040161126090612326565b60405180910390fd5b60028260405161127991906122c3565b908152602001604051809103902060000160009054906101000a900473ffffffffffffffffffffffffffffffffffffffff1673ffffffffffffffffffffffffffffffffffffffff168373ffffffffffffffffffffffffffffffffffffffff1614905092915050565b60016020528060005260406000206000915054906101000a900460ff1681565b600482805160208101820180518482526020830160208501208183528095505050505050818051602081018201805184825260208301602085012081835280955050505050506000915091509054906101000a900460ff1681565b6000808260405161136d91906122c3565b908152602001604051809103902060009054906101000a900460ff169050919050565b60006004836040516113a291906122c3565b9081526020016040518091039020826040516113be91906122c3565b908152602001604051809103902060009054906101000a900460ff16905092915050565b6000846040516113f291906122c3565b908152602001604051809103902060009054906101000a900460ff161561144e576040517f08c379a000000000000000000000000000000000000000000000000000000000815260040161144590612775565b60405180910390fd5b600160008b73ffffffffffffffffffffffffffffffffffffffff1673ffffffffffffffffffffffffffffffffffffffff16815260200190815260200160002060009054906101000a900460ff16156114db576040517f08c379a00000000000000000000000000000000000000000000000000000000081526004016114d290612775565b60405180910390fd5b60006040518061014001604052808c73ffffffffffffffffffffffffffffffffffffffff1681526020018b81526020018a81526020018981526020018881526020018781526020018681526020018581526020018481526020018381525090508060028660405161154c91906122c3565b908152602001604051809103902060008201518160000160006101000a81548173ffffffffffffffffffffffffffffffffffffffff021916908373ffffffffffffffffffffffffffffffffffffffff16021790555060208201518160010190816115b69190612657565b5060408201518160020190816115cc9190612657565b5060608201518160030190816115e29190612657565b5060808201518160040190816115f89190612657565b5060a082015181600501908161160e9190612657565b5060c08201518160060190816116249190612657565b5060e082015181600701908161163a9190612657565b506101008201518160080190816116519190612657565b506101208201518160090190816116689190612657565b50905050600160008660405161167e91906122c3565b908152602001604051809103902060006101000a81548160ff02191690831515021790555060018060008d73ffffffffffffffffffffffffffffffffffffffff1673ffffffffffffffffffffffffffffffffffffffff16815260200190815260200160002060006101000a81548160ff0219169083151502179055507f8d3f9c8a09dcd94bc9c847110caac40824996b777a45809b38b82b9aa3f71ec8858b8d60405161172d93929190612795565b60405180910390a15050505050505050505050565b606060038260405161175491906122c3565b9081526020016040518091039020805480602002602001604051908101604052809291908181526020016000905b828210156118d857838290600052602060002090600202016040518060400160405290816000820180546117b590612256565b80601f01602080910402602001604051908101604052809291908181526020018280546117e190612256565b801561182e5780601f106118035761010080835404028352916020019161182e565b820191906000526020600020905b81548152906001019060200180831161181157829003601f168201915b5050505050815260200160018201805461184790612256565b80601f016020809104026020016040519081016040528092919081815260200182805461187390612256565b80156118c05780601f10611895576101008083540402835291602001916118c0565b820191906000526020600020905b8154815290600101906020018083116118a357829003601f168201915b50505050508152505081526020019060010190611782565b505050509050919050565b6000604051905090565b600080fd5b600080fd5b600080fd5b600080fd5b6000601f19601f8301169050919050565b7f4e487b7100000000000000000000000000000000000000000000000000000000600052604160045260246000fd5b61194a82611901565b810181811067ffffffffffffffff8211171561196957611968611912565b5b80604052505050565b600061197c6118e3565b90506119888282611941565b919050565b600067ffffffffffffffff8211156119a8576119a7611912565b5b6119b182611901565b9050602081019050919050565b82818337600083830152505050565b60006119e06119db8461198d565b611972565b9050828152602081018484840111156119fc576119fb6118fc565b5b611a078482856119be565b509392505050565b600082601f830112611a2457611a236118f7565b5b8135611a348482602086016119cd565b91505092915050565b600060208284031215611a5357611a526118ed565b5b600082013567ffffffffffffffff811115611a7157611a706118f2565b5b611a7d84828501611a0f565b91505092915050565b600073ffffffffffffffffffffffffffffffffffffffff82169050919050565b6000611ab182611a86565b9050919050565b611ac181611aa6565b82525050565b600081519050919050565b600082825260208201905092915050565b60005b83811015611b01578082015181840152602081019050611ae6565b60008484015250505050565b6000611b1882611ac7565b611b228185611ad2565b9350611b32818560208601611ae3565b611b3b81611901565b840191505092915050565b600061014082019050611b5c600083018d611ab8565b8181036020830152611b6e818c611b0d565b90508181036040830152611b82818b611b0d565b90508181036060830152611b96818a611b0d565b90508181036080830152611baa8189611b0d565b905081810360a0830152611bbe8188611b0d565b905081810360c0830152611bd28187611b0d565b905081810360e0830152611be68186611b0d565b9050818103610100830152611bfb8185611b0d565b9050818103610120830152611c108184611b0d565b90509b9a5050505050505050505050565b600061010082019050611c37600083018b611ab8565b8181036020830152611c49818a611b0d565b90508181036040830152611c5d8189611b0d565b90508181036060830152611c718188611b0d565b90508181036080830152611c858187611b0d565b905081810360a0830152611c998186611b0d565b905081810360c0830152611cad8185611b0d565b905081810360e0830152611cc18184611b0d565b90509998505050505050505050565b600080600060608486031215611ce957611ce86118ed565b5b600084013567ffffffffffffffff811115611d0757611d066118f2565b5b611d1386828701611a0f565b935050602084013567ffffffffffffffff811115611d3457611d336118f2565b5b611d4086828701611a0f565b925050604084013567ffffffffffffffff811115611d6157611d606118f2565b5b611d6d86828701611a0f565b9150509250925092565b60008115159050919050565b611d8c81611d77565b82525050565b6000602082019050611da76000830184611d83565b92915050565b60008060408385031215611dc457611dc36118ed565b5b600083013567ffffffffffffffff811115611de257611de16118f2565b5b611dee85828601611a0f565b925050602083013567ffffffffffffffff811115611e0f57611e0e6118f2565b5b611e1b85828601611a0f565b9150509250929050565b611e2e81611aa6565b8114611e3957600080fd5b50565b600081359050611e4b81611e25565b92915050565b60008060408385031215611e6857611e676118ed565b5b6000611e7685828601611e3c565b925050602083013567ffffffffffffffff811115611e9757611e966118f2565b5b611ea385828601611a0f565b9150509250929050565b600060208284031215611ec357611ec26118ed565b5b6000611ed184828501611e3c565b91505092915050565b6000806000806000806000806000806101408b8d031215611efe57611efd6118ed565b5b6000611f0c8d828e01611e3c565b9a505060208b013567ffffffffffffffff811115611f2d57611f2c6118f2565b5b611f398d828e01611a0f565b99505060408b013567ffffffffffffffff811115611f5a57611f596118f2565b5b611f668d828e01611a0f565b98505060608b013567ffffffffffffffff811115611f8757611f866118f2565b5b611f938d828e01611a0f565b97505060808b013567ffffffffffffffff811115611fb457611fb36118f2565b5b611fc08d828e01611a0f565b96505060a08b013567ffffffffffffffff811115611fe157611fe06118f2565b5b611fed8d828e01611a0f565b95505060c08b013567ffffffffffffffff81111561200e5761200d6118f2565b5b61201a8d828e01611a0f565b94505060e08b013567ffffffffffffffff81111561203b5761203a6118f2565b5b6120478d828e01611a0f565b9350506101008b013567ffffffffffffffff811115612069576120686118f2565b5b6120758d828e01611a0f565b9250506101208b013567ffffffffffffffff811115612097576120966118f2565b5b6120a38d828e01611a0f565b9150509295989b9194979a5092959850565b600081519050919050565b600082825260208201905092915050565b6000819050602082019050919050565b600082825260208201905092915050565b60006120fd82611ac7565b61210781856120e1565b9350612117818560208601611ae3565b61212081611901565b840191505092915050565b6000604083016000830151848203600086015261214882826120f2565b9150506020830151848203602086015261216282826120f2565b9150508091505092915050565b600061217b838361212b565b905092915050565b6000602082019050919050565b600061219b826120b5565b6121a581856120c0565b9350836020820285016121b7856120d1565b8060005b858110156121f357848403895281516121d4858261216f565b94506121df83612183565b925060208a019950506001810190506121bb565b50829750879550505050505092915050565b6000602082019050818103600083015261221f8184612190565b905092915050565b7f4e487b7100000000000000000000000000000000000000000000000000000000600052602260045260246000fd5b6000600282049050600182168061226e57607f821691505b60208210810361228157612280612227565b5b50919050565b600081905092915050565b600061229d82611ac7565b6122a78185612287565b93506122b7818560208601611ae3565b80840191505092915050565b60006122cf8284612292565b915081905092915050565b7f446f63746f72206e6f7420726567697374657265640000000000000000000000600082015250565b6000612310601583611ad2565b915061231b826122da565b602082019050919050565b6000602082019050818103600083015261233f81612303565b9050919050565b7f41636365737320616c7265616479206772616e74656420746f2070617469656e60008201527f7421000000000000000000000000000000000000000000000000000000000000602082015250565b60006123a2602283611ad2565b91506123ad82612346565b604082019050919050565b600060208201905081810360008301526123d181612395565b9050919050565b7f4e487b7100000000000000000000000000000000000000000000000000000000600052603260045260246000fd5b60008190508160005260206000209050919050565b6000815461242981612256565b6124338186612287565b9450600182166000811461244e576001811461246357612496565b60ff1983168652811515820286019350612496565b61246c85612407565b60005b8381101561248e5781548189015260018201915060208101905061246f565b838801955050505b50505092915050565b60006124ab828461241c565b915081905092915050565b60006020601f8301049050919050565b600082821b905092915050565b6000600883026125037fffffffffffffffffffffffffffffffffffffffffffffffffffffffffffffffff826124c6565b61250d86836124c6565b95508019841693508086168417925050509392505050565b6000819050919050565b6000819050919050565b600061255461254f61254a84612525565b61252f565b612525565b9050919050565b6000819050919050565b61256e83612539565b61258261257a8261255b565b8484546124d3565b825550505050565b600090565b61259761258a565b6125a2818484612565565b505050565b5b818110156125c6576125bb60008261258f565b6001810190506125a8565b5050565b601f82111561260b576125dc81612407565b6125e5846124b6565b810160208510156125f4578190505b612608612600856124b6565b8301826125a7565b50505b505050565b600082821c905092915050565b600061262e60001984600802612610565b1980831691505092915050565b6000612647838361261d565b9150826002028217905092915050565b61266082611ac7565b67ffffffffffffffff81111561267957612678611912565b5b6126838254612256565b61268e8282856125ca565b600060209050601f8311600181146126c157600084156126af578287015190505b6126b9858261263b565b865550612721565b601f1984166126cf86612407565b60005b828110156126f7578489015182556001820191506020850194506020810190506126d2565b868310156127145784890151612710601f89168261261d565b8355505b6001600288020188555050505b505050505050565b7f446f63746f7220616c7265616479207265676973746572656400000000000000600082015250565b600061275f601983611ad2565b915061276a82612729565b602082019050919050565b6000602082019050818103600083015261278e81612752565b9050919050565b600060608201905081810360008301526127af8186611b0d565b905081810360208301526127c38185611b0d565b90506127d26040830184611ab8565b94935050505056fea2646970667358221220e51a634649d9a3713b78496d31cff166886935604c5222c4a5c7aa205c7707d164736f6c634300081c0033",
  "linkReferences": {},
  "deployedLinkReferences": {}
}