{
  "_format": "hh-sol-artifact-1",
  "contractName": "PatientRegistration",
  "sourceName": "contracts/PatientRegistration.sol",
  "abi": [
    {
      "anonymous": false,
      "inputs": [
        {
          "indexed": false,
          "internalType": "string",
          "name": "hhNumber",
          "type": "string"
        },
        {
          "indexed": false,
          "internalType": "string",
          "name": "name",
          "type": "string"
        },
        {
          "indexed": false,
          "internalType": "address",
          "name": "walletAddress",
          "type": "address"
        }
      ],
      "name": "PatientRegistered",
      "type": "event"
    },
    {
      "inputs": [
        {
          "internalType": "string",
          "name": "",
          "type": "string"
        },
        {
          "internalType": "string",
          "name": "",
          "type": "string"
        }
      ],
      "name": "doctorPermissions",
      "outputs": [
        {
          "internalType": "bool",
          "name": "",
          "type": "bool"
        }
      ],
      "stateMutability": "view",
      "type": "function"
    },
    {
      "inputs": [
        {
          "internalType": "string",
          "name": "_hhNumber",
          "type": "string"
        }
      ],
      "name": "getPatientDetails",
      "outputs": [
        {
          "internalType": "address",
          "name": "walletAddress",
          "type": "address"
        },
        {
          "internalType": "string",
          "name": "name",
          "type": "string"
        },
        {
          "internalType": "string",
          "name": "dateOfBirth",
          "type": "string"
        },
        {
          "internalType": "string",
          "name": "gender",
          "type": "string"
        },
        {
          "internalType": "string",
          "name": "bloodGroup",
          "type": "string"
        },
        {
          "internalType": "string",
          "name": "homeAddress",
          "type": "string"
        },
        {
          "internalType": "string",
          "name": "email",
          "type": "string"
        }
      ],
      "stateMutability": "view",
      "type": "function"
    },
    {
      "inputs": [
        {
          "internalType": "string",
          "name": "_doctorNumber",
          "type": "string"
        }
      ],
      "name": "getPatientList",
      "outputs": [
        {
          "components": [
            {
              "internalType": "string",
              "name": "patient_number",
              "type": "string"
            },
            {
              "internalType": "string",
              "name": "patient_name",
              "type": "string"
            }
          ],
          "internalType": "struct PatientRegistration.PatientList[]",
          "name": "",
          "type": "tuple[]"
        }
      ],
      "stateMutability": "view",
      "type": "function"
    },
    {
      "inputs": [
        {
          "internalType": "string",
          "name": "_patientNumber",
          "type": "string"
        },
        {
          "internalType": "string",
          "name": "_doctorNumber",
          "type": "string"
        },
        {
          "internalType": "string",
          "name": "_patientName",
          "type": "string"
        }
      ],
      "name": "grantPermission",
      "outputs": [],
      "stateMutability": "nonpayable",
      "type": "function"
    },
    {
      "inputs": [
        {
          "internalType": "string",
          "name": "",
          "type": "string"
        }
      ],
      "name": "isPatientRegistered",
      "outputs": [
        {
          "internalType": "bool",
          "name": "",
          "type": "bool"
        }
      ],
      "stateMutability": "view",
      "type": "function"
    },
    {
      "inputs": [
        {
          "internalType": "string",
          "name": "_patientNumber",
          "type": "string"
        },
        {
          "internalType": "string",
          "name": "_doctorNumber",
          "type": "string"
        }
      ],
      "name": "isPermissionGranted",
      "outputs": [
        {
          "internalType": "bool",
          "name": "",
          "type": "bool"
        }
      ],
      "stateMutability": "view",
      "type": "function"
    },
    {
      "inputs": [
        {
          "internalType": "string",
          "name": "_hhNumber",
          "type": "string"
        }
      ],
      "name": "isRegisteredPatient",
      "outputs": [
        {
          "internalType": "bool",
          "name": "",
          "type": "bool"
        }
      ],
      "stateMutability": "view",
      "type": "function"
    },
    {
      "inputs": [
        {
          "internalType": "string",
          "name": "",
          "type": "string"
        }
      ],
      "name": "patients",
      "outputs": [
        {
          "internalType": "address",
          "name": "walletAddress",
          "type": "address"
        },
        {
          "internalType": "string",
          "name": "name",
          "type": "string"
        },
        {
          "internalType": "string",
          "name": "dateOfBirth",
          "type": "string"
        },
        {
          "internalType": "string",
          "name": "gender",
          "type": "string"
        },
        {
          "internalType": "string",
          "name": "bloodGroup",
          "type": "string"
        },
        {
          "internalType": "string",
          "name": "homeAddress",
          "type": "string"
        },
        {
          "internalType": "string",
          "name": "email",
          "type": "string"
        },
        {
          "internalType": "string",
          "name": "hhNumber",
          "type": "string"
        },
        {
          "internalType": "string",
          "name": "password",
          "type": "string"
        }
      ],
      "stateMutability": "view",
      "type": "function"
    },
    {
      "inputs": [
        {
          "internalType": "address",
          "name": "_walletAddress",
          "type": "address"
        },
        {
          "internalType": "string",
          "name": "_name",
          "type": "string"
        },
        {
          "internalType": "string",
          "name": "_dateOfBirth",
          "type": "string"
        },
        {
          "internalType": "string",
          "name": "_gender",
          "type": "string"
        },
        {
          "internalType": "string",
          "name": "_bloodGroup",
          "type": "string"
        },
        {
          "internalType": "string",
          "name": "_homeAddress",
          "type": "string"
        },
        {
          "internalType": "string",
          "name": "_email",
          "type": "string"
        },
        {
          "internalType": "string",
          "name": "_hhNumber",
          "type": "string"
        },
        {
          "internalType": "string",
          "name": "_password",
          "type": "string"
        }
      ],
      "name": "registerPatient",
      "outputs": [],
      "stateMutability": "nonpayable",
      "type": "function"
    },
    {
      "inputs": [
        {
          "internalType": "string",
          "name": "_hhNumber",
          "type": "string"
        },
        {
          "internalType": "string",
          "name": "_password",
          "type": "string"
        }
      ],
      "name": "validatePassword",
      "outputs": [
        {
          "internalType": "bool",
          "name": "",
          "type": "bool"
        }
      ],
      "stateMutability": "view",
      "type": "function"
    }
  ],
  "bytecode": "0x6080604052348015600f57600080fd5b506123828061001f6000396000f3fe608060405234801561001057600080fd5b506004361061009e5760003560e01c806391c12f761161006657806391c12f761461016b578063c6009d841461019b578063d120c10c146101d3578063ea977fc814610203578063f7252641146102395761009e565b806344334733146100a35780634f10c6c2146100d357806357812a08146101035780635df670401461011f5780637babdb261461013b575b600080fd5b6100bd60048036038101906100b89190611695565b610269565b6040516100ca9190611728565b60405180910390f35b6100ed60048036038101906100e89190611743565b6102c4565b6040516100fa9190611728565b60405180910390f35b61011d600480360381019061011891906117ea565b6102fa565b005b61013960048036038101906101349190611994565b610558565b005b61015560048036038101906101509190611695565b6107a6565b6040516101629190611728565b60405180910390f35b61018560048036038101906101809190611743565b610889565b6040516101929190611bc0565b60405180910390f35b6101b560048036038101906101b09190611743565b610a2a565b6040516101ca99989796959493929190611c3b565b60405180910390f35b6101ed60048036038101906101e89190611695565b610eee565b6040516101fa9190611728565b60405180910390f35b61021d60048036038101906102189190611743565b610f40565b6040516102309796959493929190611d00565b60405180910390f35b610253600480360381019061024e9190611743565b611507565b6040516102609190611728565b60405180910390f35b600382805160208101820180518482526020830160208501208183528095505050505050818051602081018201805184825260208301602085012081835280955050505050506000915091509054906101000a900460ff1681565b6000818051602081018201805184825260208301602085012081835280955050505050506000915054906101000a900460ff1681565b60008260405161030a9190611dd5565b908152602001604051809103902060009054906101000a900460ff1615610366576040517f08c379a000000000000000000000000000000000000000000000000000000000815260040161035d90611e38565b60405180910390fd5b60006040518061012001604052808b73ffffffffffffffffffffffffffffffffffffffff1681526020018a8152602001898152602001888152602001878152602001868152602001858152602001848152602001838152509050806001846040516103d19190611dd5565b908152602001604051809103902060008201518160000160006101000a81548173ffffffffffffffffffffffffffffffffffffffff021916908373ffffffffffffffffffffffffffffffffffffffff160217905550602082015181600101908161043b919061206e565b506040820151816002019081610451919061206e565b506060820151816003019081610467919061206e565b50608082015181600401908161047d919061206e565b5060a0820151816005019081610493919061206e565b5060c08201518160060190816104a9919061206e565b5060e08201518160070190816104bf919061206e565b506101008201518160080190816104d6919061206e565b5090505060016000846040516104ec9190611dd5565b908152602001604051809103902060006101000a81548160ff0219169083151502179055507f319ae3a95b9a410d647835a7e64d54ddf28faf35a698f0a2b63999585fa38edc838a8c60405161054493929190612140565b60405180910390a150505050505050505050565b6003836040516105689190611dd5565b9081526020016040518091039020826040516105849190611dd5565b908152602001604051809103902060009054906101000a900460ff16156105e0576040517f08c379a00000000000000000000000000000000000000000000000000000000081526004016105d7906121f7565b60405180910390fd5b6000805b6002846040516105f49190611dd5565b9081526020016040518091039020805490508110156106b6578460405160200161061e9190611dd5565b604051602081830303815290604052805190602001206002856040516106449190611dd5565b9081526020016040518091039020828154811061066457610663612217565b5b906000526020600020906002020160000160405160200161068591906122c9565b60405160208183030381529060405280519060200120036106a957600191506106b6565b80806001019150506105e4565b508061074d57600060405180604001604052808681526020018481525090506002846040516106e59190611dd5565b90815260200160405180910390208190806001815401808255809150506001900390600052602060002090600202016000909190919091506000820151816000019081610732919061206e565b506020820151816001019081610748919061206e565b505050505b600160038560405161075f9190611dd5565b90815260200160405180910390208460405161077b9190611dd5565b908152602001604051809103902060006101000a81548160ff02191690831515021790555050505050565b600080836040516107b79190611dd5565b908152602001604051809103902060009054906101000a900460ff16610812576040517f08c379a00000000000000000000000000000000000000000000000000000000081526004016108099061232c565b60405180910390fd5b6001836040516108229190611dd5565b908152602001604051809103902060080160405160200161084391906122c9565b604051602081830303815290604052805190602001208260405160200161086a9190611dd5565b6040516020818303038152906040528051906020012014905092915050565b606060028260405161089b9190611dd5565b9081526020016040518091039020805480602002602001604051908101604052809291908181526020016000905b82821015610a1f57838290600052602060002090600202016040518060400160405290816000820180546108fc90611e87565b80601f016020809104026020016040519081016040528092919081815260200182805461092890611e87565b80156109755780601f1061094a57610100808354040283529160200191610975565b820191906000526020600020905b81548152906001019060200180831161095857829003601f168201915b5050505050815260200160018201805461098e90611e87565b80601f01602080910402602001604051908101604052809291908181526020018280546109ba90611e87565b8015610a075780601f106109dc57610100808354040283529160200191610a07565b820191906000526020600020905b8154815290600101906020018083116109ea57829003601f168201915b505050505081525050815260200190600101906108c9565b505050509050919050565b6001818051602081018201805184825260208301602085012081835280955050505050506000915090508060000160009054906101000a900473ffffffffffffffffffffffffffffffffffffffff1690806001018054610a8990611e87565b80601f0160208091040260200160405190810160405280929190818152602001828054610ab590611e87565b8015610b025780601f10610ad757610100808354040283529160200191610b02565b820191906000526020600020905b815481529060010190602001808311610ae557829003601f168201915b505050505090806002018054610b1790611e87565b80601f0160208091040260200160405190810160405280929190818152602001828054610b4390611e87565b8015610b905780601f10610b6557610100808354040283529160200191610b90565b820191906000526020600020905b815481529060010190602001808311610b7357829003601f168201915b505050505090806003018054610ba590611e87565b80601f0160208091040260200160405190810160405280929190818152602001828054610bd190611e87565b8015610c1e5780601f10610bf357610100808354040283529160200191610c1e565b820191906000526020600020905b815481529060010190602001808311610c0157829003601f168201915b505050505090806004018054610c3390611e87565b80601f0160208091040260200160405190810160405280929190818152602001828054610c5f90611e87565b8015610cac5780601f10610c8157610100808354040283529160200191610cac565b820191906000526020600020905b815481529060010190602001808311610c8f57829003601f168201915b505050505090806005018054610cc190611e87565b80601f0160208091040260200160405190810160405280929190818152602001828054610ced90611e87565b8015610d3a5780601f10610d0f57610100808354040283529160200191610d3a565b820191906000526020600020905b815481529060010190602001808311610d1d57829003601f168201915b505050505090806006018054610d4f90611e87565b80601f0160208091040260200160405190810160405280929190818152602001828054610d7b90611e87565b8015610dc85780601f10610d9d57610100808354040283529160200191610dc8565b820191906000526020600020905b815481529060010190602001808311610dab57829003601f168201915b505050505090806007018054610ddd90611e87565b80601f0160208091040260200160405190810160405280929190818152602001828054610e0990611e87565b8015610e565780601f10610e2b57610100808354040283529160200191610e56565b820191906000526020600020905b815481529060010190602001808311610e3957829003601f168201915b505050505090806008018054610e6b90611e87565b80601f0160208091040260200160405190810160405280929190818152602001828054610e9790611e87565b8015610ee45780601f10610eb957610100808354040283529160200191610ee4565b820191906000526020600020905b815481529060010190602001808311610ec757829003601f168201915b5050505050905089565b6000600383604051610f009190611dd5565b908152602001604051809103902082604051610f1c9190611dd5565b908152602001604051809103902060009054906101000a900460ff16905092915050565b6000606080606080606080600088604051610f5b9190611dd5565b908152602001604051809103902060009054906101000a900460ff16610fb6576040517f08c379a0000000000000000000000000000000000000000000000000000000008152600401610fad9061232c565b60405180910390fd5b6000600189604051610fc89190611dd5565b9081526020016040518091039020604051806101200160405290816000820160009054906101000a900473ffffffffffffffffffffffffffffffffffffffff1673ffffffffffffffffffffffffffffffffffffffff1673ffffffffffffffffffffffffffffffffffffffff16815260200160018201805461104890611e87565b80601f016020809104026020016040519081016040528092919081815260200182805461107490611e87565b80156110c15780601f10611096576101008083540402835291602001916110c1565b820191906000526020600020905b8154815290600101906020018083116110a457829003601f168201915b505050505081526020016002820180546110da90611e87565b80601f016020809104026020016040519081016040528092919081815260200182805461110690611e87565b80156111535780601f1061112857610100808354040283529160200191611153565b820191906000526020600020905b81548152906001019060200180831161113657829003601f168201915b5050505050815260200160038201805461116c90611e87565b80601f016020809104026020016040519081016040528092919081815260200182805461119890611e87565b80156111e55780601f106111ba576101008083540402835291602001916111e5565b820191906000526020600020905b8154815290600101906020018083116111c857829003601f168201915b505050505081526020016004820180546111fe90611e87565b80601f016020809104026020016040519081016040528092919081815260200182805461122a90611e87565b80156112775780601f1061124c57610100808354040283529160200191611277565b820191906000526020600020905b81548152906001019060200180831161125a57829003601f168201915b5050505050815260200160058201805461129090611e87565b80601f01602080910402602001604051908101604052809291908181526020018280546112bc90611e87565b80156113095780601f106112de57610100808354040283529160200191611309565b820191906000526020600020905b8154815290600101906020018083116112ec57829003601f168201915b5050505050815260200160068201805461132290611e87565b80601f016020809104026020016040519081016040528092919081815260200182805461134e90611e87565b801561139b5780601f106113705761010080835404028352916020019161139b565b820191906000526020600020905b81548152906001019060200180831161137e57829003601f168201915b505050505081526020016007820180546113b490611e87565b80601f01602080910402602001604051908101604052809291908181526020018280546113e090611e87565b801561142d5780601f106114025761010080835404028352916020019161142d565b820191906000526020600020905b81548152906001019060200180831161141057829003601f168201915b5050505050815260200160088201805461144690611e87565b80601f016020809104026020016040519081016040528092919081815260200182805461147290611e87565b80156114bf5780601f10611494576101008083540402835291602001916114bf565b820191906000526020600020905b8154815290600101906020018083116114a257829003601f168201915b5050505050815250509050806000015181602001518260400151836060015184608001518560a001518660c00151975097509750975097509750975050919395979092949650565b600080826040516115189190611dd5565b908152602001604051809103902060009054906101000a900460ff169050919050565b6000604051905090565b600080fd5b600080fd5b600080fd5b600080fd5b6000601f19601f8301169050919050565b7f4e487b7100000000000000000000000000000000000000000000000000000000600052604160045260246000fd5b6115a282611559565b810181811067ffffffffffffffff821117156115c1576115c061156a565b5b80604052505050565b60006115d461153b565b90506115e08282611599565b919050565b600067ffffffffffffffff821115611600576115ff61156a565b5b61160982611559565b9050602081019050919050565b82818337600083830152505050565b6000611638611633846115e5565b6115ca565b90508281526020810184848401111561165457611653611554565b5b61165f848285611616565b509392505050565b600082601f83011261167c5761167b61154f565b5b813561168c848260208601611625565b91505092915050565b600080604083850312156116ac576116ab611545565b5b600083013567ffffffffffffffff8111156116ca576116c961154a565b5b6116d685828601611667565b925050602083013567ffffffffffffffff8111156116f7576116f661154a565b5b61170385828601611667565b9150509250929050565b60008115159050919050565b6117228161170d565b82525050565b600060208201905061173d6000830184611719565b92915050565b60006020828403121561175957611758611545565b5b600082013567ffffffffffffffff8111156117775761177661154a565b5b61178384828501611667565b91505092915050565b600073ffffffffffffffffffffffffffffffffffffffff82169050919050565b60006117b78261178c565b9050919050565b6117c7816117ac565b81146117d257600080fd5b50565b6000813590506117e4816117be565b92915050565b60008060008060008060008060006101208a8c03121561180d5761180c611545565b5b600061181b8c828d016117d5565b99505060208a013567ffffffffffffffff81111561183c5761183b61154a565b5b6118488c828d01611667565b98505060408a013567ffffffffffffffff8111156118695761186861154a565b5b6118758c828d01611667565b97505060608a013567ffffffffffffffff8111156118965761189561154a565b5b6118a28c828d01611667565b96505060808a013567ffffffffffffffff8111156118c3576118c261154a565b5b6118cf8c828d01611667565b95505060a08a013567ffffffffffffffff8111156118f0576118ef61154a565b5b6118fc8c828d01611667565b94505060c08a013567ffffffffffffffff81111561191d5761191c61154a565b5b6119298c828d01611667565b93505060e08a013567ffffffffffffffff81111561194a5761194961154a565b5b6119568c828d01611667565b9250506101008a013567ffffffffffffffff8111156119785761197761154a565b5b6119848c828d01611667565b9150509295985092959850929598565b6000806000606084860312156119ad576119ac611545565b5b600084013567ffffffffffffffff8111156119cb576119ca61154a565b5b6119d786828701611667565b935050602084013567ffffffffffffffff8111156119f8576119f761154a565b5b611a0486828701611667565b925050604084013567ffffffffffffffff811115611a2557611a2461154a565b5b611a3186828701611667565b9150509250925092565b600081519050919050565b600082825260208201905092915050565b6000819050602082019050919050565b600081519050919050565b600082825260208201905092915050565b60005b83811015611aa1578082015181840152602081019050611a86565b60008484015250505050565b6000611ab882611a67565b611ac28185611a72565b9350611ad2818560208601611a83565b611adb81611559565b840191505092915050565b60006040830160008301518482036000860152611b038282611aad565b91505060208301518482036020860152611b1d8282611aad565b9150508091505092915050565b6000611b368383611ae6565b905092915050565b6000602082019050919050565b6000611b5682611a3b565b611b608185611a46565b935083602082028501611b7285611a57565b8060005b85811015611bae5784840389528151611b8f8582611b2a565b9450611b9a83611b3e565b925060208a01995050600181019050611b76565b50829750879550505050505092915050565b60006020820190508181036000830152611bda8184611b4b565b905092915050565b611beb816117ac565b82525050565b600082825260208201905092915050565b6000611c0d82611a67565b611c178185611bf1565b9350611c27818560208601611a83565b611c3081611559565b840191505092915050565b600061012082019050611c51600083018c611be2565b8181036020830152611c63818b611c02565b90508181036040830152611c77818a611c02565b90508181036060830152611c8b8189611c02565b90508181036080830152611c9f8188611c02565b905081810360a0830152611cb38187611c02565b905081810360c0830152611cc78186611c02565b905081810360e0830152611cdb8185611c02565b9050818103610100830152611cf08184611c02565b90509a9950505050505050505050565b600060e082019050611d15600083018a611be2565b8181036020830152611d278189611c02565b90508181036040830152611d3b8188611c02565b90508181036060830152611d4f8187611c02565b90508181036080830152611d638186611c02565b905081810360a0830152611d778185611c02565b905081810360c0830152611d8b8184611c02565b905098975050505050505050565b600081905092915050565b6000611daf82611a67565b611db98185611d99565b9350611dc9818560208601611a83565b80840191505092915050565b6000611de18284611da4565b915081905092915050565b7f50617469656e7420616c72656164792072656769737465726564000000000000600082015250565b6000611e22601a83611bf1565b9150611e2d82611dec565b602082019050919050565b60006020820190508181036000830152611e5181611e15565b9050919050565b7f4e487b7100000000000000000000000000000000000000000000000000000000600052602260045260246000fd5b60006002820490506001821680611e9f57607f821691505b602082108103611eb257611eb1611e58565b5b50919050565b60008190508160005260206000209050919050565b60006020601f8301049050919050565b600082821b905092915050565b600060088302611f1a7fffffffffffffffffffffffffffffffffffffffffffffffffffffffffffffffff82611edd565b611f248683611edd565b95508019841693508086168417925050509392505050565b6000819050919050565b6000819050919050565b6000611f6b611f66611f6184611f3c565b611f46565b611f3c565b9050919050565b6000819050919050565b611f8583611f50565b611f99611f9182611f72565b848454611eea565b825550505050565b600090565b611fae611fa1565b611fb9818484611f7c565b505050565b5b81811015611fdd57611fd2600082611fa6565b600181019050611fbf565b5050565b601f82111561202257611ff381611eb8565b611ffc84611ecd565b8101602085101561200b578190505b61201f61201785611ecd565b830182611fbe565b50505b505050565b600082821c905092915050565b600061204560001984600802612027565b1980831691505092915050565b600061205e8383612034565b9150826002028217905092915050565b61207782611a67565b67ffffffffffffffff8111156120905761208f61156a565b5b61209a8254611e87565b6120a5828285611fe1565b600060209050601f8311600181146120d857600084156120c6578287015190505b6120d08582612052565b865550612138565b601f1984166120e686611eb8565b60005b8281101561210e578489015182556001820191506020850194506020810190506120e9565b8683101561212b5784890151612127601f891682612034565b8355505b6001600288020188555050505b505050505050565b6000606082019050818103600083015261215a8186611c02565b9050818103602083015261216e8185611c02565b905061217d6040830184611be2565b949350505050565b7f566965772041636365737320616c726561647920676976656e20746f2074686560008201527f20446f63746f7221000000000000000000000000000000000000000000000000602082015250565b60006121e1602883611bf1565b91506121ec82612185565b604082019050919050565b60006020820190508181036000830152612210816121d4565b9050919050565b7f4e487b7100000000000000000000000000000000000000000000000000000000600052603260045260246000fd5b6000815461225381611e87565b61225d8186611d99565b94506001821660008114612278576001811461228d576122c0565b60ff19831686528115158202860193506122c0565b61229685611eb8565b60005b838110156122b857815481890152600182019150602081019050612299565b838801955050505b50505092915050565b60006122d58284612246565b915081905092915050565b7f50617469656e74206e6f74207265676973746572656400000000000000000000600082015250565b6000612316601683611bf1565b9150612321826122e0565b602082019050919050565b6000602082019050818103600083015261234581612309565b905091905056fea26469706673582212202c853e4354b71742407c1bf91d870553f224b0c2484ecf2eb0b2b2c3eebf88a064736f6c634300081c0033",
  "linkReferences": {},
  "deployedLinkReferences": {}
}