{
  "_format": "hh-sol-artifact-1",
  "contractName": "PatientRegistration",
  "sourceName": "contracts/PatientRegistration.sol",
  "abi": [
    {
      "anonymous": false,
      "inputs": [
        {
          "indexed": false,
          "internalType": "string",
          "name": "hhNumber",
          "type": "string"
        },
        {
          "indexed": false,
          "internalType": "string",
          "name": "name",
          "type": "string"
        },
        {
          "indexed": false,
          "internalType": "address",
          "name": "walletAddress",
          "type": "address"
        }
      ],
      "name": "PatientRegistered",
      "type": "event"
    },
    {
      "inputs": [
        {
          "internalType": "string",
          "name": "",
          "type": "string"
        },
        {
          "internalType": "string",
          "name": "",
          "type": "string"
        }
      ],
      "name": "doctorPermissions",
      "outputs": [
        {
          "internalType": "bool",
          "name": "",
          "type": "bool"
        }
      ],
      "stateMutability": "view",
      "type": "function"
    },
    {
      "inputs": [],
      "name": "getAllPatients",
      "outputs": [
        {
          "components": [
            {
              "internalType": "address",
              "name": "walletAddress",
              "type": "address"
            },
            {
              "internalType": "string",
              "name": "name",
              "type": "string"
            },
            {
              "internalType": "string",
              "name": "dateOfBirth",
              "type": "string"
            },
            {
              "internalType": "string",
              "name": "gender",
              "type": "string"
            },
            {
              "internalType": "string",
              "name": "bloodGroup",
              "type": "string"
            },
            {
              "internalType": "string",
              "name": "homeAddress",
              "type": "string"
            },
            {
              "internalType": "string",
              "name": "email",
              "type": "string"
            },
            {
              "internalType": "string",
              "name": "hhNumber",
              "type": "string"
            },
            {
              "internalType": "string",
              "name": "password",
              "type": "string"
            }
          ],
          "internalType": "struct PatientRegistration.Patient[]",
          "name": "",
          "type": "tuple[]"
        }
      ],
      "stateMutability": "view",
      "type": "function"
    },
    {
      "inputs": [
        {
          "internalType": "string",
          "name": "_hhNumber",
          "type": "string"
        }
      ],
      "name": "getPatientDetails",
      "outputs": [
        {
          "internalType": "address",
          "name": "walletAddress",
          "type": "address"
        },
        {
          "internalType": "string",
          "name": "name",
          "type": "string"
        },
        {
          "internalType": "string",
          "name": "dateOfBirth",
          "type": "string"
        },
        {
          "internalType": "string",
          "name": "gender",
          "type": "string"
        },
        {
          "internalType": "string",
          "name": "bloodGroup",
          "type": "string"
        },
        {
          "internalType": "string",
          "name": "homeAddress",
          "type": "string"
        },
        {
          "internalType": "string",
          "name": "email",
          "type": "string"
        }
      ],
      "stateMutability": "view",
      "type": "function"
    },
    {
      "inputs": [
        {
          "internalType": "string",
          "name": "_doctorNumber",
          "type": "string"
        }
      ],
      "name": "getPatientList",
      "outputs": [
        {
          "components": [
            {
              "internalType": "string",
              "name": "patient_number",
              "type": "string"
            },
            {
              "internalType": "string",
              "name": "patient_name",
              "type": "string"
            }
          ],
          "internalType": "struct PatientRegistration.PatientList[]",
          "name": "",
          "type": "tuple[]"
        }
      ],
      "stateMutability": "view",
      "type": "function"
    },
    {
      "inputs": [
        {
          "internalType": "string",
          "name": "_patientNumber",
          "type": "string"
        },
        {
          "internalType": "string",
          "name": "_doctorNumber",
          "type": "string"
        },
        {
          "internalType": "string",
          "name": "_patientName",
          "type": "string"
        }
      ],
      "name": "grantPermission",
      "outputs": [],
      "stateMutability": "nonpayable",
      "type": "function"
    },
    {
      "inputs": [
        {
          "internalType": "string",
          "name": "",
          "type": "string"
        }
      ],
      "name": "isPatientRegistered",
      "outputs": [
        {
          "internalType": "bool",
          "name": "",
          "type": "bool"
        }
      ],
      "stateMutability": "view",
      "type": "function"
    },
    {
      "inputs": [
        {
          "internalType": "address",
          "name": "",
          "type": "address"
        }
      ],
      "name": "isPatientRegisteredAddress",
      "outputs": [
        {
          "internalType": "bool",
          "name": "",
          "type": "bool"
        }
      ],
      "stateMutability": "view",
      "type": "function"
    },
    {
      "inputs": [
        {
          "internalType": "string",
          "name": "_patientNumber",
          "type": "string"
        },
        {
          "internalType": "string",
          "name": "_doctorNumber",
          "type": "string"
        }
      ],
      "name": "isPermissionGranted",
      "outputs": [
        {
          "internalType": "bool",
          "name": "",
          "type": "bool"
        }
      ],
      "stateMutability": "view",
      "type": "function"
    },
    {
      "inputs": [
        {
          "internalType": "string",
          "name": "_hhNumber",
          "type": "string"
        }
      ],
      "name": "isRegisteredPatient",
      "outputs": [
        {
          "internalType": "bool",
          "name": "",
          "type": "bool"
        }
      ],
      "stateMutability": "view",
      "type": "function"
    },
    {
      "inputs": [
        {
          "internalType": "string",
          "name": "",
          "type": "string"
        }
      ],
      "name": "patients",
      "outputs": [
        {
          "internalType": "address",
          "name": "walletAddress",
          "type": "address"
        },
        {
          "internalType": "string",
          "name": "name",
          "type": "string"
        },
        {
          "internalType": "string",
          "name": "dateOfBirth",
          "type": "string"
        },
        {
          "internalType": "string",
          "name": "gender",
          "type": "string"
        },
        {
          "internalType": "string",
          "name": "bloodGroup",
          "type": "string"
        },
        {
          "internalType": "string",
          "name": "homeAddress",
          "type": "string"
        },
        {
          "internalType": "string",
          "name": "email",
          "type": "string"
        },
        {
          "internalType": "string",
          "name": "hhNumber",
          "type": "string"
        },
        {
          "internalType": "string",
          "name": "password",
          "type": "string"
        }
      ],
      "stateMutability": "view",
      "type": "function"
    },
    {
      "inputs": [
        {
          "internalType": "address",
          "name": "_walletAddress",
          "type": "address"
        },
        {
          "internalType": "string",
          "name": "_name",
          "type": "string"
        },
        {
          "internalType": "string",
          "name": "_dateOfBirth",
          "type": "string"
        },
        {
          "internalType": "string",
          "name": "_gender",
          "type": "string"
        },
        {
          "internalType": "string",
          "name": "_bloodGroup",
          "type": "string"
        },
        {
          "internalType": "string",
          "name": "_homeAddress",
          "type": "string"
        },
        {
          "internalType": "string",
          "name": "_email",
          "type": "string"
        },
        {
          "internalType": "string",
          "name": "_hhNumber",
          "type": "string"
        },
        {
          "internalType": "string",
          "name": "_password",
          "type": "string"
        }
      ],
      "name": "registerPatient",
      "outputs": [],
      "stateMutability": "nonpayable",
      "type": "function"
    },
    {
      "inputs": [
        {
          "internalType": "uint256",
          "name": "",
          "type": "uint256"
        }
      ],
      "name": "registeredPatientsNumbers",
      "outputs": [
        {
          "internalType": "string",
          "name": "",
          "type": "string"
        }
      ],
      "stateMutability": "view",
      "type": "function"
    },
    {
      "inputs": [
        {
          "internalType": "address",
          "name": "_walletAddress",
          "type": "address"
        },
        {
          "internalType": "string",
          "name": "_hhNumber",
          "type": "string"
        }
      ],
      "name": "validateAddress",
      "outputs": [
        {
          "internalType": "bool",
          "name": "",
          "type": "bool"
        }
      ],
      "stateMutability": "view",
      "type": "function"
    },
    {
      "inputs": [
        {
          "internalType": "string",
          "name": "_hhNumber",
          "type": "string"
        },
        {
          "internalType": "string",
          "name": "_password",
          "type": "string"
        }
      ],
      "name": "validatePassword",
      "outputs": [
        {
          "internalType": "bool",
          "name": "",
          "type": "bool"
        }
      ],
      "stateMutability": "view",
      "type": "function"
    }
  ],
  "bytecode": "0x6080604052348015600f57600080fd5b506130648061001f6000396000f3fe608060405234801561001057600080fd5b50600436106100ea5760003560e01c80637babdb261161008c578063c6009d8411610066578063c6009d8414610295578063d120c10c146102cd578063ea977fc8146102fd578063f725264114610333576100ea565b80637babdb26146102055780638ff1605b1461023557806391c12f7614610265576100ea565b80634f10c6c2116100c85780634f10c6c21461016d57806357812a081461019d5780635df67040146101b95780637838ef1c146101d5576100ea565b806318a231a9146100ef5780632e55208d1461010d578063443347331461013d575b600080fd5b6100f7610363565b60405161010491906121b9565b60405180910390f35b6101276004803603810190610122919061221b565b610933565b6040516101349190612263565b60405180910390f35b610157600480360381019061015291906123b3565b610953565b6040516101649190612263565b60405180910390f35b6101876004803603810190610182919061242b565b6109ae565b6040516101949190612263565b60405180910390f35b6101b760048036038101906101b29190612474565b6109e4565b005b6101d360048036038101906101ce919061261e565b610d5b565b005b6101ef60048036038101906101ea91906126fb565b610fa9565b6040516101fc9190612772565b60405180910390f35b61021f600480360381019061021a91906123b3565b611055565b60405161022c9190612263565b60405180910390f35b61024f600480360381019061024a9190612794565b611138565b60405161025c9190612263565b60405180910390f35b61027f600480360381019061027a919061242b565b61121c565b60405161028c91906128f6565b60405180910390f35b6102af60048036038101906102aa919061242b565b6113bd565b6040516102c499989796959493929190612927565b60405180910390f35b6102e760048036038101906102e291906123b3565b611881565b6040516102f49190612263565b60405180910390f35b6103176004803603810190610312919061242b565b6118d3565b60405161032a97969594939291906129ec565b60405180910390f35b61034d6004803603810190610348919061242b565b611e9a565b60405161035a9190612263565b60405180910390f35b60606000600580549050905060008167ffffffffffffffff81111561038b5761038a612288565b5b6040519080825280602002602001820160405280156103c457816020015b6103b1611ece565b8152602001906001900390816103a95790505b50905060005b8281101561092a576002600582815481106103e8576103e7612a85565b5b906000526020600020016040516103ff9190612bb7565b9081526020016040518091039020604051806101200160405290816000820160009054906101000a900473ffffffffffffffffffffffffffffffffffffffff1673ffffffffffffffffffffffffffffffffffffffff1673ffffffffffffffffffffffffffffffffffffffff16815260200160018201805461047f90612ae3565b80601f01602080910402602001604051908101604052809291908181526020018280546104ab90612ae3565b80156104f85780601f106104cd576101008083540402835291602001916104f8565b820191906000526020600020905b8154815290600101906020018083116104db57829003601f168201915b5050505050815260200160028201805461051190612ae3565b80601f016020809104026020016040519081016040528092919081815260200182805461053d90612ae3565b801561058a5780601f1061055f5761010080835404028352916020019161058a565b820191906000526020600020905b81548152906001019060200180831161056d57829003601f168201915b505050505081526020016003820180546105a390612ae3565b80601f01602080910402602001604051908101604052809291908181526020018280546105cf90612ae3565b801561061c5780601f106105f15761010080835404028352916020019161061c565b820191906000526020600020905b8154815290600101906020018083116105ff57829003601f168201915b5050505050815260200160048201805461063590612ae3565b80601f016020809104026020016040519081016040528092919081815260200182805461066190612ae3565b80156106ae5780601f10610683576101008083540402835291602001916106ae565b820191906000526020600020905b81548152906001019060200180831161069157829003601f168201915b505050505081526020016005820180546106c790612ae3565b80601f01602080910402602001604051908101604052809291908181526020018280546106f390612ae3565b80156107405780601f1061071557610100808354040283529160200191610740565b820191906000526020600020905b81548152906001019060200180831161072357829003601f168201915b5050505050815260200160068201805461075990612ae3565b80601f016020809104026020016040519081016040528092919081815260200182805461078590612ae3565b80156107d25780601f106107a7576101008083540402835291602001916107d2565b820191906000526020600020905b8154815290600101906020018083116107b557829003601f168201915b505050505081526020016007820180546107eb90612ae3565b80601f016020809104026020016040519081016040528092919081815260200182805461081790612ae3565b80156108645780601f1061083957610100808354040283529160200191610864565b820191906000526020600020905b81548152906001019060200180831161084757829003601f168201915b5050505050815260200160088201805461087d90612ae3565b80601f01602080910402602001604051908101604052809291908181526020018280546108a990612ae3565b80156108f65780601f106108cb576101008083540402835291602001916108f6565b820191906000526020600020905b8154815290600101906020018083116108d957829003601f168201915b50505050508152505082828151811061091257610911612a85565b5b602002602001018190525080806001019150506103ca565b50809250505090565b60016020528060005260406000206000915054906101000a900460ff1681565b600482805160208101820180518482526020830160208501208183528095505050505050818051602081018201805184825260208301602085012081835280955050505050506000915091509054906101000a900460ff1681565b6000818051602081018201805184825260208301602085012081835280955050505050506000915054906101000a900460ff1681565b6000826040516109f49190612bff565b908152602001604051809103902060009054906101000a900460ff1615610a50576040517f08c379a0000000000000000000000000000000000000000000000000000000008152600401610a4790612c62565b60405180910390fd5b600160008a73ffffffffffffffffffffffffffffffffffffffff1673ffffffffffffffffffffffffffffffffffffffff16815260200190815260200160002060009054906101000a900460ff1615610add576040517f08c379a0000000000000000000000000000000000000000000000000000000008152600401610ad490612c62565b60405180910390fd5b60006040518061012001604052808b73ffffffffffffffffffffffffffffffffffffffff1681526020018a815260200189815260200188815260200187815260200186815260200185815260200184815260200183815250905080600284604051610b489190612bff565b908152602001604051809103902060008201518160000160006101000a81548173ffffffffffffffffffffffffffffffffffffffff021916908373ffffffffffffffffffffffffffffffffffffffff1602179055506020820151816001019081610bb29190612e19565b506040820151816002019081610bc89190612e19565b506060820151816003019081610bde9190612e19565b506080820151816004019081610bf49190612e19565b5060a0820151816005019081610c0a9190612e19565b5060c0820151816006019081610c209190612e19565b5060e0820151816007019081610c369190612e19565b50610100820151816008019081610c4d9190612e19565b5090505060018060008c73ffffffffffffffffffffffffffffffffffffffff1673ffffffffffffffffffffffffffffffffffffffff16815260200190815260200160002060006101000a81548160ff0219169083151502179055506001600084604051610cba9190612bff565b908152602001604051809103902060006101000a81548160ff021916908315150217905550600583908060018154018082558091505060019003906000526020600020016000909190919091509081610d139190612e19565b507f319ae3a95b9a410d647835a7e64d54ddf28faf35a698f0a2b63999585fa38edc838a8c604051610d4793929190612eeb565b60405180910390a150505050505050505050565b600483604051610d6b9190612bff565b908152602001604051809103902082604051610d879190612bff565b908152602001604051809103902060009054906101000a900460ff1615610de3576040517f08c379a0000000000000000000000000000000000000000000000000000000008152600401610dda90612fa2565b60405180910390fd5b6000805b600384604051610df79190612bff565b908152602001604051809103902080549050811015610eb95784604051602001610e219190612bff565b60405160208183030381529060405280519060200120600385604051610e479190612bff565b90815260200160405180910390208281548110610e6757610e66612a85565b5b9060005260206000209060020201600001604051602001610e889190612bb7565b6040516020818303038152906040528051906020012003610eac5760019150610eb9565b8080600101915050610de7565b5080610f505760006040518060400160405280868152602001848152509050600384604051610ee89190612bff565b90815260200160405180910390208190806001815401808255809150506001900390600052602060002090600202016000909190919091506000820151816000019081610f359190612e19565b506020820151816001019081610f4b9190612e19565b505050505b6001600485604051610f629190612bff565b908152602001604051809103902084604051610f7e9190612bff565b908152602001604051809103902060006101000a81548160ff02191690831515021790555050505050565b60058181548110610fb957600080fd5b906000526020600020016000915090508054610fd490612ae3565b80601f016020809104026020016040519081016040528092919081815260200182805461100090612ae3565b801561104d5780601f106110225761010080835404028352916020019161104d565b820191906000526020600020905b81548152906001019060200180831161103057829003601f168201915b505050505081565b600080836040516110669190612bff565b908152602001604051809103902060009054906101000a900460ff166110c1576040517f08c379a00000000000000000000000000000000000000000000000000000000081526004016110b89061300e565b60405180910390fd5b6002836040516110d19190612bff565b90815260200160405180910390206008016040516020016110f29190612bb7565b60405160208183030381529060405280519060200120826040516020016111199190612bff565b6040516020818303038152906040528051906020012014905092915050565b600080826040516111499190612bff565b908152602001604051809103902060009054906101000a900460ff166111a4576040517f08c379a000000000000000000000000000000000000000000000000000000000815260040161119b9061300e565b60405180910390fd5b6002826040516111b49190612bff565b908152602001604051809103902060000160009054906101000a900473ffffffffffffffffffffffffffffffffffffffff1673ffffffffffffffffffffffffffffffffffffffff168373ffffffffffffffffffffffffffffffffffffffff1614905092915050565b606060038260405161122e9190612bff565b9081526020016040518091039020805480602002602001604051908101604052809291908181526020016000905b828210156113b2578382906000526020600020906002020160405180604001604052908160008201805461128f90612ae3565b80601f01602080910402602001604051908101604052809291908181526020018280546112bb90612ae3565b80156113085780601f106112dd57610100808354040283529160200191611308565b820191906000526020600020905b8154815290600101906020018083116112eb57829003601f168201915b5050505050815260200160018201805461132190612ae3565b80601f016020809104026020016040519081016040528092919081815260200182805461134d90612ae3565b801561139a5780601f1061136f5761010080835404028352916020019161139a565b820191906000526020600020905b81548152906001019060200180831161137d57829003601f168201915b5050505050815250508152602001906001019061125c565b505050509050919050565b6002818051602081018201805184825260208301602085012081835280955050505050506000915090508060000160009054906101000a900473ffffffffffffffffffffffffffffffffffffffff169080600101805461141c90612ae3565b80601f016020809104026020016040519081016040528092919081815260200182805461144890612ae3565b80156114955780601f1061146a57610100808354040283529160200191611495565b820191906000526020600020905b81548152906001019060200180831161147857829003601f168201915b5050505050908060020180546114aa90612ae3565b80601f01602080910402602001604051908101604052809291908181526020018280546114d690612ae3565b80156115235780601f106114f857610100808354040283529160200191611523565b820191906000526020600020905b81548152906001019060200180831161150657829003601f168201915b50505050509080600301805461153890612ae3565b80601f016020809104026020016040519081016040528092919081815260200182805461156490612ae3565b80156115b15780601f10611586576101008083540402835291602001916115b1565b820191906000526020600020905b81548152906001019060200180831161159457829003601f168201915b5050505050908060040180546115c690612ae3565b80601f01602080910402602001604051908101604052809291908181526020018280546115f290612ae3565b801561163f5780601f106116145761010080835404028352916020019161163f565b820191906000526020600020905b81548152906001019060200180831161162257829003601f168201915b50505050509080600501805461165490612ae3565b80601f016020809104026020016040519081016040528092919081815260200182805461168090612ae3565b80156116cd5780601f106116a2576101008083540402835291602001916116cd565b820191906000526020600020905b8154815290600101906020018083116116b057829003601f168201915b5050505050908060060180546116e290612ae3565b80601f016020809104026020016040519081016040528092919081815260200182805461170e90612ae3565b801561175b5780601f106117305761010080835404028352916020019161175b565b820191906000526020600020905b81548152906001019060200180831161173e57829003601f168201915b50505050509080600701805461177090612ae3565b80601f016020809104026020016040519081016040528092919081815260200182805461179c90612ae3565b80156117e95780601f106117be576101008083540402835291602001916117e9565b820191906000526020600020905b8154815290600101906020018083116117cc57829003601f168201915b5050505050908060080180546117fe90612ae3565b80601f016020809104026020016040519081016040528092919081815260200182805461182a90612ae3565b80156118775780601f1061184c57610100808354040283529160200191611877565b820191906000526020600020905b81548152906001019060200180831161185a57829003601f168201915b5050505050905089565b60006004836040516118939190612bff565b9081526020016040518091039020826040516118af9190612bff565b908152602001604051809103902060009054906101000a900460ff16905092915050565b60006060806060806060806000886040516118ee9190612bff565b908152602001604051809103902060009054906101000a900460ff16611949576040517f08c379a00000000000000000000000000000000000000000000000000000000081526004016119409061300e565b60405180910390fd5b600060028960405161195b9190612bff565b9081526020016040518091039020604051806101200160405290816000820160009054906101000a900473ffffffffffffffffffffffffffffffffffffffff1673ffffffffffffffffffffffffffffffffffffffff1673ffffffffffffffffffffffffffffffffffffffff1681526020016001820180546119db90612ae3565b80601f0160208091040260200160405190810160405280929190818152602001828054611a0790612ae3565b8015611a545780601f10611a2957610100808354040283529160200191611a54565b820191906000526020600020905b815481529060010190602001808311611a3757829003601f168201915b50505050508152602001600282018054611a6d90612ae3565b80601f0160208091040260200160405190810160405280929190818152602001828054611a9990612ae3565b8015611ae65780601f10611abb57610100808354040283529160200191611ae6565b820191906000526020600020905b815481529060010190602001808311611ac957829003601f168201915b50505050508152602001600382018054611aff90612ae3565b80601f0160208091040260200160405190810160405280929190818152602001828054611b2b90612ae3565b8015611b785780601f10611b4d57610100808354040283529160200191611b78565b820191906000526020600020905b815481529060010190602001808311611b5b57829003601f168201915b50505050508152602001600482018054611b9190612ae3565b80601f0160208091040260200160405190810160405280929190818152602001828054611bbd90612ae3565b8015611c0a5780601f10611bdf57610100808354040283529160200191611c0a565b820191906000526020600020905b815481529060010190602001808311611bed57829003601f168201915b50505050508152602001600582018054611c2390612ae3565b80601f0160208091040260200160405190810160405280929190818152602001828054611c4f90612ae3565b8015611c9c5780601f10611c7157610100808354040283529160200191611c9c565b820191906000526020600020905b815481529060010190602001808311611c7f57829003601f168201915b50505050508152602001600682018054611cb590612ae3565b80601f0160208091040260200160405190810160405280929190818152602001828054611ce190612ae3565b8015611d2e5780601f10611d0357610100808354040283529160200191611d2e565b820191906000526020600020905b815481529060010190602001808311611d1157829003601f168201915b50505050508152602001600782018054611d4790612ae3565b80601f0160208091040260200160405190810160405280929190818152602001828054611d7390612ae3565b8015611dc05780601f10611d9557610100808354040283529160200191611dc0565b820191906000526020600020905b815481529060010190602001808311611da357829003601f168201915b50505050508152602001600882018054611dd990612ae3565b80601f0160208091040260200160405190810160405280929190818152602001828054611e0590612ae3565b8015611e525780601f10611e2757610100808354040283529160200191611e52565b820191906000526020600020905b815481529060010190602001808311611e3557829003601f168201915b5050505050815250509050806000015181602001518260400151836060015184608001518560a001518660c00151975097509750975097509750975050919395979092949650565b60008082604051611eab9190612bff565b908152602001604051809103902060009054906101000a900460ff169050919050565b604051806101200160405280600073ffffffffffffffffffffffffffffffffffffffff16815260200160608152602001606081526020016060815260200160608152602001606081526020016060815260200160608152602001606081525090565b600081519050919050565b600082825260208201905092915050565b6000819050602082019050919050565b600073ffffffffffffffffffffffffffffffffffffffff82169050919050565b6000611f8782611f5c565b9050919050565b611f9781611f7c565b82525050565b600081519050919050565b600082825260208201905092915050565b60005b83811015611fd7578082015181840152602081019050611fbc565b60008484015250505050565b6000601f19601f8301169050919050565b6000611fff82611f9d565b6120098185611fa8565b9350612019818560208601611fb9565b61202281611fe3565b840191505092915050565b6000610120830160008301516120466000860182611f8e565b506020830151848203602086015261205e8282611ff4565b915050604083015184820360408601526120788282611ff4565b915050606083015184820360608601526120928282611ff4565b915050608083015184820360808601526120ac8282611ff4565b91505060a083015184820360a08601526120c68282611ff4565b91505060c083015184820360c08601526120e08282611ff4565b91505060e083015184820360e08601526120fa8282611ff4565b9150506101008301518482036101008601526121168282611ff4565b9150508091505092915050565b600061212f838361202d565b905092915050565b6000602082019050919050565b600061214f82611f30565b6121598185611f3b565b93508360208202850161216b85611f4c565b8060005b858110156121a757848403895281516121888582612123565b945061219383612137565b925060208a0199505060018101905061216f565b50829750879550505050505092915050565b600060208201905081810360008301526121d38184612144565b905092915050565b6000604051905090565b600080fd5b600080fd5b6121f881611f7c565b811461220357600080fd5b50565b600081359050612215816121ef565b92915050565b600060208284031215612231576122306121e5565b5b600061223f84828501612206565b91505092915050565b60008115159050919050565b61225d81612248565b82525050565b60006020820190506122786000830184612254565b92915050565b600080fd5b600080fd5b7f4e487b7100000000000000000000000000000000000000000000000000000000600052604160045260246000fd5b6122c082611fe3565b810181811067ffffffffffffffff821117156122df576122de612288565b5b80604052505050565b60006122f26121db565b90506122fe82826122b7565b919050565b600067ffffffffffffffff82111561231e5761231d612288565b5b61232782611fe3565b9050602081019050919050565b82818337600083830152505050565b600061235661235184612303565b6122e8565b90508281526020810184848401111561237257612371612283565b5b61237d848285612334565b509392505050565b600082601f83011261239a5761239961227e565b5b81356123aa848260208601612343565b91505092915050565b600080604083850312156123ca576123c96121e5565b5b600083013567ffffffffffffffff8111156123e8576123e76121ea565b5b6123f485828601612385565b925050602083013567ffffffffffffffff811115612415576124146121ea565b5b61242185828601612385565b9150509250929050565b600060208284031215612441576124406121e5565b5b600082013567ffffffffffffffff81111561245f5761245e6121ea565b5b61246b84828501612385565b91505092915050565b60008060008060008060008060006101208a8c031215612497576124966121e5565b5b60006124a58c828d01612206565b99505060208a013567ffffffffffffffff8111156124c6576124c56121ea565b5b6124d28c828d01612385565b98505060408a013567ffffffffffffffff8111156124f3576124f26121ea565b5b6124ff8c828d01612385565b97505060608a013567ffffffffffffffff8111156125205761251f6121ea565b5b61252c8c828d01612385565b96505060808a013567ffffffffffffffff81111561254d5761254c6121ea565b5b6125598c828d01612385565b95505060a08a013567ffffffffffffffff81111561257a576125796121ea565b5b6125868c828d01612385565b94505060c08a013567ffffffffffffffff8111156125a7576125a66121ea565b5b6125b38c828d01612385565b93505060e08a013567ffffffffffffffff8111156125d4576125d36121ea565b5b6125e08c828d01612385565b9250506101008a013567ffffffffffffffff811115612602576126016121ea565b5b61260e8c828d01612385565b9150509295985092959850929598565b600080600060608486031215612637576126366121e5565b5b600084013567ffffffffffffffff811115612655576126546121ea565b5b61266186828701612385565b935050602084013567ffffffffffffffff811115612682576126816121ea565b5b61268e86828701612385565b925050604084013567ffffffffffffffff8111156126af576126ae6121ea565b5b6126bb86828701612385565b9150509250925092565b6000819050919050565b6126d8816126c5565b81146126e357600080fd5b50565b6000813590506126f5816126cf565b92915050565b600060208284031215612711576127106121e5565b5b600061271f848285016126e6565b91505092915050565b600082825260208201905092915050565b600061274482611f9d565b61274e8185612728565b935061275e818560208601611fb9565b61276781611fe3565b840191505092915050565b6000602082019050818103600083015261278c8184612739565b905092915050565b600080604083850312156127ab576127aa6121e5565b5b60006127b985828601612206565b925050602083013567ffffffffffffffff8111156127da576127d96121ea565b5b6127e685828601612385565b9150509250929050565b600081519050919050565b600082825260208201905092915050565b6000819050602082019050919050565b600060408301600083015184820360008601526128398282611ff4565b915050602083015184820360208601526128538282611ff4565b9150508091505092915050565b600061286c838361281c565b905092915050565b6000602082019050919050565b600061288c826127f0565b61289681856127fb565b9350836020820285016128a88561280c565b8060005b858110156128e457848403895281516128c58582612860565b94506128d083612874565b925060208a019950506001810190506128ac565b50829750879550505050505092915050565b600060208201905081810360008301526129108184612881565b905092915050565b61292181611f7c565b82525050565b60006101208201905061293d600083018c612918565b818103602083015261294f818b612739565b90508181036040830152612963818a612739565b905081810360608301526129778189612739565b9050818103608083015261298b8188612739565b905081810360a083015261299f8187612739565b905081810360c08301526129b38186612739565b905081810360e08301526129c78185612739565b90508181036101008301526129dc8184612739565b90509a9950505050505050505050565b600060e082019050612a01600083018a612918565b8181036020830152612a138189612739565b90508181036040830152612a278188612739565b90508181036060830152612a3b8187612739565b90508181036080830152612a4f8186612739565b905081810360a0830152612a638185612739565b905081810360c0830152612a778184612739565b905098975050505050505050565b7f4e487b7100000000000000000000000000000000000000000000000000000000600052603260045260246000fd5b7f4e487b7100000000000000000000000000000000000000000000000000000000600052602260045260246000fd5b60006002820490506001821680612afb57607f821691505b602082108103612b0e57612b0d612ab4565b5b50919050565b600081905092915050565b60008190508160005260206000209050919050565b60008154612b4181612ae3565b612b4b8186612b14565b94506001821660008114612b665760018114612b7b57612bae565b60ff1983168652811515820286019350612bae565b612b8485612b1f565b60005b83811015612ba657815481890152600182019150602081019050612b87565b838801955050505b50505092915050565b6000612bc38284612b34565b915081905092915050565b6000612bd982611f9d565b612be38185612b14565b9350612bf3818560208601611fb9565b80840191505092915050565b6000612c0b8284612bce565b915081905092915050565b7f50617469656e7420616c72656164792072656769737465726564000000000000600082015250565b6000612c4c601a83612728565b9150612c5782612c16565b602082019050919050565b60006020820190508181036000830152612c7b81612c3f565b9050919050565b60006020601f8301049050919050565b600082821b905092915050565b600060088302612ccf7fffffffffffffffffffffffffffffffffffffffffffffffffffffffffffffffff82612c92565b612cd98683612c92565b95508019841693508086168417925050509392505050565b6000819050919050565b6000612d16612d11612d0c846126c5565b612cf1565b6126c5565b9050919050565b6000819050919050565b612d3083612cfb565b612d44612d3c82612d1d565b848454612c9f565b825550505050565b600090565b612d59612d4c565b612d64818484612d27565b505050565b5b81811015612d8857612d7d600082612d51565b600181019050612d6a565b5050565b601f821115612dcd57612d9e81612b1f565b612da784612c82565b81016020851015612db6578190505b612dca612dc285612c82565b830182612d69565b50505b505050565b600082821c905092915050565b6000612df060001984600802612dd2565b1980831691505092915050565b6000612e098383612ddf565b9150826002028217905092915050565b612e2282611f9d565b67ffffffffffffffff811115612e3b57612e3a612288565b5b612e458254612ae3565b612e50828285612d8c565b600060209050601f831160018114612e835760008415612e71578287015190505b612e7b8582612dfd565b865550612ee3565b601f198416612e9186612b1f565b60005b82811015612eb957848901518255600182019150602085019450602081019050612e94565b86831015612ed65784890151612ed2601f891682612ddf565b8355505b6001600288020188555050505b505050505050565b60006060820190508181036000830152612f058186612739565b90508181036020830152612f198185612739565b9050612f286040830184612918565b949350505050565b7f566965772041636365737320616c726561647920676976656e20746f2074686560008201527f20446f63746f7221000000000000000000000000000000000000000000000000602082015250565b6000612f8c602883612728565b9150612f9782612f30565b604082019050919050565b60006020820190508181036000830152612fbb81612f7f565b9050919050565b7f50617469656e74206e6f74207265676973746572656400000000000000000000600082015250565b6000612ff8601683612728565b915061300382612fc2565b602082019050919050565b6000602082019050818103600083015261302781612feb565b905091905056fea26469706673582212204c9bd0c88245e76afe504fcfb0b9ebeeb74915ee58d8da7ec3fea243d9d0787464736f6c634300081c0033",
  "linkReferences": {},
  "deployedLinkReferences": {}
}