{
  "_format": "hh-sol-artifact-1",
  "contractName": "PatientRegistration",
  "sourceName": "contracts/PatientRegistration.sol",
  "abi": [
    {
      "anonymous": false,
      "inputs": [
        {
          "indexed": false,
          "internalType": "string",
          "name": "hhNumber",
          "type": "string"
        },
        {
          "indexed": false,
          "internalType": "string",
          "name": "name",
          "type": "string"
        },
        {
          "indexed": false,
          "internalType": "address",
          "name": "walletAddress",
          "type": "address"
        }
      ],
      "name": "PatientRegistered",
      "type": "event"
    },
    {
      "inputs": [
        {
          "internalType": "string",
          "name": "",
          "type": "string"
        },
        {
          "internalType": "string",
          "name": "",
          "type": "string"
        }
      ],
      "name": "doctorPermissions",
      "outputs": [
        {
          "internalType": "bool",
          "name": "",
          "type": "bool"
        }
      ],
      "stateMutability": "view",
      "type": "function"
    },
    {
      "inputs": [
        {
          "internalType": "string",
          "name": "_hhNumber",
          "type": "string"
        }
      ],
      "name": "getPatientDetails",
      "outputs": [
        {
          "internalType": "address",
          "name": "walletAddress",
          "type": "address"
        },
        {
          "internalType": "string",
          "name": "name",
          "type": "string"
        },
        {
          "internalType": "string",
          "name": "dateOfBirth",
          "type": "string"
        },
        {
          "internalType": "string",
          "name": "gender",
          "type": "string"
        },
        {
          "internalType": "string",
          "name": "bloodGroup",
          "type": "string"
        },
        {
          "internalType": "string",
          "name": "homeAddress",
          "type": "string"
        },
        {
          "internalType": "string",
          "name": "email",
          "type": "string"
        }
      ],
      "stateMutability": "view",
      "type": "function"
    },
    {
      "inputs": [
        {
          "internalType": "string",
          "name": "_doctorNumber",
          "type": "string"
        }
      ],
      "name": "getPatientList",
      "outputs": [
        {
          "components": [
            {
              "internalType": "string",
              "name": "patient_number",
              "type": "string"
            },
            {
              "internalType": "string",
              "name": "patient_name",
              "type": "string"
            }
          ],
          "internalType": "struct PatientRegistration.PatientList[]",
          "name": "",
          "type": "tuple[]"
        }
      ],
      "stateMutability": "view",
      "type": "function"
    },
    {
      "inputs": [
        {
          "internalType": "string",
          "name": "_patientNumber",
          "type": "string"
        },
        {
          "internalType": "string",
          "name": "_doctorNumber",
          "type": "string"
        },
        {
          "internalType": "string",
          "name": "_patientName",
          "type": "string"
        }
      ],
      "name": "grantPermission",
      "outputs": [],
      "stateMutability": "nonpayable",
      "type": "function"
    },
    {
      "inputs": [
        {
          "internalType": "string",
          "name": "",
          "type": "string"
        }
      ],
      "name": "isPatientRegistered",
      "outputs": [
        {
          "internalType": "bool",
          "name": "",
          "type": "bool"
        }
      ],
      "stateMutability": "view",
      "type": "function"
    },
    {
      "inputs": [
        {
          "internalType": "address",
          "name": "",
          "type": "address"
        }
      ],
      "name": "isPatientRegisteredAddress",
      "outputs": [
        {
          "internalType": "bool",
          "name": "",
          "type": "bool"
        }
      ],
      "stateMutability": "view",
      "type": "function"
    },
    {
      "inputs": [
        {
          "internalType": "string",
          "name": "_patientNumber",
          "type": "string"
        },
        {
          "internalType": "string",
          "name": "_doctorNumber",
          "type": "string"
        }
      ],
      "name": "isPermissionGranted",
      "outputs": [
        {
          "internalType": "bool",
          "name": "",
          "type": "bool"
        }
      ],
      "stateMutability": "view",
      "type": "function"
    },
    {
      "inputs": [
        {
          "internalType": "string",
          "name": "_hhNumber",
          "type": "string"
        }
      ],
      "name": "isRegisteredPatient",
      "outputs": [
        {
          "internalType": "bool",
          "name": "",
          "type": "bool"
        }
      ],
      "stateMutability": "view",
      "type": "function"
    },
    {
      "inputs": [
        {
          "internalType": "string",
          "name": "",
          "type": "string"
        }
      ],
      "name": "patients",
      "outputs": [
        {
          "internalType": "address",
          "name": "walletAddress",
          "type": "address"
        },
        {
          "internalType": "string",
          "name": "name",
          "type": "string"
        },
        {
          "internalType": "string",
          "name": "dateOfBirth",
          "type": "string"
        },
        {
          "internalType": "string",
          "name": "gender",
          "type": "string"
        },
        {
          "internalType": "string",
          "name": "bloodGroup",
          "type": "string"
        },
        {
          "internalType": "string",
          "name": "homeAddress",
          "type": "string"
        },
        {
          "internalType": "string",
          "name": "email",
          "type": "string"
        },
        {
          "internalType": "string",
          "name": "hhNumber",
          "type": "string"
        },
        {
          "internalType": "string",
          "name": "password",
          "type": "string"
        }
      ],
      "stateMutability": "view",
      "type": "function"
    },
    {
      "inputs": [
        {
          "internalType": "address",
          "name": "_walletAddress",
          "type": "address"
        },
        {
          "internalType": "string",
          "name": "_name",
          "type": "string"
        },
        {
          "internalType": "string",
          "name": "_dateOfBirth",
          "type": "string"
        },
        {
          "internalType": "string",
          "name": "_gender",
          "type": "string"
        },
        {
          "internalType": "string",
          "name": "_bloodGroup",
          "type": "string"
        },
        {
          "internalType": "string",
          "name": "_homeAddress",
          "type": "string"
        },
        {
          "internalType": "string",
          "name": "_email",
          "type": "string"
        },
        {
          "internalType": "string",
          "name": "_hhNumber",
          "type": "string"
        },
        {
          "internalType": "string",
          "name": "_password",
          "type": "string"
        }
      ],
      "name": "registerPatient",
      "outputs": [],
      "stateMutability": "nonpayable",
      "type": "function"
    },
    {
      "inputs": [
        {
          "internalType": "address",
          "name": "_walletAddress",
          "type": "address"
        },
        {
          "internalType": "string",
          "name": "_hhNumber",
          "type": "string"
        }
      ],
      "name": "validateAddress",
      "outputs": [
        {
          "internalType": "bool",
          "name": "",
          "type": "bool"
        }
      ],
      "stateMutability": "view",
      "type": "function"
    },
    {
      "inputs": [
        {
          "internalType": "string",
          "name": "_hhNumber",
          "type": "string"
        },
        {
          "internalType": "string",
          "name": "_password",
          "type": "string"
        }
      ],
      "name": "validatePassword",
      "outputs": [
        {
          "internalType": "bool",
          "name": "",
          "type": "bool"
        }
      ],
      "stateMutability": "view",
      "type": "function"
    }
  ],
  "bytecode": "0x6080604052348015600f57600080fd5b506126698061001f6000396000f3fe608060405234801561001057600080fd5b50600436106100b45760003560e01c80638ff1605b116100715780638ff1605b146101b157806391c12f76146101e1578063c6009d8414610211578063d120c10c14610249578063ea977fc814610279578063f7252641146102af576100b4565b80632e55208d146100b957806344334733146100e95780634f10c6c21461011957806357812a08146101495780635df67040146101655780637babdb2614610181575b600080fd5b6100d360048036038101906100ce919061180b565b6102df565b6040516100e09190611853565b60405180910390f35b61010360048036038101906100fe91906119b4565b6102ff565b6040516101109190611853565b60405180910390f35b610133600480360381019061012e9190611a2c565b61035a565b6040516101409190611853565b60405180910390f35b610163600480360381019061015e9190611a75565b610390565b005b61017f600480360381019061017a9190611c1f565b6106d2565b005b61019b600480360381019061019691906119b4565b610920565b6040516101a89190611853565b60405180910390f35b6101cb60048036038101906101c69190611cc6565b610a03565b6040516101d89190611853565b60405180910390f35b6101fb60048036038101906101f69190611a2c565b610ae7565b6040516102089190611ea7565b60405180910390f35b61022b60048036038101906102269190611a2c565b610c88565b60405161024099989796959493929190611f22565b60405180910390f35b610263600480360381019061025e91906119b4565b61114c565b6040516102709190611853565b60405180910390f35b610293600480360381019061028e9190611a2c565b61119e565b6040516102a69796959493929190611fe7565b60405180910390f35b6102c960048036038101906102c49190611a2c565b611765565b6040516102d69190611853565b60405180910390f35b60016020528060005260406000206000915054906101000a900460ff1681565b600482805160208101820180518482526020830160208501208183528095505050505050818051602081018201805184825260208301602085012081835280955050505050506000915091509054906101000a900460ff1681565b6000818051602081018201805184825260208301602085012081835280955050505050506000915054906101000a900460ff1681565b6000826040516103a091906120bc565b908152602001604051809103902060009054906101000a900460ff16156103fc576040517f08c379a00000000000000000000000000000000000000000000000000000000081526004016103f39061211f565b60405180910390fd5b600160008a73ffffffffffffffffffffffffffffffffffffffff1673ffffffffffffffffffffffffffffffffffffffff16815260200190815260200160002060009054906101000a900460ff1615610489576040517f08c379a00000000000000000000000000000000000000000000000000000000081526004016104809061211f565b60405180910390fd5b60006040518061012001604052808b73ffffffffffffffffffffffffffffffffffffffff1681526020018a8152602001898152602001888152602001878152602001868152602001858152602001848152602001838152509050806002846040516104f491906120bc565b908152602001604051809103902060008201518160000160006101000a81548173ffffffffffffffffffffffffffffffffffffffff021916908373ffffffffffffffffffffffffffffffffffffffff160217905550602082015181600101908161055e9190612355565b5060408201518160020190816105749190612355565b50606082015181600301908161058a9190612355565b5060808201518160040190816105a09190612355565b5060a08201518160050190816105b69190612355565b5060c08201518160060190816105cc9190612355565b5060e08201518160070190816105e29190612355565b506101008201518160080190816105f99190612355565b5090505060018060008c73ffffffffffffffffffffffffffffffffffffffff1673ffffffffffffffffffffffffffffffffffffffff16815260200190815260200160002060006101000a81548160ff021916908315150217905550600160008460405161066691906120bc565b908152602001604051809103902060006101000a81548160ff0219169083151502179055507f319ae3a95b9a410d647835a7e64d54ddf28faf35a698f0a2b63999585fa38edc838a8c6040516106be93929190612427565b60405180910390a150505050505050505050565b6004836040516106e291906120bc565b9081526020016040518091039020826040516106fe91906120bc565b908152602001604051809103902060009054906101000a900460ff161561075a576040517f08c379a0000000000000000000000000000000000000000000000000000000008152600401610751906124de565b60405180910390fd5b6000805b60038460405161076e91906120bc565b908152602001604051809103902080549050811015610830578460405160200161079891906120bc565b604051602081830303815290604052805190602001206003856040516107be91906120bc565b908152602001604051809103902082815481106107de576107dd6124fe565b5b90600052602060002090600202016000016040516020016107ff91906125b0565b60405160208183030381529060405280519060200120036108235760019150610830565b808060010191505061075e565b50806108c7576000604051806040016040528086815260200184815250905060038460405161085f91906120bc565b908152602001604051809103902081908060018154018082558091505060019003906000526020600020906002020160009091909190915060008201518160000190816108ac9190612355565b5060208201518160010190816108c29190612355565b505050505b60016004856040516108d991906120bc565b9081526020016040518091039020846040516108f591906120bc565b908152602001604051809103902060006101000a81548160ff02191690831515021790555050505050565b6000808360405161093191906120bc565b908152602001604051809103902060009054906101000a900460ff1661098c576040517f08c379a000000000000000000000000000000000000000000000000000000000815260040161098390612613565b60405180910390fd5b60028360405161099c91906120bc565b90815260200160405180910390206008016040516020016109bd91906125b0565b60405160208183030381529060405280519060200120826040516020016109e491906120bc565b6040516020818303038152906040528051906020012014905092915050565b60008082604051610a1491906120bc565b908152602001604051809103902060009054906101000a900460ff16610a6f576040517f08c379a0000000000000000000000000000000000000000000000000000000008152600401610a6690612613565b60405180910390fd5b600282604051610a7f91906120bc565b908152602001604051809103902060000160009054906101000a900473ffffffffffffffffffffffffffffffffffffffff1673ffffffffffffffffffffffffffffffffffffffff168373ffffffffffffffffffffffffffffffffffffffff1614905092915050565b6060600382604051610af991906120bc565b9081526020016040518091039020805480602002602001604051908101604052809291908181526020016000905b82821015610c7d5783829060005260206000209060020201604051806040016040529081600082018054610b5a9061216e565b80601f0160208091040260200160405190810160405280929190818152602001828054610b869061216e565b8015610bd35780601f10610ba857610100808354040283529160200191610bd3565b820191906000526020600020905b815481529060010190602001808311610bb657829003601f168201915b50505050508152602001600182018054610bec9061216e565b80601f0160208091040260200160405190810160405280929190818152602001828054610c189061216e565b8015610c655780601f10610c3a57610100808354040283529160200191610c65565b820191906000526020600020905b815481529060010190602001808311610c4857829003601f168201915b50505050508152505081526020019060010190610b27565b505050509050919050565b6002818051602081018201805184825260208301602085012081835280955050505050506000915090508060000160009054906101000a900473ffffffffffffffffffffffffffffffffffffffff1690806001018054610ce79061216e565b80601f0160208091040260200160405190810160405280929190818152602001828054610d139061216e565b8015610d605780601f10610d3557610100808354040283529160200191610d60565b820191906000526020600020905b815481529060010190602001808311610d4357829003601f168201915b505050505090806002018054610d759061216e565b80601f0160208091040260200160405190810160405280929190818152602001828054610da19061216e565b8015610dee5780601f10610dc357610100808354040283529160200191610dee565b820191906000526020600020905b815481529060010190602001808311610dd157829003601f168201915b505050505090806003018054610e039061216e565b80601f0160208091040260200160405190810160405280929190818152602001828054610e2f9061216e565b8015610e7c5780601f10610e5157610100808354040283529160200191610e7c565b820191906000526020600020905b815481529060010190602001808311610e5f57829003601f168201915b505050505090806004018054610e919061216e565b80601f0160208091040260200160405190810160405280929190818152602001828054610ebd9061216e565b8015610f0a5780601f10610edf57610100808354040283529160200191610f0a565b820191906000526020600020905b815481529060010190602001808311610eed57829003601f168201915b505050505090806005018054610f1f9061216e565b80601f0160208091040260200160405190810160405280929190818152602001828054610f4b9061216e565b8015610f985780601f10610f6d57610100808354040283529160200191610f98565b820191906000526020600020905b815481529060010190602001808311610f7b57829003601f168201915b505050505090806006018054610fad9061216e565b80601f0160208091040260200160405190810160405280929190818152602001828054610fd99061216e565b80156110265780601f10610ffb57610100808354040283529160200191611026565b820191906000526020600020905b81548152906001019060200180831161100957829003601f168201915b50505050509080600701805461103b9061216e565b80601f01602080910402602001604051908101604052809291908181526020018280546110679061216e565b80156110b45780601f10611089576101008083540402835291602001916110b4565b820191906000526020600020905b81548152906001019060200180831161109757829003601f168201915b5050505050908060080180546110c99061216e565b80601f01602080910402602001604051908101604052809291908181526020018280546110f59061216e565b80156111425780601f1061111757610100808354040283529160200191611142565b820191906000526020600020905b81548152906001019060200180831161112557829003601f168201915b5050505050905089565b600060048360405161115e91906120bc565b90815260200160405180910390208260405161117a91906120bc565b908152602001604051809103902060009054906101000a900460ff16905092915050565b60006060806060806060806000886040516111b991906120bc565b908152602001604051809103902060009054906101000a900460ff16611214576040517f08c379a000000000000000000000000000000000000000000000000000000000815260040161120b90612613565b60405180910390fd5b600060028960405161122691906120bc565b9081526020016040518091039020604051806101200160405290816000820160009054906101000a900473ffffffffffffffffffffffffffffffffffffffff1673ffffffffffffffffffffffffffffffffffffffff1673ffffffffffffffffffffffffffffffffffffffff1681526020016001820180546112a69061216e565b80601f01602080910402602001604051908101604052809291908181526020018280546112d29061216e565b801561131f5780601f106112f45761010080835404028352916020019161131f565b820191906000526020600020905b81548152906001019060200180831161130257829003601f168201915b505050505081526020016002820180546113389061216e565b80601f01602080910402602001604051908101604052809291908181526020018280546113649061216e565b80156113b15780601f10611386576101008083540402835291602001916113b1565b820191906000526020600020905b81548152906001019060200180831161139457829003601f168201915b505050505081526020016003820180546113ca9061216e565b80601f01602080910402602001604051908101604052809291908181526020018280546113f69061216e565b80156114435780601f1061141857610100808354040283529160200191611443565b820191906000526020600020905b81548152906001019060200180831161142657829003601f168201915b5050505050815260200160048201805461145c9061216e565b80601f01602080910402602001604051908101604052809291908181526020018280546114889061216e565b80156114d55780601f106114aa576101008083540402835291602001916114d5565b820191906000526020600020905b8154815290600101906020018083116114b857829003601f168201915b505050505081526020016005820180546114ee9061216e565b80601f016020809104026020016040519081016040528092919081815260200182805461151a9061216e565b80156115675780601f1061153c57610100808354040283529160200191611567565b820191906000526020600020905b81548152906001019060200180831161154a57829003601f168201915b505050505081526020016006820180546115809061216e565b80601f01602080910402602001604051908101604052809291908181526020018280546115ac9061216e565b80156115f95780601f106115ce576101008083540402835291602001916115f9565b820191906000526020600020905b8154815290600101906020018083116115dc57829003601f168201915b505050505081526020016007820180546116129061216e565b80601f016020809104026020016040519081016040528092919081815260200182805461163e9061216e565b801561168b5780601f106116605761010080835404028352916020019161168b565b820191906000526020600020905b81548152906001019060200180831161166e57829003601f168201915b505050505081526020016008820180546116a49061216e565b80601f01602080910402602001604051908101604052809291908181526020018280546116d09061216e565b801561171d5780601f106116f25761010080835404028352916020019161171d565b820191906000526020600020905b81548152906001019060200180831161170057829003601f168201915b5050505050815250509050806000015181602001518260400151836060015184608001518560a001518660c00151975097509750975097509750975050919395979092949650565b6000808260405161177691906120bc565b908152602001604051809103902060009054906101000a900460ff169050919050565b6000604051905090565b600080fd5b600080fd5b600073ffffffffffffffffffffffffffffffffffffffff82169050919050565b60006117d8826117ad565b9050919050565b6117e8816117cd565b81146117f357600080fd5b50565b600081359050611805816117df565b92915050565b600060208284031215611821576118206117a3565b5b600061182f848285016117f6565b91505092915050565b60008115159050919050565b61184d81611838565b82525050565b60006020820190506118686000830184611844565b92915050565b600080fd5b600080fd5b6000601f19601f8301169050919050565b7f4e487b7100000000000000000000000000000000000000000000000000000000600052604160045260246000fd5b6118c182611878565b810181811067ffffffffffffffff821117156118e0576118df611889565b5b80604052505050565b60006118f3611799565b90506118ff82826118b8565b919050565b600067ffffffffffffffff82111561191f5761191e611889565b5b61192882611878565b9050602081019050919050565b82818337600083830152505050565b600061195761195284611904565b6118e9565b90508281526020810184848401111561197357611972611873565b5b61197e848285611935565b509392505050565b600082601f83011261199b5761199a61186e565b5b81356119ab848260208601611944565b91505092915050565b600080604083850312156119cb576119ca6117a3565b5b600083013567ffffffffffffffff8111156119e9576119e86117a8565b5b6119f585828601611986565b925050602083013567ffffffffffffffff811115611a1657611a156117a8565b5b611a2285828601611986565b9150509250929050565b600060208284031215611a4257611a416117a3565b5b600082013567ffffffffffffffff811115611a6057611a5f6117a8565b5b611a6c84828501611986565b91505092915050565b60008060008060008060008060006101208a8c031215611a9857611a976117a3565b5b6000611aa68c828d016117f6565b99505060208a013567ffffffffffffffff811115611ac757611ac66117a8565b5b611ad38c828d01611986565b98505060408a013567ffffffffffffffff811115611af457611af36117a8565b5b611b008c828d01611986565b97505060608a013567ffffffffffffffff811115611b2157611b206117a8565b5b611b2d8c828d01611986565b96505060808a013567ffffffffffffffff811115611b4e57611b4d6117a8565b5b611b5a8c828d01611986565b95505060a08a013567ffffffffffffffff811115611b7b57611b7a6117a8565b5b611b878c828d01611986565b94505060c08a013567ffffffffffffffff811115611ba857611ba76117a8565b5b611bb48c828d01611986565b93505060e08a013567ffffffffffffffff811115611bd557611bd46117a8565b5b611be18c828d01611986565b9250506101008a013567ffffffffffffffff811115611c0357611c026117a8565b5b611c0f8c828d01611986565b9150509295985092959850929598565b600080600060608486031215611c3857611c376117a3565b5b600084013567ffffffffffffffff811115611c5657611c556117a8565b5b611c6286828701611986565b935050602084013567ffffffffffffffff811115611c8357611c826117a8565b5b611c8f86828701611986565b925050604084013567ffffffffffffffff811115611cb057611caf6117a8565b5b611cbc86828701611986565b9150509250925092565b60008060408385031215611cdd57611cdc6117a3565b5b6000611ceb858286016117f6565b925050602083013567ffffffffffffffff811115611d0c57611d0b6117a8565b5b611d1885828601611986565b9150509250929050565b600081519050919050565b600082825260208201905092915050565b6000819050602082019050919050565b600081519050919050565b600082825260208201905092915050565b60005b83811015611d88578082015181840152602081019050611d6d565b60008484015250505050565b6000611d9f82611d4e565b611da98185611d59565b9350611db9818560208601611d6a565b611dc281611878565b840191505092915050565b60006040830160008301518482036000860152611dea8282611d94565b91505060208301518482036020860152611e048282611d94565b9150508091505092915050565b6000611e1d8383611dcd565b905092915050565b6000602082019050919050565b6000611e3d82611d22565b611e478185611d2d565b935083602082028501611e5985611d3e565b8060005b85811015611e955784840389528151611e768582611e11565b9450611e8183611e25565b925060208a01995050600181019050611e5d565b50829750879550505050505092915050565b60006020820190508181036000830152611ec18184611e32565b905092915050565b611ed2816117cd565b82525050565b600082825260208201905092915050565b6000611ef482611d4e565b611efe8185611ed8565b9350611f0e818560208601611d6a565b611f1781611878565b840191505092915050565b600061012082019050611f38600083018c611ec9565b8181036020830152611f4a818b611ee9565b90508181036040830152611f5e818a611ee9565b90508181036060830152611f728189611ee9565b90508181036080830152611f868188611ee9565b905081810360a0830152611f9a8187611ee9565b905081810360c0830152611fae8186611ee9565b905081810360e0830152611fc28185611ee9565b9050818103610100830152611fd78184611ee9565b90509a9950505050505050505050565b600060e082019050611ffc600083018a611ec9565b818103602083015261200e8189611ee9565b905081810360408301526120228188611ee9565b905081810360608301526120368187611ee9565b9050818103608083015261204a8186611ee9565b905081810360a083015261205e8185611ee9565b905081810360c08301526120728184611ee9565b905098975050505050505050565b600081905092915050565b600061209682611d4e565b6120a08185612080565b93506120b0818560208601611d6a565b80840191505092915050565b60006120c8828461208b565b915081905092915050565b7f50617469656e7420616c72656164792072656769737465726564000000000000600082015250565b6000612109601a83611ed8565b9150612114826120d3565b602082019050919050565b60006020820190508181036000830152612138816120fc565b9050919050565b7f4e487b7100000000000000000000000000000000000000000000000000000000600052602260045260246000fd5b6000600282049050600182168061218657607f821691505b6020821081036121995761219861213f565b5b50919050565b60008190508160005260206000209050919050565b60006020601f8301049050919050565b600082821b905092915050565b6000600883026122017fffffffffffffffffffffffffffffffffffffffffffffffffffffffffffffffff826121c4565b61220b86836121c4565b95508019841693508086168417925050509392505050565b6000819050919050565b6000819050919050565b600061225261224d61224884612223565b61222d565b612223565b9050919050565b6000819050919050565b61226c83612237565b61228061227882612259565b8484546121d1565b825550505050565b600090565b612295612288565b6122a0818484612263565b505050565b5b818110156122c4576122b960008261228d565b6001810190506122a6565b5050565b601f821115612309576122da8161219f565b6122e3846121b4565b810160208510156122f2578190505b6123066122fe856121b4565b8301826122a5565b50505b505050565b600082821c905092915050565b600061232c6000198460080261230e565b1980831691505092915050565b6000612345838361231b565b9150826002028217905092915050565b61235e82611d4e565b67ffffffffffffffff81111561237757612376611889565b5b612381825461216e565b61238c8282856122c8565b600060209050601f8311600181146123bf57600084156123ad578287015190505b6123b78582612339565b86555061241f565b601f1984166123cd8661219f565b60005b828110156123f5578489015182556001820191506020850194506020810190506123d0565b86831015612412578489015161240e601f89168261231b565b8355505b6001600288020188555050505b505050505050565b600060608201905081810360008301526124418186611ee9565b905081810360208301526124558185611ee9565b90506124646040830184611ec9565b949350505050565b7f566965772041636365737320616c726561647920676976656e20746f2074686560008201527f20446f63746f7221000000000000000000000000000000000000000000000000602082015250565b60006124c8602883611ed8565b91506124d38261246c565b604082019050919050565b600060208201905081810360008301526124f7816124bb565b9050919050565b7f4e487b7100000000000000000000000000000000000000000000000000000000600052603260045260246000fd5b6000815461253a8161216e565b6125448186612080565b9450600182166000811461255f5760018114612574576125a7565b60ff19831686528115158202860193506125a7565b61257d8561219f565b60005b8381101561259f57815481890152600182019150602081019050612580565b838801955050505b50505092915050565b60006125bc828461252d565b915081905092915050565b7f50617469656e74206e6f74207265676973746572656400000000000000000000600082015250565b60006125fd601683611ed8565b9150612608826125c7565b602082019050919050565b6000602082019050818103600083015261262c816125f0565b905091905056fea26469706673582212200429e117424052e070218863c3b9775137f6522643e9f0369bd8746c3da455f764736f6c634300081c0033",
  "linkReferences": {},
  "deployedLinkReferences": {}
}