{
  "_format": "hh-sol-artifact-1",
  "contractName": "AppointmentBooking",
  "sourceName": "contracts/AppointmentBooking.sol",
  "abi": [
    {
      "anonymous": false,
      "inputs": [
        {
          "indexed": false,
          "internalType": "string",
          "name": "patientHHNumber",
          "type": "string"
        },
        {
          "indexed": false,
          "internalType": "string",
          "name": "doctorHHNumber",
          "type": "string"
        },
        {
          "indexed": false,
          "internalType": "uint256",
          "name": "date",
          "type": "uint256"
        }
      ],
      "name": "AppointmentBooked",
      "type": "event"
    },
    {
      "inputs": [],
      "name": "MAX_APPOINTMENTS_PER_DAY",
      "outputs": [
        {
          "internalType": "uint256",
          "name": "",
          "type": "uint256"
        }
      ],
      "stateMutability": "view",
      "type": "function"
    },
    {
      "inputs": [
        {
          "internalType": "uint256",
          "name": "",
          "type": "uint256"
        }
      ],
      "name": "appointments",
      "outputs": [
        {
          "internalType": "string",
          "name": "patientHHNumber",
          "type": "string"
        },
        {
          "internalType": "string",
          "name": "doctorHHNumber",
          "type": "string"
        },
        {
          "internalType": "uint256",
          "name": "date",
          "type": "uint256"
        }
      ],
      "stateMutability": "view",
      "type": "function"
    },
    {
      "inputs": [
        {
          "internalType": "string",
          "name": "_patientHHNumber",
          "type": "string"
        },
        {
          "internalType": "string",
          "name": "_doctorHHNumber",
          "type": "string"
        },
        {
          "internalType": "uint256",
          "name": "_date",
          "type": "uint256"
        }
      ],
      "name": "bookAppointment",
      "outputs": [],
      "stateMutability": "nonpayable",
      "type": "function"
    },
    {
      "inputs": [
        {
          "internalType": "string",
          "name": "",
          "type": "string"
        },
        {
          "internalType": "uint256",
          "name": "",
          "type": "uint256"
        }
      ],
      "name": "doctorAppointmentsPerDay",
      "outputs": [
        {
          "internalType": "uint256",
          "name": "",
          "type": "uint256"
        }
      ],
      "stateMutability": "view",
      "type": "function"
    },
    {
      "inputs": [],
      "name": "getAppointments",
      "outputs": [
        {
          "components": [
            {
              "internalType": "string",
              "name": "patientHHNumber",
              "type": "string"
            },
            {
              "internalType": "string",
              "name": "doctorHHNumber",
              "type": "string"
            },
            {
              "internalType": "uint256",
              "name": "date",
              "type": "uint256"
            }
          ],
          "internalType": "struct AppointmentBooking.Appointment[]",
          "name": "",
          "type": "tuple[]"
        }
      ],
      "stateMutability": "view",
      "type": "function"
    },
    {
      "inputs": [
        {
          "internalType": "string",
          "name": "_doctorHHNumber",
          "type": "string"
        },
        {
          "internalType": "uint256",
          "name": "_date",
          "type": "uint256"
        }
      ],
      "name": "getDoctorAppointmentsCount",
      "outputs": [
        {
          "internalType": "uint256",
          "name": "",
          "type": "uint256"
        }
      ],
      "stateMutability": "view",
      "type": "function"
    },
    {
      "inputs": [
        {
          "internalType": "string",
          "name": "",
          "type": "string"
        },
        {
          "internalType": "string",
          "name": "",
          "type": "string"
        },
        {
          "internalType": "uint256",
          "name": "",
          "type": "uint256"
        }
      ],
      "name": "hasBookedAppointment",
      "outputs": [
        {
          "internalType": "bool",
          "name": "",
          "type": "bool"
        }
      ],
      "stateMutability": "view",
      "type": "function"
    },
    {
      "inputs": [
        {
          "internalType": "string",
          "name": "_patientHHNumber",
          "type": "string"
        },
        {
          "internalType": "string",
          "name": "_doctorHHNumber",
          "type": "string"
        },
        {
          "internalType": "uint256",
          "name": "_date",
          "type": "uint256"
        }
      ],
      "name": "isAlreadyBooked",
      "outputs": [
        {
          "internalType": "bool",
          "name": "",
          "type": "bool"
        }
      ],
      "stateMutability": "view",
      "type": "function"
    }
  ],
  "bytecode": "0x6080604052348015600f57600080fd5b506112b08061001f6000396000f3fe608060405234801561001057600080fd5b50600436106100885760003560e01c806395a6c9f21161005b57806395a6c9f21461013b57806396b80d081461016b578063d39d058e14610189578063d7d7559b146101a757610088565b806312785f381461008d57806312dc9013146100a95780633b7ebbad146100db578063612d85831461010b575b600080fd5b6100a760048036038101906100a291906109f6565b6101d7565b005b6100c360048036038101906100be9190610a81565b61044a565b6040516100d293929190610b3c565b60405180910390f35b6100f560048036038101906100f09190610b81565b610594565b6040516101029190610bdd565b60405180910390f35b61012560048036038101906101209190610b81565b6105cd565b6040516101329190610bdd565b60405180910390f35b610155600480360381019061015091906109f6565b610608565b6040516101629190610c13565b60405180910390f35b610173610670565b6040516101809190610da0565b60405180910390f35b6101916107fd565b60405161019e9190610bdd565b60405180910390f35b6101c160048036038101906101bc91906109f6565b610802565b6040516101ce9190610c13565b60405180910390f35b6001836040516101e79190610dfe565b9081526020016040518091039020826040516102039190610dfe565b9081526020016040518091039020600082815260200190815260200160002060009054906101000a900460ff1615610270576040517f08c379a000000000000000000000000000000000000000000000000000000000815260040161026790610e87565b60405180910390fd5b600a6000836040516102829190610dfe565b9081526020016040518091039020600083815260200190815260200160002054106102e2576040517f08c379a00000000000000000000000000000000000000000000000000000000081526004016102d990610f19565b60405180910390fd5b60026040518060600160405280858152602001848152602001838152509080600181540180825580915050600190039060005260206000209060030201600090919091909150600082015181600001908161033d9190611145565b5060208201518160010190816103539190611145565b50604082015181600201555050600180846040516103719190610dfe565b90815260200160405180910390208360405161038d9190610dfe565b9081526020016040518091039020600083815260200190815260200160002060006101000a81548160ff02191690831515021790555060016000836040516103d59190610dfe565b9081526020016040518091039020600083815260200190815260200160002060008282546104039190611246565b925050819055507f58c80a00edb13b0df4bbecfe603d495805a400bb9819fcc67f80c30437cf052283838360405161043d93929190610b3c565b60405180910390a1505050565b6002818154811061045a57600080fd5b906000526020600020906003020160009150905080600001805461047d90610f68565b80601f01602080910402602001604051908101604052809291908181526020018280546104a990610f68565b80156104f65780601f106104cb576101008083540402835291602001916104f6565b820191906000526020600020905b8154815290600101906020018083116104d957829003601f168201915b50505050509080600101805461050b90610f68565b80601f016020809104026020016040519081016040528092919081815260200182805461053790610f68565b80156105845780601f1061055957610100808354040283529160200191610584565b820191906000526020600020905b81548152906001019060200180831161056757829003601f168201915b5050505050908060020154905083565b600080836040516105a59190610dfe565b9081526020016040518091039020600083815260200190815260200160002054905092915050565b600082805160208101820180518482526020830160208501208183528095505050505050602052806000526040600020600091509150505481565b60018380516020810182018051848252602083016020850120818352809550505050505082805160208101820180518482526020830160208501208183528095505050505050602052806000526040600020600092509250509054906101000a900460ff1681565b60606002805480602002602001604051908101604052809291908181526020016000905b828210156107f457838290600052602060002090600302016040518060600160405290816000820180546106c790610f68565b80601f01602080910402602001604051908101604052809291908181526020018280546106f390610f68565b80156107405780601f1061071557610100808354040283529160200191610740565b820191906000526020600020905b81548152906001019060200180831161072357829003601f168201915b5050505050815260200160018201805461075990610f68565b80601f016020809104026020016040519081016040528092919081815260200182805461078590610f68565b80156107d25780601f106107a7576101008083540402835291602001916107d2565b820191906000526020600020905b8154815290600101906020018083116107b557829003601f168201915b5050505050815260200160028201548152505081526020019060010190610694565b50505050905090565b600a81565b60006001846040516108149190610dfe565b9081526020016040518091039020836040516108309190610dfe565b9081526020016040518091039020600083815260200190815260200160002060009054906101000a900460ff1690509392505050565b6000604051905090565b600080fd5b600080fd5b600080fd5b600080fd5b6000601f19601f8301169050919050565b7f4e487b7100000000000000000000000000000000000000000000000000000000600052604160045260246000fd5b6108cd82610884565b810181811067ffffffffffffffff821117156108ec576108eb610895565b5b80604052505050565b60006108ff610866565b905061090b82826108c4565b919050565b600067ffffffffffffffff82111561092b5761092a610895565b5b61093482610884565b9050602081019050919050565b82818337600083830152505050565b600061096361095e84610910565b6108f5565b90508281526020810184848401111561097f5761097e61087f565b5b61098a848285610941565b509392505050565b600082601f8301126109a7576109a661087a565b5b81356109b7848260208601610950565b91505092915050565b6000819050919050565b6109d3816109c0565b81146109de57600080fd5b50565b6000813590506109f0816109ca565b92915050565b600080600060608486031215610a0f57610a0e610870565b5b600084013567ffffffffffffffff811115610a2d57610a2c610875565b5b610a3986828701610992565b935050602084013567ffffffffffffffff811115610a5a57610a59610875565b5b610a6686828701610992565b9250506040610a77868287016109e1565b9150509250925092565b600060208284031215610a9757610a96610870565b5b6000610aa5848285016109e1565b91505092915050565b600081519050919050565b600082825260208201905092915050565b60005b83811015610ae8578082015181840152602081019050610acd565b60008484015250505050565b6000610aff82610aae565b610b098185610ab9565b9350610b19818560208601610aca565b610b2281610884565b840191505092915050565b610b36816109c0565b82525050565b60006060820190508181036000830152610b568186610af4565b90508181036020830152610b6a8185610af4565b9050610b796040830184610b2d565b949350505050565b60008060408385031215610b9857610b97610870565b5b600083013567ffffffffffffffff811115610bb657610bb5610875565b5b610bc285828601610992565b9250506020610bd3858286016109e1565b9150509250929050565b6000602082019050610bf26000830184610b2d565b92915050565b60008115159050919050565b610c0d81610bf8565b82525050565b6000602082019050610c286000830184610c04565b92915050565b600081519050919050565b600082825260208201905092915050565b6000819050602082019050919050565b600082825260208201905092915050565b6000610c7682610aae565b610c808185610c5a565b9350610c90818560208601610aca565b610c9981610884565b840191505092915050565b610cad816109c0565b82525050565b60006060830160008301518482036000860152610cd08282610c6b565b91505060208301518482036020860152610cea8282610c6b565b9150506040830151610cff6040860182610ca4565b508091505092915050565b6000610d168383610cb3565b905092915050565b6000602082019050919050565b6000610d3682610c2e565b610d408185610c39565b935083602082028501610d5285610c4a565b8060005b85811015610d8e5784840389528151610d6f8582610d0a565b9450610d7a83610d1e565b925060208a01995050600181019050610d56565b50829750879550505050505092915050565b60006020820190508181036000830152610dba8184610d2b565b905092915050565b600081905092915050565b6000610dd882610aae565b610de28185610dc2565b9350610df2818560208601610aca565b80840191505092915050565b6000610e0a8284610dcd565b915081905092915050565b7f416c726561647920626f6f6b656420666f7220746f646179207769746820746860008201527f697320646f63746f720000000000000000000000000000000000000000000000602082015250565b6000610e71602983610ab9565b9150610e7c82610e15565b604082019050919050565b60006020820190508181036000830152610ea081610e64565b9050919050565b7f446f63746f72206861732072656163686564206461696c79206170706f696e7460008201527f6d656e74206c696d697400000000000000000000000000000000000000000000602082015250565b6000610f03602a83610ab9565b9150610f0e82610ea7565b604082019050919050565b60006020820190508181036000830152610f3281610ef6565b9050919050565b7f4e487b7100000000000000000000000000000000000000000000000000000000600052602260045260246000fd5b60006002820490506001821680610f8057607f821691505b602082108103610f9357610f92610f39565b5b50919050565b60008190508160005260206000209050919050565b60006020601f8301049050919050565b600082821b905092915050565b600060088302610ffb7fffffffffffffffffffffffffffffffffffffffffffffffffffffffffffffffff82610fbe565b6110058683610fbe565b95508019841693508086168417925050509392505050565b6000819050919050565b600061104261103d611038846109c0565b61101d565b6109c0565b9050919050565b6000819050919050565b61105c83611027565b61107061106882611049565b848454610fcb565b825550505050565b600090565b611085611078565b611090818484611053565b505050565b5b818110156110b4576110a960008261107d565b600181019050611096565b5050565b601f8211156110f9576110ca81610f99565b6110d384610fae565b810160208510156110e2578190505b6110f66110ee85610fae565b830182611095565b50505b505050565b600082821c905092915050565b600061111c600019846008026110fe565b1980831691505092915050565b6000611135838361110b565b9150826002028217905092915050565b61114e82610aae565b67ffffffffffffffff81111561116757611166610895565b5b6111718254610f68565b61117c8282856110b8565b600060209050601f8311600181146111af576000841561119d578287015190505b6111a78582611129565b86555061120f565b601f1984166111bd86610f99565b60005b828110156111e5578489015182556001820191506020850194506020810190506111c0565b8683101561120257848901516111fe601f89168261110b565b8355505b6001600288020188555050505b505050505050565b7f4e487b7100000000000000000000000000000000000000000000000000000000600052601160045260246000fd5b6000611251826109c0565b915061125c836109c0565b925082820190508082111561127457611273611217565b5b9291505056fea26469706673582212201c6575b2efa46d1c24b62c3c6686547e56a9ad29ba9160e5c43ef0ea905f8d7e64736f6c634300081c0033",
  "linkReferences": {},
  "deployedLinkReferences": {}
}