{
  "_format": "hh-sol-artifact-1",
  "contractName": "DoctorRegistration",
  "sourceName": "contracts/DoctorRegistration.sol",
  "abi": [
    {
      "anonymous": false,
      "inputs": [
        {
          "indexed": false,
          "internalType": "string",
          "name": "licenseNumber",
          "type": "string"
        },
        {
          "indexed": false,
          "internalType": "string",
          "name": "name",
          "type": "string"
        },
        {
          "indexed": false,
          "internalType": "address",
          "name": "walletAddress",
          "type": "address"
        }
      ],
      "name": "DoctorRegistered",
      "type": "event"
    },
    {
      "inputs": [
        {
          "internalType": "string",
          "name": "",
          "type": "string"
        }
      ],
      "name": "doctors",
      "outputs": [
        {
          "internalType": "address",
          "name": "walletAddress",
          "type": "address"
        },
        {
          "internalType": "string",
          "name": "name",
          "type": "string"
        },
        {
          "internalType": "string",
          "name": "specialization",
          "type": "string"
        },
        {
          "internalType": "string",
          "name": "licenseNumber",
          "type": "string"
        },
        {
          "internalType": "string",
          "name": "email",
          "type": "string"
        },
        {
          "internalType": "string",
          "name": "hospital",
          "type": "string"
        },
        {
          "internalType": "string",
          "name": "password",
          "type": "string"
        }
      ],
      "stateMutability": "view",
      "type": "function"
    },
    {
      "inputs": [],
      "name": "getAllDoctors",
      "outputs": [
        {
          "components": [
            {
              "internalType": "address",
              "name": "walletAddress",
              "type": "address"
            },
            {
              "internalType": "string",
              "name": "name",
              "type": "string"
            },
            {
              "internalType": "string",
              "name": "specialization",
              "type": "string"
            },
            {
              "internalType": "string",
              "name": "licenseNumber",
              "type": "string"
            },
            {
              "internalType": "string",
              "name": "email",
              "type": "string"
            },
            {
              "internalType": "string",
              "name": "hospital",
              "type": "string"
            },
            {
              "internalType": "string",
              "name": "password",
              "type": "string"
            }
          ],
          "internalType": "struct DoctorRegistration.Doctor[]",
          "name": "",
          "type": "tuple[]"
        }
      ],
      "stateMutability": "view",
      "type": "function"
    },
    {
      "inputs": [
        {
          "internalType": "string",
          "name": "_licenseNumber",
          "type": "string"
        }
      ],
      "name": "getDoctorDetails",
      "outputs": [
        {
          "internalType": "address",
          "name": "walletAddress",
          "type": "address"
        },
        {
          "internalType": "string",
          "name": "name",
          "type": "string"
        },
        {
          "internalType": "string",
          "name": "specialization",
          "type": "string"
        },
        {
          "internalType": "string",
          "name": "email",
          "type": "string"
        },
        {
          "internalType": "string",
          "name": "hospital",
          "type": "string"
        }
      ],
      "stateMutability": "view",
      "type": "function"
    },
    {
      "inputs": [
        {
          "internalType": "string",
          "name": "_patientNumber",
          "type": "string"
        }
      ],
      "name": "getDoctorList",
      "outputs": [
        {
          "components": [
            {
              "internalType": "string",
              "name": "doctorNumber",
              "type": "string"
            },
            {
              "internalType": "string",
              "name": "doctorName",
              "type": "string"
            }
          ],
          "internalType": "struct DoctorRegistration.DoctorList[]",
          "name": "",
          "type": "tuple[]"
        }
      ],
      "stateMutability": "view",
      "type": "function"
    },
    {
      "inputs": [
        {
          "internalType": "string",
          "name": "_doctorNumber",
          "type": "string"
        },
        {
          "internalType": "string",
          "name": "_patientNumber",
          "type": "string"
        },
        {
          "internalType": "string",
          "name": "_doctorName",
          "type": "string"
        }
      ],
      "name": "grantPermission",
      "outputs": [],
      "stateMutability": "nonpayable",
      "type": "function"
    },
    {
      "inputs": [
        {
          "internalType": "string",
          "name": "",
          "type": "string"
        }
      ],
      "name": "isDoctorRegistered",
      "outputs": [
        {
          "internalType": "bool",
          "name": "",
          "type": "bool"
        }
      ],
      "stateMutability": "view",
      "type": "function"
    },
    {
      "inputs": [
        {
          "internalType": "address",
          "name": "",
          "type": "address"
        }
      ],
      "name": "isDoctorRegisteredAddress",
      "outputs": [
        {
          "internalType": "bool",
          "name": "",
          "type": "bool"
        }
      ],
      "stateMutability": "view",
      "type": "function"
    },
    {
      "inputs": [
        {
          "internalType": "string",
          "name": "_doctorNumber",
          "type": "string"
        },
        {
          "internalType": "string",
          "name": "_patientNumber",
          "type": "string"
        }
      ],
      "name": "isPermissionGranted",
      "outputs": [
        {
          "internalType": "bool",
          "name": "",
          "type": "bool"
        }
      ],
      "stateMutability": "view",
      "type": "function"
    },
    {
      "inputs": [
        {
          "internalType": "string",
          "name": "_licenseNumber",
          "type": "string"
        }
      ],
      "name": "isRegisteredDoctor",
      "outputs": [
        {
          "internalType": "bool",
          "name": "",
          "type": "bool"
        }
      ],
      "stateMutability": "view",
      "type": "function"
    },
    {
      "inputs": [
        {
          "internalType": "string",
          "name": "",
          "type": "string"
        },
        {
          "internalType": "string",
          "name": "",
          "type": "string"
        }
      ],
      "name": "patientPermissions",
      "outputs": [
        {
          "internalType": "bool",
          "name": "",
          "type": "bool"
        }
      ],
      "stateMutability": "view",
      "type": "function"
    },
    {
      "inputs": [
        {
          "internalType": "address",
          "name": "_walletAddress",
          "type": "address"
        },
        {
          "internalType": "string",
          "name": "_name",
          "type": "string"
        },
        {
          "internalType": "string",
          "name": "_specialization",
          "type": "string"
        },
        {
          "internalType": "string",
          "name": "_licenseNumber",
          "type": "string"
        },
        {
          "internalType": "string",
          "name": "_email",
          "type": "string"
        },
        {
          "internalType": "string",
          "name": "_hospital",
          "type": "string"
        },
        {
          "internalType": "string",
          "name": "_password",
          "type": "string"
        }
      ],
      "name": "registerDoctor",
      "outputs": [],
      "stateMutability": "nonpayable",
      "type": "function"
    },
    {
      "inputs": [
        {
          "internalType": "uint256",
          "name": "",
          "type": "uint256"
        }
      ],
      "name": "registeredDoctorNumbers",
      "outputs": [
        {
          "internalType": "string",
          "name": "",
          "type": "string"
        }
      ],
      "stateMutability": "view",
      "type": "function"
    },
    {
      "inputs": [
        {
          "internalType": "address",
          "name": "_walletAddress",
          "type": "address"
        },
        {
          "internalType": "string",
          "name": "_licenseNumber",
          "type": "string"
        }
      ],
      "name": "validateAddress",
      "outputs": [
        {
          "internalType": "bool",
          "name": "",
          "type": "bool"
        }
      ],
      "stateMutability": "view",
      "type": "function"
    },
    {
      "inputs": [
        {
          "internalType": "string",
          "name": "_licenseNumber",
          "type": "string"
        },
        {
          "internalType": "string",
          "name": "_password",
          "type": "string"
        }
      ],
      "name": "validatePassword",
      "outputs": [
        {
          "internalType": "bool",
          "name": "",
          "type": "bool"
        }
      ],
      "stateMutability": "view",
      "type": "function"
    }
  ],
  "bytecode": "0x6080604052348015600f57600080fd5b50612c678061001f6000396000f3fe608060405234801561001057600080fd5b50600436106100ea5760003560e01c80639105efd61161008c578063d120c10c11610066578063d120c10c146102b1578063d6b04660146102e1578063d9ed6b3114610311578063f0d9509014610341576100ea565b80639105efd6146102215780639e0b6b7614610251578063a46bef1514610281576100ea565b80635df67040116100c85780635df670401461017557806377fc3e36146101915780637babdb26146101c15780638ff1605b146101f1576100ea565b806305c35ce5146100ef5780633e769767146101255780635a8f554214610159575b600080fd5b61010960048036038101906101049190611cc2565b61035f565b60405161011c9796959493929190611dcb565b60405180910390f35b61013f600480360381019061013a9190611cc2565b610707565b604051610150959493929190611e64565b60405180910390f35b610173600480360381019061016e9190611eff565b610b96565b005b61018f600480360381019061018a9190612049565b610ed1565b005b6101ab60048036038101906101a69190611cc2565b61111f565b6040516101b8919061210b565b60405180910390f35b6101db60048036038101906101d69190612126565b611155565b6040516101e8919061210b565b60405180910390f35b61020b6004803603810190610206919061219e565b611238565b604051610218919061210b565b60405180910390f35b61023b600480360381019061023691906121fa565b61131c565b604051610248919061210b565b60405180910390f35b61026b60048036038101906102669190612126565b61133c565b604051610278919061210b565b60405180910390f35b61029b60048036038101906102969190611cc2565b611397565b6040516102a8919061210b565b60405180910390f35b6102cb60048036038101906102c69190612126565b6113cb565b6040516102d8919061210b565b60405180910390f35b6102fb60048036038101906102f6919061225d565b61141d565b604051610308919061228a565b60405180910390f35b61032b60048036038101906103269190611cc2565b6114c9565b60405161033891906123fc565b60405180910390f35b61034961166a565b60405161035691906125ae565b60405180910390f35b6002818051602081018201805184825260208301602085012081835280955050505050506000915090508060000160009054906101000a900473ffffffffffffffffffffffffffffffffffffffff16908060010180546103be906125ff565b80601f01602080910402602001604051908101604052809291908181526020018280546103ea906125ff565b80156104375780601f1061040c57610100808354040283529160200191610437565b820191906000526020600020905b81548152906001019060200180831161041a57829003601f168201915b50505050509080600201805461044c906125ff565b80601f0160208091040260200160405190810160405280929190818152602001828054610478906125ff565b80156104c55780601f1061049a576101008083540402835291602001916104c5565b820191906000526020600020905b8154815290600101906020018083116104a857829003601f168201915b5050505050908060030180546104da906125ff565b80601f0160208091040260200160405190810160405280929190818152602001828054610506906125ff565b80156105535780601f1061052857610100808354040283529160200191610553565b820191906000526020600020905b81548152906001019060200180831161053657829003601f168201915b505050505090806004018054610568906125ff565b80601f0160208091040260200160405190810160405280929190818152602001828054610594906125ff565b80156105e15780601f106105b6576101008083540402835291602001916105e1565b820191906000526020600020905b8154815290600101906020018083116105c457829003601f168201915b5050505050908060050180546105f6906125ff565b80601f0160208091040260200160405190810160405280929190818152602001828054610622906125ff565b801561066f5780601f106106445761010080835404028352916020019161066f565b820191906000526020600020905b81548152906001019060200180831161065257829003601f168201915b505050505090806006018054610684906125ff565b80601f01602080910402602001604051908101604052809291908181526020018280546106b0906125ff565b80156106fd5780601f106106d2576101008083540402835291602001916106fd565b820191906000526020600020905b8154815290600101906020018083116106e057829003601f168201915b5050505050905087565b600060608060608060008660405161071f919061266c565b908152602001604051809103902060009054906101000a900460ff1661077a576040517f08c379a0000000000000000000000000000000000000000000000000000000008152600401610771906126cf565b60405180910390fd5b600060028760405161078c919061266c565b90815260200160405180910390206040518060e00160405290816000820160009054906101000a900473ffffffffffffffffffffffffffffffffffffffff1673ffffffffffffffffffffffffffffffffffffffff1673ffffffffffffffffffffffffffffffffffffffff16815260200160018201805461080b906125ff565b80601f0160208091040260200160405190810160405280929190818152602001828054610837906125ff565b80156108845780601f1061085957610100808354040283529160200191610884565b820191906000526020600020905b81548152906001019060200180831161086757829003601f168201915b5050505050815260200160028201805461089d906125ff565b80601f01602080910402602001604051908101604052809291908181526020018280546108c9906125ff565b80156109165780601f106108eb57610100808354040283529160200191610916565b820191906000526020600020905b8154815290600101906020018083116108f957829003601f168201915b5050505050815260200160038201805461092f906125ff565b80601f016020809104026020016040519081016040528092919081815260200182805461095b906125ff565b80156109a85780601f1061097d576101008083540402835291602001916109a8565b820191906000526020600020905b81548152906001019060200180831161098b57829003601f168201915b505050505081526020016004820180546109c1906125ff565b80601f01602080910402602001604051908101604052809291908181526020018280546109ed906125ff565b8015610a3a5780601f10610a0f57610100808354040283529160200191610a3a565b820191906000526020600020905b815481529060010190602001808311610a1d57829003601f168201915b50505050508152602001600582018054610a53906125ff565b80601f0160208091040260200160405190810160405280929190818152602001828054610a7f906125ff565b8015610acc5780601f10610aa157610100808354040283529160200191610acc565b820191906000526020600020905b815481529060010190602001808311610aaf57829003601f168201915b50505050508152602001600682018054610ae5906125ff565b80601f0160208091040260200160405190810160405280929190818152602001828054610b11906125ff565b8015610b5e5780601f10610b3357610100808354040283529160200191610b5e565b820191906000526020600020905b815481529060010190602001808311610b4157829003601f168201915b505050505081525050905080600001518160200151826040015183608001518460a00151955095509550955095505091939590929450565b600084604051610ba6919061266c565b908152602001604051809103902060009054906101000a900460ff1615610c02576040517f08c379a0000000000000000000000000000000000000000000000000000000008152600401610bf990612761565b60405180910390fd5b600160008873ffffffffffffffffffffffffffffffffffffffff1673ffffffffffffffffffffffffffffffffffffffff16815260200190815260200160002060009054906101000a900460ff1615610c8f576040517f08c379a0000000000000000000000000000000000000000000000000000000008152600401610c86906127f3565b60405180910390fd5b60006040518060e001604052808973ffffffffffffffffffffffffffffffffffffffff16815260200188815260200187815260200186815260200185815260200184815260200183815250905080600286604051610ced919061266c565b908152602001604051809103902060008201518160000160006101000a81548173ffffffffffffffffffffffffffffffffffffffff021916908373ffffffffffffffffffffffffffffffffffffffff1602179055506020820151816001019081610d5791906129bf565b506040820151816002019081610d6d91906129bf565b506060820151816003019081610d8391906129bf565b506080820151816004019081610d9991906129bf565b5060a0820151816005019081610daf91906129bf565b5060c0820151816006019081610dc591906129bf565b509050506001600086604051610ddb919061266c565b908152602001604051809103902060006101000a81548160ff02191690831515021790555060018060008a73ffffffffffffffffffffffffffffffffffffffff1673ffffffffffffffffffffffffffffffffffffffff16815260200190815260200160002060006101000a81548160ff021916908315150217905550600385908060018154018082558091505060019003906000526020600020016000909190919091509081610e8b91906129bf565b507f8d3f9c8a09dcd94bc9c847110caac40824996b777a45809b38b82b9aa3f71ec885888a604051610ebf93929190612a91565b60405180910390a15050505050505050565b600583604051610ee1919061266c565b908152602001604051809103902082604051610efd919061266c565b908152602001604051809103902060009054906101000a900460ff1615610f59576040517f08c379a0000000000000000000000000000000000000000000000000000000008152600401610f5090612b48565b60405180910390fd5b6000805b600484604051610f6d919061266c565b90815260200160405180910390208054905081101561102f5784604051602001610f97919061266c565b60405160208183030381529060405280519060200120600485604051610fbd919061266c565b90815260200160405180910390208281548110610fdd57610fdc612b68565b5b9060005260206000209060020201600001604051602001610ffe9190612c1a565b6040516020818303038152906040528051906020012003611022576001915061102f565b8080600101915050610f5d565b50806110c6576000604051806040016040528086815260200184815250905060048460405161105e919061266c565b908152602001604051809103902081908060018154018082558091505060019003906000526020600020906002020160009091909190915060008201518160000190816110ab91906129bf565b5060208201518160010190816110c191906129bf565b505050505b60016005856040516110d8919061266c565b9081526020016040518091039020846040516110f4919061266c565b908152602001604051809103902060006101000a81548160ff02191690831515021790555050505050565b6000818051602081018201805184825260208301602085012081835280955050505050506000915054906101000a900460ff1681565b60008083604051611166919061266c565b908152602001604051809103902060009054906101000a900460ff166111c1576040517f08c379a00000000000000000000000000000000000000000000000000000000081526004016111b8906126cf565b60405180910390fd5b6002836040516111d1919061266c565b90815260200160405180910390206006016040516020016111f29190612c1a565b6040516020818303038152906040528051906020012082604051602001611219919061266c565b6040516020818303038152906040528051906020012014905092915050565b60008082604051611249919061266c565b908152602001604051809103902060009054906101000a900460ff166112a4576040517f08c379a000000000000000000000000000000000000000000000000000000000815260040161129b906126cf565b60405180910390fd5b6002826040516112b4919061266c565b908152602001604051809103902060000160009054906101000a900473ffffffffffffffffffffffffffffffffffffffff1673ffffffffffffffffffffffffffffffffffffffff168373ffffffffffffffffffffffffffffffffffffffff1614905092915050565b60016020528060005260406000206000915054906101000a900460ff1681565b600582805160208101820180518482526020830160208501208183528095505050505050818051602081018201805184825260208301602085012081835280955050505050506000915091509054906101000a900460ff1681565b600080826040516113a8919061266c565b908152602001604051809103902060009054906101000a900460ff169050919050565b60006005836040516113dd919061266c565b9081526020016040518091039020826040516113f9919061266c565b908152602001604051809103902060009054906101000a900460ff16905092915050565b6003818154811061142d57600080fd5b906000526020600020016000915090508054611448906125ff565b80601f0160208091040260200160405190810160405280929190818152602001828054611474906125ff565b80156114c15780601f10611496576101008083540402835291602001916114c1565b820191906000526020600020905b8154815290600101906020018083116114a457829003601f168201915b505050505081565b60606004826040516114db919061266c565b9081526020016040518091039020805480602002602001604051908101604052809291908181526020016000905b8282101561165f578382906000526020600020906002020160405180604001604052908160008201805461153c906125ff565b80601f0160208091040260200160405190810160405280929190818152602001828054611568906125ff565b80156115b55780601f1061158a576101008083540402835291602001916115b5565b820191906000526020600020905b81548152906001019060200180831161159857829003601f168201915b505050505081526020016001820180546115ce906125ff565b80601f01602080910402602001604051908101604052809291908181526020018280546115fa906125ff565b80156116475780601f1061161c57610100808354040283529160200191611647565b820191906000526020600020905b81548152906001019060200180831161162a57829003601f168201915b50505050508152505081526020019060010190611509565b505050509050919050565b60606000600380549050905060008167ffffffffffffffff81111561169257611691611b97565b5b6040519080825280602002602001820160405280156116cb57816020015b6116b8611b15565b8152602001906001900390816116b05790505b50905060005b82811015611b0c576002600382815481106116ef576116ee612b68565b5b906000526020600020016040516117069190612c1a565b90815260200160405180910390206040518060e00160405290816000820160009054906101000a900473ffffffffffffffffffffffffffffffffffffffff1673ffffffffffffffffffffffffffffffffffffffff1673ffffffffffffffffffffffffffffffffffffffff168152602001600182018054611785906125ff565b80601f01602080910402602001604051908101604052809291908181526020018280546117b1906125ff565b80156117fe5780601f106117d3576101008083540402835291602001916117fe565b820191906000526020600020905b8154815290600101906020018083116117e157829003601f168201915b50505050508152602001600282018054611817906125ff565b80601f0160208091040260200160405190810160405280929190818152602001828054611843906125ff565b80156118905780601f1061186557610100808354040283529160200191611890565b820191906000526020600020905b81548152906001019060200180831161187357829003601f168201915b505050505081526020016003820180546118a9906125ff565b80601f01602080910402602001604051908101604052809291908181526020018280546118d5906125ff565b80156119225780601f106118f757610100808354040283529160200191611922565b820191906000526020600020905b81548152906001019060200180831161190557829003601f168201915b5050505050815260200160048201805461193b906125ff565b80601f0160208091040260200160405190810160405280929190818152602001828054611967906125ff565b80156119b45780601f10611989576101008083540402835291602001916119b4565b820191906000526020600020905b81548152906001019060200180831161199757829003601f168201915b505050505081526020016005820180546119cd906125ff565b80601f01602080910402602001604051908101604052809291908181526020018280546119f9906125ff565b8015611a465780601f10611a1b57610100808354040283529160200191611a46565b820191906000526020600020905b815481529060010190602001808311611a2957829003601f168201915b50505050508152602001600682018054611a5f906125ff565b80601f0160208091040260200160405190810160405280929190818152602001828054611a8b906125ff565b8015611ad85780601f10611aad57610100808354040283529160200191611ad8565b820191906000526020600020905b815481529060010190602001808311611abb57829003601f168201915b505050505081525050828281518110611af457611af3612b68565b5b602002602001018190525080806001019150506116d1565b50809250505090565b6040518060e00160405280600073ffffffffffffffffffffffffffffffffffffffff1681526020016060815260200160608152602001606081526020016060815260200160608152602001606081525090565b6000604051905090565b600080fd5b600080fd5b600080fd5b600080fd5b6000601f19601f8301169050919050565b7f4e487b7100000000000000000000000000000000000000000000000000000000600052604160045260246000fd5b611bcf82611b86565b810181811067ffffffffffffffff82111715611bee57611bed611b97565b5b80604052505050565b6000611c01611b68565b9050611c0d8282611bc6565b919050565b600067ffffffffffffffff821115611c2d57611c2c611b97565b5b611c3682611b86565b9050602081019050919050565b82818337600083830152505050565b6000611c65611c6084611c12565b611bf7565b905082815260208101848484011115611c8157611c80611b81565b5b611c8c848285611c43565b509392505050565b600082601f830112611ca957611ca8611b7c565b5b8135611cb9848260208601611c52565b91505092915050565b600060208284031215611cd857611cd7611b72565b5b600082013567ffffffffffffffff811115611cf657611cf5611b77565b5b611d0284828501611c94565b91505092915050565b600073ffffffffffffffffffffffffffffffffffffffff82169050919050565b6000611d3682611d0b565b9050919050565b611d4681611d2b565b82525050565b600081519050919050565b600082825260208201905092915050565b60005b83811015611d86578082015181840152602081019050611d6b565b60008484015250505050565b6000611d9d82611d4c565b611da78185611d57565b9350611db7818560208601611d68565b611dc081611b86565b840191505092915050565b600060e082019050611de0600083018a611d3d565b8181036020830152611df28189611d92565b90508181036040830152611e068188611d92565b90508181036060830152611e1a8187611d92565b90508181036080830152611e2e8186611d92565b905081810360a0830152611e428185611d92565b905081810360c0830152611e568184611d92565b905098975050505050505050565b600060a082019050611e796000830188611d3d565b8181036020830152611e8b8187611d92565b90508181036040830152611e9f8186611d92565b90508181036060830152611eb38185611d92565b90508181036080830152611ec78184611d92565b90509695505050505050565b611edc81611d2b565b8114611ee757600080fd5b50565b600081359050611ef981611ed3565b92915050565b600080600080600080600060e0888a031215611f1e57611f1d611b72565b5b6000611f2c8a828b01611eea565b975050602088013567ffffffffffffffff811115611f4d57611f4c611b77565b5b611f598a828b01611c94565b965050604088013567ffffffffffffffff811115611f7a57611f79611b77565b5b611f868a828b01611c94565b955050606088013567ffffffffffffffff811115611fa757611fa6611b77565b5b611fb38a828b01611c94565b945050608088013567ffffffffffffffff811115611fd457611fd3611b77565b5b611fe08a828b01611c94565b93505060a088013567ffffffffffffffff81111561200157612000611b77565b5b61200d8a828b01611c94565b92505060c088013567ffffffffffffffff81111561202e5761202d611b77565b5b61203a8a828b01611c94565b91505092959891949750929550565b60008060006060848603121561206257612061611b72565b5b600084013567ffffffffffffffff8111156120805761207f611b77565b5b61208c86828701611c94565b935050602084013567ffffffffffffffff8111156120ad576120ac611b77565b5b6120b986828701611c94565b925050604084013567ffffffffffffffff8111156120da576120d9611b77565b5b6120e686828701611c94565b9150509250925092565b60008115159050919050565b612105816120f0565b82525050565b600060208201905061212060008301846120fc565b92915050565b6000806040838503121561213d5761213c611b72565b5b600083013567ffffffffffffffff81111561215b5761215a611b77565b5b61216785828601611c94565b925050602083013567ffffffffffffffff81111561218857612187611b77565b5b61219485828601611c94565b9150509250929050565b600080604083850312156121b5576121b4611b72565b5b60006121c385828601611eea565b925050602083013567ffffffffffffffff8111156121e4576121e3611b77565b5b6121f085828601611c94565b9150509250929050565b6000602082840312156122105761220f611b72565b5b600061221e84828501611eea565b91505092915050565b6000819050919050565b61223a81612227565b811461224557600080fd5b50565b60008135905061225781612231565b92915050565b60006020828403121561227357612272611b72565b5b600061228184828501612248565b91505092915050565b600060208201905081810360008301526122a48184611d92565b905092915050565b600081519050919050565b600082825260208201905092915050565b6000819050602082019050919050565b600082825260208201905092915050565b60006122f482611d4c565b6122fe81856122d8565b935061230e818560208601611d68565b61231781611b86565b840191505092915050565b6000604083016000830151848203600086015261233f82826122e9565b9150506020830151848203602086015261235982826122e9565b9150508091505092915050565b60006123728383612322565b905092915050565b6000602082019050919050565b6000612392826122ac565b61239c81856122b7565b9350836020820285016123ae856122c8565b8060005b858110156123ea57848403895281516123cb8582612366565b94506123d68361237a565b925060208a019950506001810190506123b2565b50829750879550505050505092915050565b600060208201905081810360008301526124168184612387565b905092915050565b600081519050919050565b600082825260208201905092915050565b6000819050602082019050919050565b61245381611d2b565b82525050565b600060e083016000830151612471600086018261244a565b506020830151848203602086015261248982826122e9565b915050604083015184820360408601526124a382826122e9565b915050606083015184820360608601526124bd82826122e9565b915050608083015184820360808601526124d782826122e9565b91505060a083015184820360a08601526124f182826122e9565b91505060c083015184820360c086015261250b82826122e9565b9150508091505092915050565b60006125248383612459565b905092915050565b6000602082019050919050565b60006125448261241e565b61254e8185612429565b9350836020820285016125608561243a565b8060005b8581101561259c578484038952815161257d8582612518565b94506125888361252c565b925060208a01995050600181019050612564565b50829750879550505050505092915050565b600060208201905081810360008301526125c88184612539565b905092915050565b7f4e487b7100000000000000000000000000000000000000000000000000000000600052602260045260246000fd5b6000600282049050600182168061261757607f821691505b60208210810361262a576126296125d0565b5b50919050565b600081905092915050565b600061264682611d4c565b6126508185612630565b9350612660818560208601611d68565b80840191505092915050565b6000612678828461263b565b915081905092915050565b7f446f63746f72206e6f7420726567697374657265640000000000000000000000600082015250565b60006126b9601583611d57565b91506126c482612683565b602082019050919050565b600060208201905081810360008301526126e8816126ac565b9050919050565b7f446f63746f7220616c726561647920726567697374657265642077697468207460008201527f686973206c6963656e7365206e756d6265720000000000000000000000000000602082015250565b600061274b603283611d57565b9150612756826126ef565b604082019050919050565b6000602082019050818103600083015261277a8161273e565b9050919050565b7f446f63746f7220616c726561647920726567697374657265642077697468207460008201527f6869732061646472657373000000000000000000000000000000000000000000602082015250565b60006127dd602b83611d57565b91506127e882612781565b604082019050919050565b6000602082019050818103600083015261280c816127d0565b9050919050565b60008190508160005260206000209050919050565b60006020601f8301049050919050565b600082821b905092915050565b6000600883026128757fffffffffffffffffffffffffffffffffffffffffffffffffffffffffffffffff82612838565b61287f8683612838565b95508019841693508086168417925050509392505050565b6000819050919050565b60006128bc6128b76128b284612227565b612897565b612227565b9050919050565b6000819050919050565b6128d6836128a1565b6128ea6128e2826128c3565b848454612845565b825550505050565b600090565b6128ff6128f2565b61290a8184846128cd565b505050565b5b8181101561292e576129236000826128f7565b600181019050612910565b5050565b601f8211156129735761294481612813565b61294d84612828565b8101602085101561295c578190505b61297061296885612828565b83018261290f565b50505b505050565b600082821c905092915050565b600061299660001984600802612978565b1980831691505092915050565b60006129af8383612985565b9150826002028217905092915050565b6129c882611d4c565b67ffffffffffffffff8111156129e1576129e0611b97565b5b6129eb82546125ff565b6129f6828285612932565b600060209050601f831160018114612a295760008415612a17578287015190505b612a2185826129a3565b865550612a89565b601f198416612a3786612813565b60005b82811015612a5f57848901518255600182019150602085019450602081019050612a3a565b86831015612a7c5784890151612a78601f891682612985565b8355505b6001600288020188555050505b505050505050565b60006060820190508181036000830152612aab8186611d92565b90508181036020830152612abf8185611d92565b9050612ace6040830184611d3d565b949350505050565b7f41636365737320616c7265616479206772616e74656420746f2070617469656e60008201527f7421000000000000000000000000000000000000000000000000000000000000602082015250565b6000612b32602283611d57565b9150612b3d82612ad6565b604082019050919050565b60006020820190508181036000830152612b6181612b25565b9050919050565b7f4e487b7100000000000000000000000000000000000000000000000000000000600052603260045260246000fd5b60008154612ba4816125ff565b612bae8186612630565b94506001821660008114612bc95760018114612bde57612c11565b60ff1983168652811515820286019350612c11565b612be785612813565b60005b83811015612c0957815481890152600182019150602081019050612bea565b838801955050505b50505092915050565b6000612c268284612b97565b91508190509291505056fea2646970667358221220658a2d6c822c8e55cdcc779d94460257548cabba30bc083f963f60a3efbc071364736f6c634300081c0033",
  "linkReferences": {},
  "deployedLinkReferences": {}
}