{
  "_format": "hh-sol-artifact-1",
  "contractName": "PatientRegistration",
  "sourceName": "contracts/PatientRegistration.sol",
  "abi": [
    {
      "anonymous": false,
      "inputs": [
        {
          "indexed": false,
          "internalType": "string",
          "name": "hhNumber",
          "type": "string"
        },
        {
          "indexed": false,
          "internalType": "string",
          "name": "name",
          "type": "string"
        },
        {
          "indexed": false,
          "internalType": "address",
          "name": "walletAddress",
          "type": "address"
        }
      ],
      "name": "PatientRegistered",
      "type": "event"
    },
    {
      "inputs": [
        {
          "internalType": "string",
          "name": "",
          "type": "string"
        },
        {
          "internalType": "string",
          "name": "",
          "type": "string"
        }
      ],
      "name": "doctorPermissions",
      "outputs": [
        {
          "internalType": "bool",
          "name": "",
          "type": "bool"
        }
      ],
      "stateMutability": "view",
      "type": "function"
    },
    {
      "inputs": [],
      "name": "getAllPatients",
      "outputs": [
        {
          "components": [
            {
              "internalType": "address",
              "name": "walletAddress",
              "type": "address"
            },
            {
              "internalType": "string",
              "name": "name",
              "type": "string"
            },
            {
              "internalType": "string",
              "name": "dateOfBirth",
              "type": "string"
            },
            {
              "internalType": "string",
              "name": "gender",
              "type": "string"
            },
            {
              "internalType": "string",
              "name": "bloodGroup",
              "type": "string"
            },
            {
              "internalType": "string",
              "name": "homeAddress",
              "type": "string"
            },
            {
              "internalType": "string",
              "name": "email",
              "type": "string"
            },
            {
              "internalType": "string",
              "name": "hhNumber",
              "type": "string"
            },
            {
              "internalType": "string",
              "name": "password",
              "type": "string"
            }
          ],
          "internalType": "struct PatientRegistration.Patient[]",
          "name": "",
          "type": "tuple[]"
        }
      ],
      "stateMutability": "view",
      "type": "function"
    },
    {
      "inputs": [
        {
          "internalType": "string",
          "name": "_hhNumber",
          "type": "string"
        }
      ],
      "name": "getPatientDetails",
      "outputs": [
        {
          "internalType": "address",
          "name": "walletAddress",
          "type": "address"
        },
        {
          "internalType": "string",
          "name": "name",
          "type": "string"
        },
        {
          "internalType": "string",
          "name": "dateOfBirth",
          "type": "string"
        },
        {
          "internalType": "string",
          "name": "gender",
          "type": "string"
        },
        {
          "internalType": "string",
          "name": "bloodGroup",
          "type": "string"
        },
        {
          "internalType": "string",
          "name": "homeAddress",
          "type": "string"
        },
        {
          "internalType": "string",
          "name": "email",
          "type": "string"
        }
      ],
      "stateMutability": "view",
      "type": "function"
    },
    {
      "inputs": [
        {
          "internalType": "string",
          "name": "_doctorNumber",
          "type": "string"
        }
      ],
      "name": "getPatientList",
      "outputs": [
        {
          "components": [
            {
              "internalType": "string",
              "name": "patient_number",
              "type": "string"
            },
            {
              "internalType": "string",
              "name": "patient_name",
              "type": "string"
            }
          ],
          "internalType": "struct PatientRegistration.PatientList[]",
          "name": "",
          "type": "tuple[]"
        }
      ],
      "stateMutability": "view",
      "type": "function"
    },
    {
      "inputs": [
        {
          "internalType": "string",
          "name": "_patientNumber",
          "type": "string"
        },
        {
          "internalType": "string",
          "name": "_doctorNumber",
          "type": "string"
        },
        {
          "internalType": "string",
          "name": "_patientName",
          "type": "string"
        }
      ],
      "name": "grantPermission",
      "outputs": [],
      "stateMutability": "nonpayable",
      "type": "function"
    },
    {
      "inputs": [
        {
          "internalType": "string",
          "name": "",
          "type": "string"
        }
      ],
      "name": "isPatientRegistered",
      "outputs": [
        {
          "internalType": "bool",
          "name": "",
          "type": "bool"
        }
      ],
      "stateMutability": "view",
      "type": "function"
    },
    {
      "inputs": [
        {
          "internalType": "address",
          "name": "",
          "type": "address"
        }
      ],
      "name": "isPatientRegisteredAddress",
      "outputs": [
        {
          "internalType": "bool",
          "name": "",
          "type": "bool"
        }
      ],
      "stateMutability": "view",
      "type": "function"
    },
    {
      "inputs": [
        {
          "internalType": "string",
          "name": "_patientNumber",
          "type": "string"
        },
        {
          "internalType": "string",
          "name": "_doctorNumber",
          "type": "string"
        }
      ],
      "name": "isPermissionGranted",
      "outputs": [
        {
          "internalType": "bool",
          "name": "",
          "type": "bool"
        }
      ],
      "stateMutability": "view",
      "type": "function"
    },
    {
      "inputs": [
        {
          "internalType": "string",
          "name": "_hhNumber",
          "type": "string"
        }
      ],
      "name": "isRegisteredPatient",
      "outputs": [
        {
          "internalType": "bool",
          "name": "",
          "type": "bool"
        }
      ],
      "stateMutability": "view",
      "type": "function"
    },
    {
      "inputs": [
        {
          "internalType": "address",
          "name": "_walletAddress",
          "type": "address"
        }
      ],
      "name": "isRegisteredPatientAddress",
      "outputs": [
        {
          "internalType": "bool",
          "name": "",
          "type": "bool"
        }
      ],
      "stateMutability": "view",
      "type": "function"
    },
    {
      "inputs": [
        {
          "internalType": "string",
          "name": "",
          "type": "string"
        }
      ],
      "name": "patients",
      "outputs": [
        {
          "internalType": "address",
          "name": "walletAddress",
          "type": "address"
        },
        {
          "internalType": "string",
          "name": "name",
          "type": "string"
        },
        {
          "internalType": "string",
          "name": "dateOfBirth",
          "type": "string"
        },
        {
          "internalType": "string",
          "name": "gender",
          "type": "string"
        },
        {
          "internalType": "string",
          "name": "bloodGroup",
          "type": "string"
        },
        {
          "internalType": "string",
          "name": "homeAddress",
          "type": "string"
        },
        {
          "internalType": "string",
          "name": "email",
          "type": "string"
        },
        {
          "internalType": "string",
          "name": "hhNumber",
          "type": "string"
        },
        {
          "internalType": "string",
          "name": "password",
          "type": "string"
        }
      ],
      "stateMutability": "view",
      "type": "function"
    },
    {
      "inputs": [
        {
          "internalType": "address",
          "name": "_walletAddress",
          "type": "address"
        },
        {
          "internalType": "string",
          "name": "_name",
          "type": "string"
        },
        {
          "internalType": "string",
          "name": "_dateOfBirth",
          "type": "string"
        },
        {
          "internalType": "string",
          "name": "_gender",
          "type": "string"
        },
        {
          "internalType": "string",
          "name": "_bloodGroup",
          "type": "string"
        },
        {
          "internalType": "string",
          "name": "_homeAddress",
          "type": "string"
        },
        {
          "internalType": "string",
          "name": "_email",
          "type": "string"
        },
        {
          "internalType": "string",
          "name": "_hhNumber",
          "type": "string"
        },
        {
          "internalType": "string",
          "name": "_password",
          "type": "string"
        }
      ],
      "name": "registerPatient",
      "outputs": [],
      "stateMutability": "nonpayable",
      "type": "function"
    },
    {
      "inputs": [
        {
          "internalType": "uint256",
          "name": "",
          "type": "uint256"
        }
      ],
      "name": "registeredPatientsNumbers",
      "outputs": [
        {
          "internalType": "string",
          "name": "",
          "type": "string"
        }
      ],
      "stateMutability": "view",
      "type": "function"
    },
    {
      "inputs": [
        {
          "internalType": "address",
          "name": "_walletAddress",
          "type": "address"
        },
        {
          "internalType": "string",
          "name": "_hhNumber",
          "type": "string"
        }
      ],
      "name": "validateAddress",
      "outputs": [
        {
          "internalType": "bool",
          "name": "",
          "type": "bool"
        }
      ],
      "stateMutability": "view",
      "type": "function"
    },
    {
      "inputs": [
        {
          "internalType": "string",
          "name": "_hhNumber",
          "type": "string"
        },
        {
          "internalType": "string",
          "name": "_password",
          "type": "string"
        }
      ],
      "name": "validatePassword",
      "outputs": [
        {
          "internalType": "bool",
          "name": "",
          "type": "bool"
        }
      ],
      "stateMutability": "view",
      "type": "function"
    }
  ],
  "bytecode": "0x6080604052348015600f57600080fd5b506130f58061001f6000396000f3fe608060405234801561001057600080fd5b50600436106100f55760003560e01c80637babdb2611610097578063c6009d8411610066578063c6009d84146102d0578063d120c10c14610308578063ea977fc814610338578063f72526411461036e576100f5565b80637babdb26146102105780638ff1605b1461024057806391c12f7614610270578063abe08192146102a0576100f5565b80634f10c6c2116100d35780634f10c6c21461017857806357812a08146101a85780635df67040146101c45780637838ef1c146101e0576100f5565b806318a231a9146100fa5780632e55208d146101185780634433473314610148575b600080fd5b61010261039e565b60405161010f919061224a565b60405180910390f35b610132600480360381019061012d91906122ac565b61096e565b60405161013f91906122f4565b60405180910390f35b610162600480360381019061015d9190612444565b61098e565b60405161016f91906122f4565b60405180910390f35b610192600480360381019061018d91906124bc565b6109e9565b60405161019f91906122f4565b60405180910390f35b6101c260048036038101906101bd9190612505565b610a1f565b005b6101de60048036038101906101d991906126af565b610d96565b005b6101fa60048036038101906101f5919061278c565b610fe4565b6040516102079190612803565b60405180910390f35b61022a60048036038101906102259190612444565b611090565b60405161023791906122f4565b60405180910390f35b61025a60048036038101906102559190612825565b611173565b60405161026791906122f4565b60405180910390f35b61028a600480360381019061028591906124bc565b611257565b6040516102979190612987565b60405180910390f35b6102ba60048036038101906102b591906122ac565b6113f8565b6040516102c791906122f4565b60405180910390f35b6102ea60048036038101906102e591906124bc565b61144e565b6040516102ff999897969594939291906129b8565b60405180910390f35b610322600480360381019061031d9190612444565b611912565b60405161032f91906122f4565b60405180910390f35b610352600480360381019061034d91906124bc565b611964565b6040516103659796959493929190612a7d565b60405180910390f35b610388600480360381019061038391906124bc565b611f2b565b60405161039591906122f4565b60405180910390f35b60606000600580549050905060008167ffffffffffffffff8111156103c6576103c5612319565b5b6040519080825280602002602001820160405280156103ff57816020015b6103ec611f5f565b8152602001906001900390816103e45790505b50905060005b828110156109655760026005828154811061042357610422612b16565b5b9060005260206000200160405161043a9190612c48565b9081526020016040518091039020604051806101200160405290816000820160009054906101000a900473ffffffffffffffffffffffffffffffffffffffff1673ffffffffffffffffffffffffffffffffffffffff1673ffffffffffffffffffffffffffffffffffffffff1681526020016001820180546104ba90612b74565b80601f01602080910402602001604051908101604052809291908181526020018280546104e690612b74565b80156105335780601f1061050857610100808354040283529160200191610533565b820191906000526020600020905b81548152906001019060200180831161051657829003601f168201915b5050505050815260200160028201805461054c90612b74565b80601f016020809104026020016040519081016040528092919081815260200182805461057890612b74565b80156105c55780601f1061059a576101008083540402835291602001916105c5565b820191906000526020600020905b8154815290600101906020018083116105a857829003601f168201915b505050505081526020016003820180546105de90612b74565b80601f016020809104026020016040519081016040528092919081815260200182805461060a90612b74565b80156106575780601f1061062c57610100808354040283529160200191610657565b820191906000526020600020905b81548152906001019060200180831161063a57829003601f168201915b5050505050815260200160048201805461067090612b74565b80601f016020809104026020016040519081016040528092919081815260200182805461069c90612b74565b80156106e95780601f106106be576101008083540402835291602001916106e9565b820191906000526020600020905b8154815290600101906020018083116106cc57829003601f168201915b5050505050815260200160058201805461070290612b74565b80601f016020809104026020016040519081016040528092919081815260200182805461072e90612b74565b801561077b5780601f106107505761010080835404028352916020019161077b565b820191906000526020600020905b81548152906001019060200180831161075e57829003601f168201915b5050505050815260200160068201805461079490612b74565b80601f01602080910402602001604051908101604052809291908181526020018280546107c090612b74565b801561080d5780601f106107e25761010080835404028352916020019161080d565b820191906000526020600020905b8154815290600101906020018083116107f057829003601f168201915b5050505050815260200160078201805461082690612b74565b80601f016020809104026020016040519081016040528092919081815260200182805461085290612b74565b801561089f5780601f106108745761010080835404028352916020019161089f565b820191906000526020600020905b81548152906001019060200180831161088257829003601f168201915b505050505081526020016008820180546108b890612b74565b80601f01602080910402602001604051908101604052809291908181526020018280546108e490612b74565b80156109315780601f1061090657610100808354040283529160200191610931565b820191906000526020600020905b81548152906001019060200180831161091457829003601f168201915b50505050508152505082828151811061094d5761094c612b16565b5b60200260200101819052508080600101915050610405565b50809250505090565b60016020528060005260406000206000915054906101000a900460ff1681565b600482805160208101820180518482526020830160208501208183528095505050505050818051602081018201805184825260208301602085012081835280955050505050506000915091509054906101000a900460ff1681565b6000818051602081018201805184825260208301602085012081835280955050505050506000915054906101000a900460ff1681565b600082604051610a2f9190612c90565b908152602001604051809103902060009054906101000a900460ff1615610a8b576040517f08c379a0000000000000000000000000000000000000000000000000000000008152600401610a8290612cf3565b60405180910390fd5b600160008a73ffffffffffffffffffffffffffffffffffffffff1673ffffffffffffffffffffffffffffffffffffffff16815260200190815260200160002060009054906101000a900460ff1615610b18576040517f08c379a0000000000000000000000000000000000000000000000000000000008152600401610b0f90612cf3565b60405180910390fd5b60006040518061012001604052808b73ffffffffffffffffffffffffffffffffffffffff1681526020018a815260200189815260200188815260200187815260200186815260200185815260200184815260200183815250905080600284604051610b839190612c90565b908152602001604051809103902060008201518160000160006101000a81548173ffffffffffffffffffffffffffffffffffffffff021916908373ffffffffffffffffffffffffffffffffffffffff1602179055506020820151816001019081610bed9190612eaa565b506040820151816002019081610c039190612eaa565b506060820151816003019081610c199190612eaa565b506080820151816004019081610c2f9190612eaa565b5060a0820151816005019081610c459190612eaa565b5060c0820151816006019081610c5b9190612eaa565b5060e0820151816007019081610c719190612eaa565b50610100820151816008019081610c889190612eaa565b5090505060018060008c73ffffffffffffffffffffffffffffffffffffffff1673ffffffffffffffffffffffffffffffffffffffff16815260200190815260200160002060006101000a81548160ff0219169083151502179055506001600084604051610cf59190612c90565b908152602001604051809103902060006101000a81548160ff021916908315150217905550600583908060018154018082558091505060019003906000526020600020016000909190919091509081610d4e9190612eaa565b507f319ae3a95b9a410d647835a7e64d54ddf28faf35a698f0a2b63999585fa38edc838a8c604051610d8293929190612f7c565b60405180910390a150505050505050505050565b600483604051610da69190612c90565b908152602001604051809103902082604051610dc29190612c90565b908152602001604051809103902060009054906101000a900460ff1615610e1e576040517f08c379a0000000000000000000000000000000000000000000000000000000008152600401610e1590613033565b60405180910390fd5b6000805b600384604051610e329190612c90565b908152602001604051809103902080549050811015610ef45784604051602001610e5c9190612c90565b60405160208183030381529060405280519060200120600385604051610e829190612c90565b90815260200160405180910390208281548110610ea257610ea1612b16565b5b9060005260206000209060020201600001604051602001610ec39190612c48565b6040516020818303038152906040528051906020012003610ee75760019150610ef4565b8080600101915050610e22565b5080610f8b5760006040518060400160405280868152602001848152509050600384604051610f239190612c90565b90815260200160405180910390208190806001815401808255809150506001900390600052602060002090600202016000909190919091506000820151816000019081610f709190612eaa565b506020820151816001019081610f869190612eaa565b505050505b6001600485604051610f9d9190612c90565b908152602001604051809103902084604051610fb99190612c90565b908152602001604051809103902060006101000a81548160ff02191690831515021790555050505050565b60058181548110610ff457600080fd5b90600052602060002001600091509050805461100f90612b74565b80601f016020809104026020016040519081016040528092919081815260200182805461103b90612b74565b80156110885780601f1061105d57610100808354040283529160200191611088565b820191906000526020600020905b81548152906001019060200180831161106b57829003601f168201915b505050505081565b600080836040516110a19190612c90565b908152602001604051809103902060009054906101000a900460ff166110fc576040517f08c379a00000000000000000000000000000000000000000000000000000000081526004016110f39061309f565b60405180910390fd5b60028360405161110c9190612c90565b908152602001604051809103902060080160405160200161112d9190612c48565b60405160208183030381529060405280519060200120826040516020016111549190612c90565b6040516020818303038152906040528051906020012014905092915050565b600080826040516111849190612c90565b908152602001604051809103902060009054906101000a900460ff166111df576040517f08c379a00000000000000000000000000000000000000000000000000000000081526004016111d69061309f565b60405180910390fd5b6002826040516111ef9190612c90565b908152602001604051809103902060000160009054906101000a900473ffffffffffffffffffffffffffffffffffffffff1673ffffffffffffffffffffffffffffffffffffffff168373ffffffffffffffffffffffffffffffffffffffff1614905092915050565b60606003826040516112699190612c90565b9081526020016040518091039020805480602002602001604051908101604052809291908181526020016000905b828210156113ed57838290600052602060002090600202016040518060400160405290816000820180546112ca90612b74565b80601f01602080910402602001604051908101604052809291908181526020018280546112f690612b74565b80156113435780601f1061131857610100808354040283529160200191611343565b820191906000526020600020905b81548152906001019060200180831161132657829003601f168201915b5050505050815260200160018201805461135c90612b74565b80601f016020809104026020016040519081016040528092919081815260200182805461138890612b74565b80156113d55780601f106113aa576101008083540402835291602001916113d5565b820191906000526020600020905b8154815290600101906020018083116113b857829003601f168201915b50505050508152505081526020019060010190611297565b505050509050919050565b6000600160008373ffffffffffffffffffffffffffffffffffffffff1673ffffffffffffffffffffffffffffffffffffffff16815260200190815260200160002060009054906101000a900460ff169050919050565b6002818051602081018201805184825260208301602085012081835280955050505050506000915090508060000160009054906101000a900473ffffffffffffffffffffffffffffffffffffffff16908060010180546114ad90612b74565b80601f01602080910402602001604051908101604052809291908181526020018280546114d990612b74565b80156115265780601f106114fb57610100808354040283529160200191611526565b820191906000526020600020905b81548152906001019060200180831161150957829003601f168201915b50505050509080600201805461153b90612b74565b80601f016020809104026020016040519081016040528092919081815260200182805461156790612b74565b80156115b45780601f10611589576101008083540402835291602001916115b4565b820191906000526020600020905b81548152906001019060200180831161159757829003601f168201915b5050505050908060030180546115c990612b74565b80601f01602080910402602001604051908101604052809291908181526020018280546115f590612b74565b80156116425780601f1061161757610100808354040283529160200191611642565b820191906000526020600020905b81548152906001019060200180831161162557829003601f168201915b50505050509080600401805461165790612b74565b80601f016020809104026020016040519081016040528092919081815260200182805461168390612b74565b80156116d05780601f106116a5576101008083540402835291602001916116d0565b820191906000526020600020905b8154815290600101906020018083116116b357829003601f168201915b5050505050908060050180546116e590612b74565b80601f016020809104026020016040519081016040528092919081815260200182805461171190612b74565b801561175e5780601f106117335761010080835404028352916020019161175e565b820191906000526020600020905b81548152906001019060200180831161174157829003601f168201915b50505050509080600601805461177390612b74565b80601f016020809104026020016040519081016040528092919081815260200182805461179f90612b74565b80156117ec5780601f106117c1576101008083540402835291602001916117ec565b820191906000526020600020905b8154815290600101906020018083116117cf57829003601f168201915b50505050509080600701805461180190612b74565b80601f016020809104026020016040519081016040528092919081815260200182805461182d90612b74565b801561187a5780601f1061184f5761010080835404028352916020019161187a565b820191906000526020600020905b81548152906001019060200180831161185d57829003601f168201915b50505050509080600801805461188f90612b74565b80601f01602080910402602001604051908101604052809291908181526020018280546118bb90612b74565b80156119085780601f106118dd57610100808354040283529160200191611908565b820191906000526020600020905b8154815290600101906020018083116118eb57829003601f168201915b5050505050905089565b60006004836040516119249190612c90565b9081526020016040518091039020826040516119409190612c90565b908152602001604051809103902060009054906101000a900460ff16905092915050565b600060608060608060608060008860405161197f9190612c90565b908152602001604051809103902060009054906101000a900460ff166119da576040517f08c379a00000000000000000000000000000000000000000000000000000000081526004016119d19061309f565b60405180910390fd5b60006002896040516119ec9190612c90565b9081526020016040518091039020604051806101200160405290816000820160009054906101000a900473ffffffffffffffffffffffffffffffffffffffff1673ffffffffffffffffffffffffffffffffffffffff1673ffffffffffffffffffffffffffffffffffffffff168152602001600182018054611a6c90612b74565b80601f0160208091040260200160405190810160405280929190818152602001828054611a9890612b74565b8015611ae55780601f10611aba57610100808354040283529160200191611ae5565b820191906000526020600020905b815481529060010190602001808311611ac857829003601f168201915b50505050508152602001600282018054611afe90612b74565b80601f0160208091040260200160405190810160405280929190818152602001828054611b2a90612b74565b8015611b775780601f10611b4c57610100808354040283529160200191611b77565b820191906000526020600020905b815481529060010190602001808311611b5a57829003601f168201915b50505050508152602001600382018054611b9090612b74565b80601f0160208091040260200160405190810160405280929190818152602001828054611bbc90612b74565b8015611c095780601f10611bde57610100808354040283529160200191611c09565b820191906000526020600020905b815481529060010190602001808311611bec57829003601f168201915b50505050508152602001600482018054611c2290612b74565b80601f0160208091040260200160405190810160405280929190818152602001828054611c4e90612b74565b8015611c9b5780601f10611c7057610100808354040283529160200191611c9b565b820191906000526020600020905b815481529060010190602001808311611c7e57829003601f168201915b50505050508152602001600582018054611cb490612b74565b80601f0160208091040260200160405190810160405280929190818152602001828054611ce090612b74565b8015611d2d5780601f10611d0257610100808354040283529160200191611d2d565b820191906000526020600020905b815481529060010190602001808311611d1057829003601f168201915b50505050508152602001600682018054611d4690612b74565b80601f0160208091040260200160405190810160405280929190818152602001828054611d7290612b74565b8015611dbf5780601f10611d9457610100808354040283529160200191611dbf565b820191906000526020600020905b815481529060010190602001808311611da257829003601f168201915b50505050508152602001600782018054611dd890612b74565b80601f0160208091040260200160405190810160405280929190818152602001828054611e0490612b74565b8015611e515780601f10611e2657610100808354040283529160200191611e51565b820191906000526020600020905b815481529060010190602001808311611e3457829003601f168201915b50505050508152602001600882018054611e6a90612b74565b80601f0160208091040260200160405190810160405280929190818152602001828054611e9690612b74565b8015611ee35780601f10611eb857610100808354040283529160200191611ee3565b820191906000526020600020905b815481529060010190602001808311611ec657829003601f168201915b5050505050815250509050806000015181602001518260400151836060015184608001518560a001518660c00151975097509750975097509750975050919395979092949650565b60008082604051611f3c9190612c90565b908152602001604051809103902060009054906101000a900460ff169050919050565b604051806101200160405280600073ffffffffffffffffffffffffffffffffffffffff16815260200160608152602001606081526020016060815260200160608152602001606081526020016060815260200160608152602001606081525090565b600081519050919050565b600082825260208201905092915050565b6000819050602082019050919050565b600073ffffffffffffffffffffffffffffffffffffffff82169050919050565b600061201882611fed565b9050919050565b6120288161200d565b82525050565b600081519050919050565b600082825260208201905092915050565b60005b8381101561206857808201518184015260208101905061204d565b60008484015250505050565b6000601f19601f8301169050919050565b60006120908261202e565b61209a8185612039565b93506120aa81856020860161204a565b6120b381612074565b840191505092915050565b6000610120830160008301516120d7600086018261201f565b50602083015184820360208601526120ef8282612085565b915050604083015184820360408601526121098282612085565b915050606083015184820360608601526121238282612085565b9150506080830151848203608086015261213d8282612085565b91505060a083015184820360a08601526121578282612085565b91505060c083015184820360c08601526121718282612085565b91505060e083015184820360e086015261218b8282612085565b9150506101008301518482036101008601526121a78282612085565b9150508091505092915050565b60006121c083836120be565b905092915050565b6000602082019050919050565b60006121e082611fc1565b6121ea8185611fcc565b9350836020820285016121fc85611fdd565b8060005b85811015612238578484038952815161221985826121b4565b9450612224836121c8565b925060208a01995050600181019050612200565b50829750879550505050505092915050565b6000602082019050818103600083015261226481846121d5565b905092915050565b6000604051905090565b600080fd5b600080fd5b6122898161200d565b811461229457600080fd5b50565b6000813590506122a681612280565b92915050565b6000602082840312156122c2576122c1612276565b5b60006122d084828501612297565b91505092915050565b60008115159050919050565b6122ee816122d9565b82525050565b600060208201905061230960008301846122e5565b92915050565b600080fd5b600080fd5b7f4e487b7100000000000000000000000000000000000000000000000000000000600052604160045260246000fd5b61235182612074565b810181811067ffffffffffffffff821117156123705761236f612319565b5b80604052505050565b600061238361226c565b905061238f8282612348565b919050565b600067ffffffffffffffff8211156123af576123ae612319565b5b6123b882612074565b9050602081019050919050565b82818337600083830152505050565b60006123e76123e284612394565b612379565b90508281526020810184848401111561240357612402612314565b5b61240e8482856123c5565b509392505050565b600082601f83011261242b5761242a61230f565b5b813561243b8482602086016123d4565b91505092915050565b6000806040838503121561245b5761245a612276565b5b600083013567ffffffffffffffff8111156124795761247861227b565b5b61248585828601612416565b925050602083013567ffffffffffffffff8111156124a6576124a561227b565b5b6124b285828601612416565b9150509250929050565b6000602082840312156124d2576124d1612276565b5b600082013567ffffffffffffffff8111156124f0576124ef61227b565b5b6124fc84828501612416565b91505092915050565b60008060008060008060008060006101208a8c03121561252857612527612276565b5b60006125368c828d01612297565b99505060208a013567ffffffffffffffff8111156125575761255661227b565b5b6125638c828d01612416565b98505060408a013567ffffffffffffffff8111156125845761258361227b565b5b6125908c828d01612416565b97505060608a013567ffffffffffffffff8111156125b1576125b061227b565b5b6125bd8c828d01612416565b96505060808a013567ffffffffffffffff8111156125de576125dd61227b565b5b6125ea8c828d01612416565b95505060a08a013567ffffffffffffffff81111561260b5761260a61227b565b5b6126178c828d01612416565b94505060c08a013567ffffffffffffffff8111156126385761263761227b565b5b6126448c828d01612416565b93505060e08a013567ffffffffffffffff8111156126655761266461227b565b5b6126718c828d01612416565b9250506101008a013567ffffffffffffffff8111156126935761269261227b565b5b61269f8c828d01612416565b9150509295985092959850929598565b6000806000606084860312156126c8576126c7612276565b5b600084013567ffffffffffffffff8111156126e6576126e561227b565b5b6126f286828701612416565b935050602084013567ffffffffffffffff8111156127135761271261227b565b5b61271f86828701612416565b925050604084013567ffffffffffffffff8111156127405761273f61227b565b5b61274c86828701612416565b9150509250925092565b6000819050919050565b61276981612756565b811461277457600080fd5b50565b60008135905061278681612760565b92915050565b6000602082840312156127a2576127a1612276565b5b60006127b084828501612777565b91505092915050565b600082825260208201905092915050565b60006127d58261202e565b6127df81856127b9565b93506127ef81856020860161204a565b6127f881612074565b840191505092915050565b6000602082019050818103600083015261281d81846127ca565b905092915050565b6000806040838503121561283c5761283b612276565b5b600061284a85828601612297565b925050602083013567ffffffffffffffff81111561286b5761286a61227b565b5b61287785828601612416565b9150509250929050565b600081519050919050565b600082825260208201905092915050565b6000819050602082019050919050565b600060408301600083015184820360008601526128ca8282612085565b915050602083015184820360208601526128e48282612085565b9150508091505092915050565b60006128fd83836128ad565b905092915050565b6000602082019050919050565b600061291d82612881565b612927818561288c565b9350836020820285016129398561289d565b8060005b85811015612975578484038952815161295685826128f1565b945061296183612905565b925060208a0199505060018101905061293d565b50829750879550505050505092915050565b600060208201905081810360008301526129a18184612912565b905092915050565b6129b28161200d565b82525050565b6000610120820190506129ce600083018c6129a9565b81810360208301526129e0818b6127ca565b905081810360408301526129f4818a6127ca565b90508181036060830152612a0881896127ca565b90508181036080830152612a1c81886127ca565b905081810360a0830152612a3081876127ca565b905081810360c0830152612a4481866127ca565b905081810360e0830152612a5881856127ca565b9050818103610100830152612a6d81846127ca565b90509a9950505050505050505050565b600060e082019050612a92600083018a6129a9565b8181036020830152612aa481896127ca565b90508181036040830152612ab881886127ca565b90508181036060830152612acc81876127ca565b90508181036080830152612ae081866127ca565b905081810360a0830152612af481856127ca565b905081810360c0830152612b0881846127ca565b905098975050505050505050565b7f4e487b7100000000000000000000000000000000000000000000000000000000600052603260045260246000fd5b7f4e487b7100000000000000000000000000000000000000000000000000000000600052602260045260246000fd5b60006002820490506001821680612b8c57607f821691505b602082108103612b9f57612b9e612b45565b5b50919050565b600081905092915050565b60008190508160005260206000209050919050565b60008154612bd281612b74565b612bdc8186612ba5565b94506001821660008114612bf75760018114612c0c57612c3f565b60ff1983168652811515820286019350612c3f565b612c1585612bb0565b60005b83811015612c3757815481890152600182019150602081019050612c18565b838801955050505b50505092915050565b6000612c548284612bc5565b915081905092915050565b6000612c6a8261202e565b612c748185612ba5565b9350612c8481856020860161204a565b80840191505092915050565b6000612c9c8284612c5f565b915081905092915050565b7f50617469656e7420616c72656164792072656769737465726564000000000000600082015250565b6000612cdd601a836127b9565b9150612ce882612ca7565b602082019050919050565b60006020820190508181036000830152612d0c81612cd0565b9050919050565b60006020601f8301049050919050565b600082821b905092915050565b600060088302612d607fffffffffffffffffffffffffffffffffffffffffffffffffffffffffffffffff82612d23565b612d6a8683612d23565b95508019841693508086168417925050509392505050565b6000819050919050565b6000612da7612da2612d9d84612756565b612d82565b612756565b9050919050565b6000819050919050565b612dc183612d8c565b612dd5612dcd82612dae565b848454612d30565b825550505050565b600090565b612dea612ddd565b612df5818484612db8565b505050565b5b81811015612e1957612e0e600082612de2565b600181019050612dfb565b5050565b601f821115612e5e57612e2f81612bb0565b612e3884612d13565b81016020851015612e47578190505b612e5b612e5385612d13565b830182612dfa565b50505b505050565b600082821c905092915050565b6000612e8160001984600802612e63565b1980831691505092915050565b6000612e9a8383612e70565b9150826002028217905092915050565b612eb38261202e565b67ffffffffffffffff811115612ecc57612ecb612319565b5b612ed68254612b74565b612ee1828285612e1d565b600060209050601f831160018114612f145760008415612f02578287015190505b612f0c8582612e8e565b865550612f74565b601f198416612f2286612bb0565b60005b82811015612f4a57848901518255600182019150602085019450602081019050612f25565b86831015612f675784890151612f63601f891682612e70565b8355505b6001600288020188555050505b505050505050565b60006060820190508181036000830152612f9681866127ca565b90508181036020830152612faa81856127ca565b9050612fb960408301846129a9565b949350505050565b7f566965772041636365737320616c726561647920676976656e20746f2074686560008201527f20446f63746f7221000000000000000000000000000000000000000000000000602082015250565b600061301d6028836127b9565b915061302882612fc1565b604082019050919050565b6000602082019050818103600083015261304c81613010565b9050919050565b7f50617469656e74206e6f74207265676973746572656400000000000000000000600082015250565b60006130896016836127b9565b915061309482613053565b602082019050919050565b600060208201905081810360008301526130b88161307c565b905091905056fea26469706673582212207f80da0a60f6720cba7d1ac9071778f1eb48d9506e7ae59f0fc2036a96dc6c7e64736f6c634300081c0033",
  "linkReferences": {},
  "deployedLinkReferences": {}
}